:020000040800F2
:10000000281A0020790200084D4D0008E93E00083A
:10001000FD4800085914000805870008000000008A
:1000200000000000000000000000000051850008F2
:1000300075140008000000003D8400085585000884
:10004000930200089302000893020008930200083C
:10005000930200089302000893020008930200082C
:100060009302000893020008930200085D14000840
:100070009302000893020008930200086914000824
:1000800093020008930200089302000893020008FC
:1000900093020008930200089302000893020008EC
:1000A00093020008930200089302000893020008DC
:1000B0005D8500089302000893020008930200087F
:1000C00093020008930200089302000893020008BC
:1000D00093020008F98600089302000893020008C2
:1000E000930200089302000893020008930200089C
:1000F000930200089302000893020008930200088C
:10010000930200089302000893020008930200087B
:10011000930200089302000893020008930200086B
:10012000930200089302000893020008930200085B
:1001300000F002F800F090F80AA090E8000C824469
:100140008344AAF10107DA4501D100F085F8AFF246
:10015000090EBAE80F0013F0010F18BFFB1A43F0A5
:1001600001031847C8ED0000E8ED0000103A24BF75
:1001700078C878C1FAD8520724BF30C830C144BF0C
:1001800004680C607047000000230024002500264E
:10019000103A28BF78C1FBD8520728BF30C148BFEA
:1001A0000B6070476E2900F08B81702900F0CD82C2
:1001B00066290BF0E48265290BF0E18267290BF0D8
:1001C000DE8261290BF0DD8203681B0A28BF41F043
:1001D0008001692900F03881642900F03581752992
:1001E00000F032816F2900F05B82782900F099825B
:1001F000E92900F0F581E42900F0F281F52900F009
:10020000EF81EF2900F05882F82900F09882036806
:10021000DB0928BF41F08001632900F09D87732925
:1002200000F0A287E32900F0AD87F32900F0B28740
:10023000002070471FB501F007F8040000200021DE
:1002400009F0DAFF401C60600020002109F0BEFFC9
:10025000E0601FBD10B510BD00F0C8FF1146FFF7EC
:10026000E9FF08F051FA01F0A5F803B4FFF7F2FF37
:1002700003BC01F0E9F8000009488047094800473D
:10028000FEE7FEE7FEE7FEE7FEE7FEE7FEE7FEE746
:10029000FEE7FEE704480549054A064B70470000A3
:1002A000598500083101000828140020281A002070
:1002B00028160020281600201CB50C46064B7B444F
:1002C00069460090204600F014F904460020694673
:1002D00000F022F920461CBD5702000010B5431C57
:1002E00002E010F8011B71B18107FAD14FF0013221
:1002F00002C88C1A8C4314EAC211F9D0C01A0A063B
:1003000003D0C01E10BDC01A10BD0A0401D0801E4B
:1003100010BD0902FCD0401E10BD4FF0000200B518
:10032000134694469646203922BFA0E80C50A0E818
:100330000C50B1F12001BFF4F7AF090728BFA0E8C6
:100340000C5048BF0CC05DF804EB890028BF40F892
:10035000042B08BF704748BF20F8022B11F0804FD4
:1003600018BF00F8012B704770477047704710B5F1
:1003700000F0BAFA006810BD10B5044600F0B4FAF7
:10038000046010BD70B5044685690068C10601D5DA
:10039000302600E02026C00707D070BDD4E9012137
:1003A00030469047206A401C20626D1EF6D570BD15
:1003B00070B5044685690078C00707D170BDD4E9DF
:1003C000012120209047206A401C20626D1EF6D536
:1003D00070BD09684A0501D540B27047C905FCD512
:1003E00000B2704709684A0501D5C0B27047C90517
:1003F000FCD580B2704770B50C460546012A05D081
:100400002878800600D5EA69002302E0012305E090
:100410005B1C934202D2E05C0028F9D1A869E6187F
:10042000C01AA861286A184428622846FFF7AAFF64
:1004300004E0D5E9012114F8010B9047B442F8D348
:100440002846FFF7B5FF70BD2DE9F04106460024B0
:1004500010687529314616A510D0FFF7BAFF00289D
:1004600002DA404213A507E031688A0701D512A5D8
:1004700002E0490704D511A5012401E0FFF7B2FF0E
:1004800000210A2206F1240709E0B0FBF2FCB0FBD0
:10049000F2F302FB1C00303078541846491C002847
:1004A000F3D123462A463046BDE8F04100F065BA54
:1004B000000000002D0000002B00000020000000C4
:1004C00011680268006A530501D508700AE0D30577
:1004D00001D5088006E0130603D5C217C1E9000262
:1004E00000E008600120704701694A1C0261087839
:1004F000704700B58FB0CDE9013100210591054964
:100500007944CDE903101146684600F029F90FB08F
:1005100000BD0000E5FFFFFF0A6802F8010B0A605A
:10052000704700002DE9FF5F15468A460446DFF854
:10053000AC80F8440027D8E900103E46CDE9001011
:1005400010E03AF816106A4602A800F027FE411C97
:1005500007D02178890603D5E269391891420DD870
:100560000744761C2078800602D5E069B84205DD94
:10057000AE42E6DB3AF816000028E2D1A069C01BC3
:10058000A0612046FFF7FEFED8E90010CDE900107B
:10059000002017E03AF818106A4602A800F0FEFDA5
:1005A000B0F1FF3F81460BD000250DF1080B05E0AF
:1005B000D4E901211BF8050090476D1C4D45F7D388
:1005C00008F10100B0428046E4DB206A3844206232
:1005D0002046FFF7EDFEBDE8FF9F00008EB3000050
:1005E0002DE9F0418046D21D22F007020025D2E914
:1005F0000002F52915A614D0011E72F1000106DAD9
:100600000023D0EB030063EB020211A608E0D8F848
:1006100000108B0701D50FA602E0490701D50EA6F1
:1006200001251146002408F1240704E000F060F9D8
:1006300030323A55641C50EA0102F7D12B4632465B
:1006400021464046BDE8F04100F097B900000000A7
:100650002D0000002B0000002000000030B400211D
:1006600000F1240408E002F00705D208303542EA20
:100670004372DB086554491C52EA0305F3D1046850
:10068000002310A2250708D504F020040C4304D051
:10069000C46901230CA2641EC46130BC00F06DB9B2
:1006A00010B5044621461068FFF79CFE024620461E
:1006B000BDE810400023D1E7D21D22F00701D1E9A7
:1006C0000023CBE70000000030000000F0B40D462E
:1006D0000188090502D5214C7C4402E01F4C7C4472
:1006E0000E34002100F1240608E002F00F07120981
:1006F000E75D42EA03721B097754491C52EA03077B
:10070000F3D102780023120704D5702D06D009B169
:10071000022311342246F0BC00F02FB9012310341B
:10072000F8E770B504460D4621461068FFF75AFEFB
:10073000024629462046BDE870400023C6E7D21D88
:1007400022F00703D3E90023C0E70368126843F0EF
:10075000200303600823C3610023B7E7F0B1000062
:100760002DE9F05F894604464FF0000ADFF874B1C6
:10077000FB44C0F820A02046E1688847002874D0D8
:10078000252806D0D4E901219047206A401C206228
:10079000F1E700265F462046E168884720280546A5
:1007A00007DB312D05D2781910F8200C08B106436B
:1007B000F1E7B00701D526F00406C4F81CA0002715
:1007C000C4F818A02A2D09D0284609F009F838B332
:1007D00004EB8708303DC8F8185019E059F8041B9D
:1007E000204604EB87029161E1688847012F0546A6
:1007F00018D1E069002820DA26F020061DE0D8F89C
:10080000180000EB800005EB40003038C8F81800F5
:100810002046E1688847054608F0E2FF0028EED14F
:10082000012F0AD02E2D08D12046E16888477F1C71
:100830000546022F46F02006C4DBA069002803DA33
:10084000404246F00106A061F00701D026F01006F4
:100850006C2D0BD0682D09D04C2D39D06A2D35D098
:10086000742D35D07A2D33D016E038E0E1682F466C
:1008700020468847B842054609D16C2F26D04FF450
:100880008060E168064320468847054604E06C2FF7
:100890001AD04FF4807006430DB3A5F1410019281A
:1008A00002D8203546F400664A462946204626608E
:1008B0004E46FFF777FC80B101280BD0F61D26F0DD
:1008C000070000F1080956E74020E4E78020D8E758
:1008D0000020D6E706F104094DE7284652E7206AD2
:1008E000BDE8F09F80B10000004870471000002074
:1008F00030B5B0F10A0271F100034FEA900E4EEAF2
:10090000817EB0EB0E0061EB91014FEA101E4EEAC2
:10091000017E10EB0E0041EB11114FEA102E4EEA52
:10092000016E10EB0E0041EB11214FEA104E4EEA22
:10093000014E10EB0E0041EB1141401841F1000156
:100940004FEAD00040EA41704FEAD1014FEA8104FA
:1009500044EA907410EB800544EB01046D1944EBFC
:100960000404521BA3414FF0000348BF0A3200D5D4
:1009700030BD401C41F1000130BD2DE9F0470D466E
:1009800099469246044600F124080168880604D579
:10099000E06921F01001216000E00120A84201DDA2
:1009A000471B00E00027A1697A1902EB0900081A29
:1009B000A0612078C00602D42046FFF7E3FC0026A1
:1009C00008E0D4E901211AF806009047206A401C8B
:1009D000761C20624E45F4DB2078C0060AD52046FE
:1009E000FFF7D0FC06E0D4E9012130209047206ACF
:1009F000401C2062381EA7F10107F4DC07E0D4E9AF
:100A0000012118F805009047206A401C2062281E2A
:100A1000A5F10105F3DC2046FFF7CAFC20780006AB
:100A200002D50220BDE8F0870120FBE72DE9FF4F4A
:100A30000C461E464FF0FF378BB0D2E90001DDF8BF
:100A400060800A908A46C1F30A5505B93D460021E7
:100A500008464FF00000BAF1000F00F4400005DA3C
:100A600000EB80004FF4400101EA50004FEA90593A
:100A7000B9F1010F00DDB9460A9850EA4A000ED0DC
:100A800044F61050A5F2FF3545432F14B8F1000F7E
:100A90001ED07542291E1EDDC9F100021CE0B8F10E
:100AA000010F4FF0000001D0302103E0F24305E0D8
:100AB0002154401CB042FBDB30460022002121546F
:100AC0000B99C1F80880C1E900200FB0BDE8F08F94
:100AD000BD1B6D1CDEE74A4600DA694206A800F03D
:100AE000F7FB06AB93E8070003AB83E8070050462B
:100AF0000A9907F0A2FE8DE80700A0F500501F3804
:100B000000900398002D0ADD42F21F014A46084476
:100B1000002303A90390684608F00CF909E0A0F54A
:100B200000504A461F38002303A90390684608F086
:100B300016F98DE807000004000C03D04FF0FF30D9
:100B4000410800E01046B8F1000F03D000220092E7
:100B500015461EE0751E05D4FFF7CAFE30326255F9
:100B60006D1EF9D5B3460122084302D000227F1C36
:100B700004E02078302801D100227F1E002A099746
:100B800084D01DE0112D07DAFFF7B2FE3032625536
:100B90006D1C50EA0102F5D1084302D00098C8B19B
:100BA0000EE00021681E05E0235C625C6354225461
:100BB000401E491C8142F7DBAB46A81B401E099032
:100BC000002004F80B000B98099AC0F80880C0E9CF
:100BD000002B7AE711264FF0000857E72DE9F04F78
:100BE00088460446D21D22F0070191B0D1E90001E8
:100BF000CDE90A0108F0EAF902460B98C00F01D0CE
:100C00002D2007E02068810701D52B2002E020215C
:100C100001EAC000032A099001D0072A05DB034638
:100C20004146204600F014FB0BE12078800601D5F8
:100C3000E06900E00620B8F1650F814606D0B8F102
:100C4000660F18D0B8F1670F70D131E00020B9F10C
:100C5000110F009001DB112301E009F101030AAA41
:100C600001A90CA8FFF7E2FEDDE90C70002609F1EE
:100C70000105834647E001204B4600904FF00047B6
:100C80000AAA01A90CA8FFF7D1FEDDE90DB00C9965
:100C90005D46002610B909F101000D18B9EB0500F9
:100CA00003D4C0F1FF3609F10105A5EB09002BE0E3
:100CB000B9F1010F01DA4FF001090020B9F1110F6C
:100CC0000090484601DD112300E003460AAA01A96D
:100CD0000CA8FFF7ABFEDDE90C704D4600268346FD
:100CE000207800070AD4AB4500DA5D4601A8012D43
:100CF00004DD411911F8011C302907D04F4502DAF3
:100D000017F1040F04DA012082460FE06D1EEEE7B2
:100D1000002F02DCED1B3E4403E0781CA84200DDFE
:100D20007D1CB81B00F1010A4FF000472078000736
:100D300003D4AA4501DB4FF0FF3A0021B7F1004F81
:100D40000DF143088DF8431024D002202B23002FEF
:100D500001DA7F422D230A21021EA0F1010000DCEE
:100D60005FB197FBF1FC97FBF1F201FB1C7C17468E
:100D70000CF1300C08F801CDEEE7A8F1010003708A
:100D80002188090501D5452100E06521A0F1010870
:100D900000F8011C09980FA9A1EB0807FF1D00B17D
:100DA0000120411901EBEA70A1693844081A401E7C
:100DB000A0612078C00602D42046FFF7E3FA099824
:100DC00028B1D4E901219047206A401C2062207894
:100DD000C00622D52046FFF7D5FA1EE0002E04DB20
:100DE000B34502DD01A8805D00E03020D4E9012197
:100DF0009047206A401C2062761CAAF101005FEA3D
:100E0000000A0AD100F020FAC0680168405CD4E909
:100E100001219047206A401C2062281EA5F101058F
:100E2000DCDC07E0D4E9012118F8010B9047206AC7
:100E3000401C2062381EA7F10107F3DC2046FFF7B3
:100E4000B7FA032011B041E62DE9F04F04460D46F4
:100E5000D21D22F0070089B0D0E9009748463946F4
:100E600008F0B4F80246F80F01D02D2307E02068FF
:100E7000810701D52B2302E0202101EAC0038DF870
:100E800020300BB1012000E00020032A824601D06F
:100E9000072A04DB2946204600F0DAF93FE12078F2
:100EA000800601D40D2500E0E569C7F30A560D2D33
:100EB00049DA00214FEA175B08464FF00000002F87
:100EC00000F4400007DA00EB80004FF4400100EB33
:100ED000D07001EA60008115012901DD4FF0FF317A
:100EE00000224FEA850CBCF1180F06D31346ACF173
:100EF00018004FF08052C24003E04FF4801323FAF1
:100F00000CF30CF10C0CBCF1200F04D3ACF1200C51
:100F100009FA0CF001E007FA0CF000294FF0004844
:100F200001DD18B90FE00ED140450CD319EB0209D1
:100F30005F4121B9404502D19F4329EA0209BBEB39
:100F4000175F00D0761C2088000502D57B487844C6
:100F500002E07A487844193808AA302302F80A30A7
:100F6000037C0AF10101002E0AF1020A53546A4679
:100F700002DC4FF0300101E04FF031014FF0010889
:100F80008DF8001002D0A6F2FF3603E059EA4701BF
:100F900000D06B4E002D02DC2178090704D54FF0FC
:100FA00002082E218DF80110C44600210BE0C7F382
:100FB00003433F01C35C491C6D1E02F8083005293C
:100FC00008F1010801DA002DF1DC00210CE000EB52
:100FD0001973491C1B786D1E082902F808304FEA66
:100FE000091908F1010801DA002DF0DC21688B06EF
:100FF00002D516E0A8F10108E04505DD02EB080383
:1010000013F8013C302BF5D0B8F1000F09DD02EBED
:10101000080313F8013C2E2B03D1090701D4A8F1D2
:101020000108002D05DD3E2102F808106D1E08F1B3
:101030000108407C002E02F8080008F1010804DADB
:101040002D20764202F8080002E02B2002F808006A
:101050000A214FF47A70864208F101080BDB96FBF7
:10106000F0F3303302F8083096FBF0F308F1010892
:1010700000FB136601E0642E0CDB642096FBF0F3AA
:10108000303302F8083096FBF0F308F1010800FB5A
:10109000136601E00A2E06DB96FBF1F0303002F811
:1010A000080008F1010896FBF1F001FB10603030F8
:1010B00002F80800A16908F1010808EB050202EB3B
:1010C0000A00081AA0612078C00602D42046FFF763
:1010D00059F9216A08AE01EB0A00206204E0D4E964
:1010E000012116F8010B9047BAF1010AF7D22078D6
:1010F000C00602D52046FFF745F96E4609E016F80E
:10110000010B3E280FD0D4E901219047206A401CF2
:101110002062B8F10108F2D22046FFF749F909B080
:101120000320BDE8F08F206A2844206203E0D4E960
:101130000121302090476D1EEBD3F8E711AB000082
:1011400002FCFFFF10B5436913B1AFF3008001E06B
:10115000FFF751F9012010BD127800F124010A7047
:1011600000224A700122EDE711684FF0FF32E9E7F3
:1011700010B5436913B1AFF3008001E0FFF7D2F976
:10118000012010BD128800F1240182840022C28453
:101190000122EDE711684FF0FF32E9E72DE9F04158
:1011A00016460C46054600F047F8036893F801011F
:1011B000012807D0FF2C12D8185D80B101202C70B7
:1011C000BDE8F081D3F807013246214603F2071348
:1011D000C7182846BC46BDE8F041002360474FF0E1
:1011E000FF30EDE700487047100000207546FFF71C
:1011F000F9FFAE4605006946534620F007008546D4
:1012000018B020B5FFF746F8BDE820404FF00006C3
:101210004FF000074FF000084FF0000BAC46ACE871
:10122000C009ACE8C009ACE8C009ACE8C00921F0CD
:1012300007018D467047000010B500F005F8001D4D
:1012400010BD00BFB58F000000487047300000207F
:101250002DE9F0411F46044603260168072A01F4E0
:10126000006004DB08B116A505E016A503E008B18F
:1012700015A500E015A521F010002060A069C01E92
:10128000A0610FB1401EA0612046FFF77BF84FB16F
:10129000D4E9012138469047206A401C2062C01CD6
:1012A000206206E0206AFAE7D4E9012115F8010B73
:1012B0009047761EF8D22046FFF77AF8BDE8F08115
:1012C0004E414E006E616E00494E4600696E6600EA
:1012D0002DE9F047814616468AB0354878440DC856
:1012E0008DE80D0032487844801C03AC0DC884E8BA
:1012F0000D0041F69B300844372190FBF1F290FB42
:10130000F1F5A5F1800501FB12041B3C02D56442F6
:10131000012000E00020DFF898A080460027FA4472
:10132000AAF1BE0A0EE0E0070AD03246684607EB93
:10133000470101230AEB810107F011FD8DE8070049
:1013400064107F1C002CEED1194F7F44AE3F19E092
:10135000E80715D007EB04100DF1180A90E80E000D
:101360008AE80E00C068F04201D198190890324610
:10137000012306A903A807F0F2FC03AB83E80700EA
:101380006D10641C002DE3D14FF001033246694615
:10139000B8F1000F03A802D007F0CCFC01E007F081
:1013A000DEFCC9E90001C9F808200AB0BDE8F087F1
:1013B00014A8000010B50446AFF300802046BDE835
:1013C0001040FEF752BF00004FF0013C50F8042BD4
:1013D00051F8043B9A4221D1A2EB0C03934313EA48
:1013E000CC1317D150F8042B51F8043B9A4215D175
:1013F000A2EB0C03934313EACC130BD150F8042B4C
:1014000051F8043B9A4209D1A2EB0C03934313EA2F
:10141000CC13DBD04FF00000704700BFD01A01BAE8
:10142000B1FA81F101F0180122FA01F0CB40DBB2F0
:10143000C0B2C01AC1F120012CFA01F3D11A9143B4
:1014400011EAC311E6D1704701491820ABBEFEE78F
:101450002600020070470000FEE7000041F218205D
:10146000C2F2000000F09ABA41F25C20C2F2000021
:1014700000F094BA70470000EFF3108072B600BF1E
:10148000FEE7000010B581B00022009290F8242001
:10149000012A03D10221084601B010BD4B68012288
:1014A000062B80F8242015D8026803EB8303A3F1F0
:1014B000050E1F23D2F834C003FA0EF40B682CEA91
:1014C000040C03FA0EF444EA0C045463092B17D9F4
:1014D00037E000BF02680C2B20D803EB8303A3F195
:1014E00023041F23D2F830C003FA04FE0B682CEA51
:1014F0000E0C03FA04F444EA0C041463092B20D8FC
:10150000D2F810C003EB4303072489689C402CEAFF
:101510000404994021431161002136E003EB830369
:10152000A3F141041F23D2F82CC003FA04FE0B6878
:101530002CEA0E0C03FA04F444EA0C04D462092BDE
:10154000DED903EB4304D2F80CC0A4F11E0E07242D
:10155000896804FA0EF42CEA040401FA0EF121431E
:1015600023F00104102CD1600ED142F20841C4F2E4
:101570000101A1F10804A2420ED0816A41F02001CC
:101580008162012101E000BF0021002280F82420B7
:10159000084601B010BD00BF0A68120230D40A68C4
:1015A000102B42F400020A602CD140F20801C2F272
:1015B000000109684DF68362C4F21B32A1FB0212DE
:1015C000910C01EB8101490000910099E1B1009972
:1015D000013900910099C9B1009901390091009930
:1015E000B1B1009901390091009999B1009901397F
:1015F0000091009900294FF00001E8D1C5E700BF34
:101600000021C2E70021C0E70021BEE70021BCE7BE
:101610000021BAE70021B8E7B0B5002800F0B28099
:101620000446806A20B121688868C0070BD114E0A5
:101630000020E06284F82400204600F0A5F821682C
:101640008868C00709D0886820F00100886000F031
:10165000A3FC21688A68D20730D1A06AC00644D4AE
:10166000A06A41F2021290430230A062E36981F065
:10167000804080F49E3083F44022104308BF4FF432
:101680000023D4E9010243EA000C531EB3FA83F3AA
:101690005D091346B2F5807F18BF2B02207D257BA4
:1016A00001284CEA450030D135B3A56A45F0200544
:1016B000A562E56A45F00105E56226E0054602E01F
:1016C0008868C007C9D000F067FC401B2168032868
:1016D000F6D38868C007F3D0A06A40F01000A0627B
:1016E000E06A40F00100E062A06AA06A40F01000E9
:1016F000A0620120B0BD00BFD4F818C04EF60005AE
:10170000CFF6FF7505EB4C352B434D68B2F5807F66
:1017100025F4694543EA05034B608B684FF2FD757C
:10172000CFF6E17503EA050343EA00038B6001D0BD
:10173000012A07D122690023CFF6F07303EB02528E
:1017400001E000BF0022CB6A23F470031A43CA628F
:10175000896840F6FE62CFF61F721140814207D1C0
:101760000020E062A16A012262F30101A162B0BD22
:10177000A06A40F0100020F00200A062E06A40F091
:101780000100E0620120B0BD70B586B0044640F6AD
:101790000000C4F20100216800F5E05200269142E9
:1017A0000596049602D006B070BD00BF41F2180144
:1017B000C4F202010A6842F400720A600A6802F484
:1017C00000720192019A0A6842F004020A600968F4
:1017D00001F004010191019901210291032103917A
:1017E00002A900F0D1FA41F218250820C2F2000542
:1017F000C4F202004FF48072C5E9000605F1100042
:1018000080214FF480634FF0200C80E80C102846B4
:10181000C5E90261EE6100F00DFA002818BFFFF77C
:101820002BFE25626C6206B070BD0000014690F888
:101830002100022816D10868D1E90FC3026822F0FE
:101840000E020260026822F001020260012000FA2A
:1018500003F2CCF8042081F821000020002281F856
:1018600020207047042088630120002281F8202076
:101870007047000080B590F82110022928D1026835
:1018800040F2040C1368C4F2020C23F00E03136040
:1018900013680CF17C018A4223F0010111601BD90D
:1018A00040F20841C4F202018A4249D040F21C4190
:1018B000C4F202018A4247D040F23041C4F2020130
:1018C0008A4245D14FF48073CCF800345DE000BF0C
:1018D00004218163012080BD4321C4F202018A42B8
:1018E0000EDD6B21C4F202018A421BDC4421C4F2EA
:1018F00002018A423CD05821C4F202018A4233E0FC
:101900000821C4F202018A4236D01C21C4F202012D
:101910008A4237D03021C4F202018A4224D14FF4E6
:10192000807230E06C21C4F202018A4226D080210C
:10193000C4F202018A4217D14FF0807223E000BF47
:101940000123CCF8003420E01023CCF800341CE054
:101950000CF588614FF480338A4208BF4FF48053FE
:10196000CCF8003411E000BF4FF480320BE000BF30
:101970004FF4805207E000BF012204E04FF48012D0
:1019800001E000BF1022CCF80020416B4FF48072C0
:10199000028401B18847002080BD000010B5D0E965
:1019A0000FE3D0F800C0DEF80020DCF80010DA40C9
:1019B00054072DD511F004042AD0DCF80010890654
:1019C00005D4DCF8001021F00401CCF8001004224A
:1019D000C4F2020202F17C018C454DD940F208416B
:1019E000C4F202018C4500F0AF8040F21C41C4F209
:1019F00002018C4500F0AC8040F23041C4F202019B
:101A00008C4540F0A9804FF48061C2F80014F7E0E3
:101A1000940747D511F0020444D0DCF80010890681
:101A200008D4DCF8001021F00A01CCF800100121E4
:101A300080F821100422C4F2020202F17C018C45DC
:101A40004CD940F20841C4F202018C4500F0B48048
:101A500040F21C41C4F202018C4500F0B18040F21A
:101A60003041C4F202018C4540F0AE804FF4007169
:101A7000C2F80014D6E000BF4321C4F202018C4535
:101A800042DD6B21C4F202018C454FDC4421C4F2DB
:101A900002018C4500F0A4805821C4F202018C455B
:101AA00066E000BF120740F1C38011F0080108BFD3
:101AB00010BDDCF8001021F00E01CCF8001001215F
:101AC00001FA03F2CEF804208163016B4FF48072B7
:101AD0000029028440F09680AAE000BF4321C4F2AE
:101AE00002018C4548DD6B21C4F202018C4555DCB6
:101AF0004421C4F202018C4500F088805821C4F2D0
:101B000002018C4576E000BF0821C4F202018C4539
:101B10006AD01C21C4F202018C456FD03021C4F27E
:101B200002018C4524D14FF4806168E06C21C4F23D
:101B300002018C455AD08021C4F202018C4517D194
:101B40004FF080615BE000BF0421C2F8001457E051
:101B50004021C2F8001453E002F588634FF480215D
:101B60009C4508BF4FF48041C2F8001448E000BF14
:101B70004FF4802143E000BF0821C4F202018C45EC
:101B800048D01C21C4F202018C4549D03021C4F256
:101B900002018C452ED14FF4007142E06C21C4F259
:101BA00002018C4538D08021C4F202018C4521D13C
:101BB0004FF0007135E000BF0221C2F8001431E09F
:101BC0002021C2F800142DE002F588634FF40031A3
:101BD0009C4508BF4FF40051C2F8001422E000BF3A
:101BE0004FF480410BE000BF042108E04FF4800176
:101BF00005E000BF4FF4003113E000BF4021116049
:101C0000C16AA9B1BDE81040084700BF4FF40051B8
:101C100007E000BF022104E04FF4001101E000BF23
:101C200020211160816A0022002980F82020E9D15A
:101C300010BD0000002804BF012070472DE9F041CD
:101C400040F2000CC4F2020C01684FF6F8320CF5B9
:101C50008163CBF6FD72994238BF02F580624CF683
:101C6000CD430A44CCF6CC43A2FB03236FF003051B
:101C70000CF5806405EA9303D0E9012ED0F80C80BE
:101C80003CBF0024C4F20204C0E90F430B6843F6D2
:101C9000F075AB431A43D0E9045442EA0E0242EA1B
:101CA0000802D0E906672A43224332433A430A60D6
:101CB00000214FF4807281630284BDE8F041084640
:101CC00070470000F0B590F820C0BCF1010F32D091
:101CD00090F821C04FF0010EBCF1010F80F820E018
:101CE00026D14FF0020C80F821C04FF0000CC0F854
:101CF00038C0D0E900C4C56AC66BDCF80070102C8F
:101D000027F00107CCF80070006C0EFA00F070604C
:101D10000846CCF8043004BF10460A46CCF8080048
:101D2000CCF80C20DCF8000045B140F00E000DE0CE
:101D3000002180F820100220F0BD00BF20F0040038
:101D4000CCF80000DCF8000040F00A00CCF80000FD
:101D5000DCF8000040F00100CCF800000020F0BDED
:101D6000B0B5044600F018F9054640F20000C2F292
:101D700000000078611C18BF044400BF00F00CF99B
:101D8000401BA042FAD3B0BD2DE9F04F83B041F61D
:101D90000043C4F201030E6806229842019008BF76
:101DA0000522002E009200F0ED80019840F20C45D3
:101DB000A0F18043A3F584334FEAB32740F20040FB
:101DC0004FF6FF73C4F20105C4F20100009A4FF010
:101DD000000E4FF0010CC1F210034FF0000A4FF05B
:101DE000000B4FF00F08052F38BF3A46009208E06D
:101DF0000E680AF1010A36FA0AF20EF1040E00F03A
:101E0000C1800CFA0AF916EA090FF1D04E689E4219
:101E100012DC122E56D8DFE806F0350B4549555531
:101E200055555555555555555555554D510000BFAE
:101E3000D1F80CB046E000BF4FF6FF72C1F22102AC
:101E400096420FDC0022C1F2110296421AD0002203
:101E5000C1F21202964215D00022C1F2210296422E
:101E600010D02FE00022C1F2220296420AD00022B6
:101E7000C1F23102964205D00022C1F232029642EE
:101E800020D100BF8E684EB1012E019A14BFC2F856
:101E90001490C2F810904FF0080B13E04FF0040BB1
:101EA00010E000BFCF6807F1080B0BE04FF0000B0C
:101EB00008E000BFCF6807F1040B03E0CF6807F12B
:101EC0000C0B00BF7446BAF1080F28BF203C019FDD
:101ED00028BF04373E6808FA04F226EA02020BFA29
:101EE00004F632433A60CA79D2067FF581AF41F2F7
:101EF0001807C4F202073A684FF6084C42F0010294
:101F00003A603A68CFF6FF7C02F001020292029A30
:101F10002AF00302024452F80C700EF00C0608FA84
:101F200006F4A743009C04FA06F6374342F80C7007
:101F3000D1F804C05FEACC32026854BF22EA090635
:101F400042EA09065FEA8C320660426854BF22EA20
:101F5000090642EA09065FEACC224660826854BF5D
:101F600022EA090642EA09065FEA8C2286604FF0FF
:101F7000010C2A6854BF22EA090642EA09062E60CB
:101F800036E700BF03B0BDE8F08F0000002A08BFAD
:101F9000090401617047000041F22440C2F20000D0
:101FA0000068704740F2000041F22441C2F2000094
:101FB000C2F2000100780A6810440860704700000F
:101FC00080B542F20000C4F20200016841F0100145
:101FD0000160032000F082F80F2000F005F800F007
:101FE00027F8002080BD000070B540F20006C2F264
:101FF000000640F208013278C2F200014FF47A7311
:102000000968B3FBF2F20446B1FBF2F1084600F0B6
:10201000E1FE0F2C4FF0010508D838B94FF0FF3022
:1020200021460022002500F02DF87460284670BD7E
:1020300082B041F21800C4F20200016841F00101CF
:102040000160016801F0010101910199416841F0CD
:1020500080514160406800F080500090009802B0CC
:1020600070470000002848BF704700F01F010122A0
:1020700002FA01F14EF200124009CEF2000242F8DB
:102080002010704710B54EF60C5CCEF2000CDCF858
:102090000030C3F3022E8EF00704042C28BF042462
:1020A000BEF103034FF0FF3E0EFA04F438BF0023E5
:1020B000A14399400EFA03F39A43114300F00F0233
:1020C000043A624409010C3200F16043B0F1FF3F71
:1020D000C8BF03F56442117010BD00004EF60C51EC
:1020E000CEF200010A684FF6FF031A4060F30A229D
:1020F00042F0806040F0FD70086070472DE9F041CB
:1021000082B00446007841F21C06C007C4F2020601
:102110004AD0306810F0805808D1306840F08050C4
:102120003060306800F080500190019847F200075D
:10213000C4F200073868C00512D4386840F48070D3
:102140003860FFF729FF05463868C00508D4FFF757
:1021500023FF401B6428F7D9032002B0BDE8F081BB
:10216000706810F4407012D0616801F440718842C8
:102170000DD0706840F24042C4F24222012320F4A4
:10218000407113600023C007136071602AD170682A
:10219000616820F440700843B8F1000F706003D10B
:1021A000306820F0805030602068810707D556F8ED
:1021B000181CA26821F44041114346F8181CC006BF
:1021C00004D4002002B0BDE8F08100BF56F8180C1E
:1021D000616920F48000084346F8180C002002B022
:1021E000BDE8F081FFF7D8FE054641F2883700BF11
:1021F00070688007CBD4FFF7CFFE401BB8424FF08A
:102200000300F5D9EBE700002DE9F04381B0002889
:1022100000F0858042F20008C4F202080446D8F8B3
:1022200000000D4600F0070088420CD2D8F80000EC
:1022300020F007002843C8F80000D8F8000000F09C
:102240000700A8426BD1206841F204098107C4F25B
:10225000020917D5410705D5D9F8001041F4E0610E
:10226000C9F80010010705D5D9F8001041F46051F4
:10227000C9F80010D9F80010A26821F0F00111434C
:10228000C9F80010C00741D1D8F8000000F00700DD
:10229000A8420CD9D8F8000020F007002843C8F85D
:1022A0000000D8F8000000F00700A84237D12068ED
:1022B000410707D5D9F80010E26821F4E061114325
:1022C000C9F80010000708D5D9F80000216920F4EA
:1022D000605040EAC100C9F80000D9F8002002F0BF
:1022E0000C00082841F20020C0F27A0050D14EF6CE
:1022F0001C73C2F38341C0F60003595CD2033BD484
:1023000040F60010C0F23D00484341E060680228FA
:102310000AD001282AD159F8041C890308D40120C5
:1023200001B0BDE8F08300BF59F8041C8901F6D55F
:10233000D9F8001021F003010843C9F80000FFF7A5
:102340002BFE064641F28837D9F80000616800F09C
:102350000C00B0EB810F97D0FFF71EFE801BB84238
:10236000F2D9032001B0BDE8F08300BF59F8041C86
:102370008907D4D5DCE700BFD9F800204BF60C3331
:10238000C2F34042C0F600039A5C4843B0FBF2F04F
:10239000D9F800104BF60E32C1F30311C0F600025B
:1023A000515C40F2080220FA01F140F20400C2F24E
:1023B00000000068C2F200021160FFF715FE002065
:1023C00001B0BDE8F083000040F2080041F20401D2
:1023D000C2F20000C4F20201006809684BF61E3226
:1023E000C1F30221C0F60002515CC84070470000F2
:1023F00040F2080041F20401C2F20000C4F20201FE
:10240000006809684BF61E32C1F3C221C0F6000213
:10241000515CC840704700002DE9F04182B00028AF
:1024200068D00446007841F20006C007C4F20206F4
:1024300025D0706800F00C0004281BD0706800F0F4
:102440000C00082802D17068C00313D4606800280B
:1024500000F06881B0F5A02F00F07C81B0F5803FDE
:1024600000F07C81306820F480303060306820F4E7
:10247000802076E13068800301D56068D0B3207891
:10248000800718D5706810F00C0F07D0706800F046
:102490000C0008286ED17068C0036BD430688007C8
:1024A00002D52069012825D13068616920F0F80043
:1024B00040EAC1003060207800071FD42078400730
:1024C00032D4E56995B1706800F00C00082840F03E
:1024D0008F80012D0ED07068216A00F480328A420C
:1024E00008D1616A00F47010884203D1002002B064
:1024F000BDE8F081012002B0BDE8F081A0690028AC
:1025000062D00020C4F242200121C0F88014FFF7FD
:1025100043FD0546706A800700F18C80FFF73CFDA3
:10252000401B0228F6D92AE1F06910F0805808D142
:10253000F06940F08050F061F06900F08050009048
:10254000009847F20007C4F200073868C00529D494
:10255000386840F480703860FFF71EFD054600BF04
:102560003868C0051ED4FFF717FD401B6428F7D953
:1025700005E100BF2069002840F20000C4F24220BB
:1025800000F0828001210160FFF706FD054600BFD3
:10259000306880073FF588AFFFF7FEFC401B02283C
:1025A000F6D9ECE0E068002800F08080052800F013
:1025B0009780012800F09880306A20F00100306296
:1025C000306A20F0040092E00020C4F24220002192
:1025D000C0F88014FFF7E0FC054600BF706A800772
:1025E0007FF56CAFFFF7D8FC401B0228F6D9C6E098
:1025F0000027C4F2422700203866FFF7CDFC022DE9
:1026000005460BD13068800140F1BE80FFF7C4FC65
:10261000401B02284FF00300F4D968E730688001BE
:102620007FF564AFFFF7B8FC401B02284FF00300B2
:10263000F4D95CE740F20800C2F20000006844F6FA
:10264000D351C1F26201A0FB0101480A019000BF11
:1026500000BF0198411E002801913FF42FAF00BF39
:102660000198411E002801913FF428AF00BF019856
:10267000411E002801913FF421AF00BF0198411E87
:1026800000280191E4D119E700210160FFF784FCE3
:10269000054600BF306880077FF50DAFFFF77CFC73
:1026A000401B02284FF00300F4D920E7306A20F0E5
:1026B00001003062306A20F004003062FFF76CFCE9
:1026C000054641F2883700BF306A800720D5FFF702
:1026D00063FC401BB8424FF00300F5D907E700BF89
:1026E000306A40F004003062306A40F0010030622D
:1026F000FFF752FC054641F2883700BF306A800779
:1027000006D4FFF749FC401BB842F7D937E000BFB9
:10271000B8F1000F7FF4D5AEF06920F08050F06181
:10272000CFE600BF306820F480303060306820F49D
:1027300080203060FFF730FC054600BF3068800322
:102740007FF59DAEFFF728FC401B64284FF0030087
:10275000F4D9CCE6306840F480203060306840F432
:1027600080303060FFF718FC054600BF30688003FA
:102770003FF585AEFFF710FC401B6428F6D9032017
:1027800002B0BDE8F08100BF206AB0F5803F05D1FE
:102790007168A26821F40031114371607168626A46
:1027A00021F4741110430843706001203866FFF76C
:1027B000F3FB0446306880013FF598AEFFF7ECFB71
:1027C000001B02284FF00300F4D990E670B538B131
:1027D0000446406A30B10020206104F1140007E093
:1027E000012070BD6068B0F5827F03D004F11C0049
:1027F000002101600026A66294F8510020B920460D
:1028000084F8506000F038F8022084F8510094E811
:10281000071001F48271036802F4044223F04003BC
:102820000360236911440CF40062114403F00202B6
:102830006369114403F00102A369E569114403F4DB
:102840000072114405F03802256A114405F0800237
:10285000A56A114305F4005211430160042101EA05
:1028600013414160C16921F40061C16101206665C5
:1028700084F85100304670BD10B586B0006843F64C
:102880000001C4F2000188424FF00001CDE90411BB
:10289000CDE902112CD043F20001C4F201018842BB
:1028A00057D141F21800C4F20200016840F600045A
:1028B00041F4805101600168C4F2010401F48051C7
:1028C00001910199016841F004010160006802A9C9
:1028D00000F0040001900198A020029002200390D3
:1028E000032005902046FFF74FFA402029E000BF63
:1028F00041F21800C4F20200416841F48041416095
:10290000416801F4804101910199016841F0080199
:102910000160006802A900F00800019001984FF4DE
:1029200020400290022003900320059040F6000012
:10293000C4F2010000F580642046FFF725FA4FF449
:10294000804002900020CDE9030002A92046FFF755
:102950001BFA06B010BD00002DE9F04381B004461B
:1029600090F85000012803D1022001B0BDE8F083A7
:102970004FF001091D4616460F4684F85090FFF7A8
:102980000BFB94F85110012972D18046002F4FF0B3
:10299000010018BF002E00F0C2800320002184F83F
:1029A000510061652763A686E686A163A187E1875A
:1029B000A0682164B0F5004F2068616407D1016808
:1029C00021F040010160016841F48041016001682B
:1029D000490603D4016841F0400101606168731E3B
:1029E000E268B1FA81F1B3FA83F349095B09B2F500
:1029F000006F41EA03013DD131B137F8021BC160DC
:102A00002763E18E0139E186E18E00296CD0691CD3
:102A10001BD000BF8168890706D4FFF7BDFAA0EB81
:102A20000800A84208D348E0216B31F8022BC260AD
:102A30002163E08E0138E086E08E002854D02068C3
:102A400081688907E9D5EFE720688168890703D4A1
:102A5000FFF7A2FA08E000BF216B31F8022BC26039
:102A60002163E08E0138E086E08E0028ECD13BE067
:102A7000022054E039B139780173206B01302063B2
:102A8000E08E0138E086E08E70B3681C0BD11BE04D
:102A9000216B09780173206B01302063E08E0138CF
:102AA000E086E08E00B3206881688907F0D4FFF7E4
:102AB00073FAA0EB0800A842F3D303202FE000BF75
:102AC000FFF76AFAE08E78B1206881688907F7D548
:102AD000216B09780173206B01302063E08E01388F
:102AE000E086E08E0028EFD1204680212A4643462A
:102AF00005F0BCFC28B1606D40F02000606520202E
:102B00006065A06838B9002000902068C168009115
:102B1000806800900098606D002818BF0120002197
:102B200084F8519084F8501001B0BDE8F0830000A3
:102B30002DE9F04381B0044690F85000012803D1FC
:102B4000022001B0BDE8F08301201E4615460F4665
:102B500084F85000FFF720FA94F8511081460129BB
:102B60000CD06068B0F5827F40F0A080A06800289B
:102B70004FF0020008BF042940F09980002F4FF069
:102B8000010018BF002D00F09280002E00F08F8011
:102B900094F85100002104281CBF052084F851003E
:102BA0006165A563E687A6872763E6862068A68613
:102BB000216461640168490603D4016841F0400161
:102BC00001606168731EE268B1FA81F1B3FA83F3C0
:102BD000DDF8208049095B09B2F5006F41EA030185
:102BE0006ED131B137F8021BC1602763E08E013826
:102BF000E086012518F1010031D101E0FFF7CCF9A1
:102C0000E08E18B9E08F002800F0C280206881684B
:102C100089070CD5E18E51B1012D08D1216B00251A
:102C200031F8022BC2602163E18E0139E1868168AF
:102C3000C907E3D0E18F0029E0D0C068A16B01256E
:102C400021F8020BA163E08F0138E087D6E700BFCF
:102C5000FFF7A2F9A0EB0900404580F0A980E08EC3
:102C600018B9E08F002800F09380206881688907F8
:102C70000CD5E18E51B1012D08D1216B002531F821
:102C8000022BC2602163E18E0139E1868168C907A8
:102C9000DED0E18F0029DBD0C068A16B012521F8CF
:102CA000020BA163E08F0138E087D1E70220012108
:102CB00084F85110002184F8501001B0BDE8F08371
:102CC00039B139780173206B01302063E08E01380F
:102CD000E086012518F1010032D101E0FFF75CF92F
:102CE000E08E10B9E08F002852D0206881688907F3
:102CF0000ED5E18E61B1012D0AD1216B0025097835
:102D00000173216B206801312163E18E0139E18675
:102D10008168C907E2D0E18F0029DFD0C068A16BCC
:102D200001250870A06B0130A063E08F0138E087B7
:102D3000D4E700BFFFF730F9A0EB0900404539D2D6
:102D4000E08E08B9E08F18B32068816889070ED536
:102D5000E18E61B1012D0AD1216B00250978017343
:102D6000216B206801312163E18E0139E1868168A0
:102D7000C907DFD0E18F0029DCD0C068A16B012535
:102D80000870A06B0130A063E08F0138E087D1E7C5
:102D90002046802142464B4605F068FB60B1606DDD
:102DA00040F0200060652020606501207FE700BFC3
:102DB00003207CE703207AE7A06800284FF000009A
:102DC0007FF475AF00902168CA680092896800910D
:102DD00000996CE7411E0020B0EB116F1CBF012071
:102DE00070474EF21002CEF2000251604EF62351AF
:102DF000CEF20001F0230B70072190601160704744
:102E0000704700007047000010B590F83C20012A80
:102E10004FF002023FD080F83D200268D2F804E073
:102E2000D2F808C00C682EF07003234340F6FF343C
:102E3000C4F20004A242536010DCB2F1804F1FD0F4
:102E400040F20043C4F200039A4219D040F6000356
:102E5000C4F200039A4213D017E000BF40F60043CB
:102E6000C4F200039A420BD043F20043C4F20103C0
:102E70009A4205D042F60043C4F201039A4204D1BB
:102E800049682CF08003194391600121002280F8E9
:102E90003D1080F83C20104610BD0000002804BF03
:102EA0000120704710B5044690F83D0028B9002075
:102EB00084F83C00204600F085F8022084F83D00AC
:102EC000206840F6FF330268C4F2000343F2004C6E
:102ED0009842C4F2010C21DCB0F1804F2CD040F2BA
:102EE0000041C4F20001884226D040F60001C4F23D
:102EF0000001884220D0984224DCB0F1804F2FD0CE
:102F000040F20041C4F20001884229D040F600019D
:102F1000C4F20001884223D026E000BF40F6004101
:102F2000C4F20001884207D0604505D042F6004156
:102F3000C4F201018842DED1A16822F070020A4386
:102F40009842DADD40F60041C4F20001884207D021
:102F5000604505D042F60041C4F20101884203D128
:102F6000216922F440720A43A36922F08001D4F857
:102F700004E0E268194360450160C262C0F828E0DD
:102F800005D042F60041C4F20101884201D16169D5
:102F9000016301214161002084F8461084F83E104D
:102FA00084F83F1084F8401084F8411084F84210EF
:102FB00084F8431084F8441084F8451084F83D10D8
:102FC00010BD000080B582B00068B0F1804F1CBF1A
:102FD00002B080BD41F21C00C4F202000168002270
:102FE00041F0010101600068002100F00100019042
:102FF00001981C20FFF746F81C2002B0BDE8804075
:10300000FFF730B890F83D1001291CBF0120704730
:10301000022180F83D10006840F6FF32C168C4F21A
:103020000002904241F00101C1600FDCB0F1804F1D
:103030001ED040F20041C4F20001884218D040F690
:103040000001C4F20001884212D018E040F60041AD
:10305000C4F2000188420BD043F20041C4F20101E6
:10306000884205D042F60041C4F20101884206D1EF
:10307000816801F00701062904BF0020704701683C
:1030800041F00101016000207047000080B590F818
:103090003C20012A4FF0020200F0BF8080F83D2062
:1030A000D0F800C04FF67772DCF8083023EA02024D
:1030B000CCF808200B683F2B1CDD5F2B20DD602B3C
:1030C00050D0B3F5005F6DD0702B40F0A080D1E9F7
:1030D00001E3C968DCF8082043EA0E0322F47F42CA
:1030E00043EA01211143CCF80810DCF8081041F044
:1030F00077018AE01F2B29DC63B3102B2AD086E0EE
:10310000402B63D0502B40F08280D1F804E0C96896
:10311000DCF82030DCF8202022F00102CCF820205E
:10312000DCF8182022F0F00242EA011123F00A0232
:1031300042EA0E02CCF81810CCF82020DCF8081077
:1031400041F0570121F020015FE000BF202B01D0AA
:10315000302B5CD1DCF8081021F07001194341F0EC
:10316000070152E0D1F804E0C968DCF8203023F010
:103170001003CCF82030DCF81830DCF8202023F4E1
:10318000704322F0A00243EA013142EA0E12CCF869
:103190001810CCF82020DCF8081041F0670121F06D
:1031A000100132E0D1E901E3C968DCF8082043EA04
:1031B0000E0322F47F4243EA01211143CCF80810A8
:1031C000DCF8081041F480411FE000BFD1F804E0B2
:1031D000C968DCF82030DCF8202022F00102CCF8AD
:1031E0002020DCF8182022F0F00242EA011123F03E
:1031F0000A0242EA0E02CCF81810CCF82020DCF8C3
:10320000081041F0470121F03001CCF808100121ED
:10321000002280F83D1080F83C20104680BD000060
:103220007047000010B5016804460869800744BF74
:10323000C8685FEA807039D40869400744BFC8682D
:103240005FEA40703ED40869000744BFC8685FEA7F
:10325000007045D40869C00644BFC8685FEAC06012
:103260004AD40869C0071CBFC8685FEAC07051D162
:103270000869000644BFC8685FEA006052D4086964
:10328000400644BFC8685FEA406053D408698006BE
:1032900046BFC8685FEA806010BD6FF0200220461C
:1032A0000A61BDE81040FFF7ADBD00BF6FF002003E
:1032B0000861012020778869800743D02046FFF706
:1032C000AFFF45E06FF004000861022020778869B5
:1032D00010F4407F40D02046FFF7A2FF42E000BF3D
:1032E0006FF00800086104202077C86980073DD08E
:1032F0002046FFF795FF3FE06FF0100008610820BF
:103300002077C86910F4407F3AD02046FFF788FF45
:103310003CE000BF6FF001000861204600F086FA33
:103320002168A5E76FF0800008612046FFF768FD7F
:103330002168A4E76FF040000861204600F082FA9F
:103340002168A3E7204600F025F8204600F0FAF9AE
:103350002168002020776FE7204600F01BF8204608
:1033600000F0F0F92168002020776CE7204600F09B
:1033700011F8204600F0E6F921680020207769E77F
:10338000204600F007F8204600F0DCF92168002014
:10339000207766E7704700002DE9F04190F83C3057
:1033A000012B04BF0220BDE8F0814FEAB202032ADC
:1033B00000F21381DFE802F002468ED8036843F280
:1033C00000461A6AC4F2010622F001021A621D6A5E
:1033D0001A465C6852F818EF8F68D1F800C025F0E3
:1033E0000205B34245EA070505D042F60047C4F29C
:1033F0000107BB4205D1CF6825F00C0527F0040773
:103400003D43B34205D042F60046C4F20106B34242
:1034100005D1D1E9056724F4407434433C432EF0D0
:10342000730747EA0C075C609F614F6809695F6337
:103430001D629F6947F008079F619F6927F0040795
:103440009F61C7E0036843F200481A6AC4F20108AA
:1034500022F010021A621D6A1A465C6852F818EFD0
:103460008F68D1F800C025F02005434545EA0715CF
:1034700005D042F60047C4F20107BB4207D1CF682E
:103480006FF0400625F0C00506EA071635434345B0
:1034900005D042F60046C4F20106B34207D1D1E995
:1034A000056724F4406444EA860444EA87042EF461
:1034B000E64747EA0C275C609F614F6809699F6394
:1034C0001D629F6947F400679F619F6927F48067C9
:1034D0009F617EE0036843F200481A6AC4F2010863
:1034E00022F480721A621D6A1A465C6852F81CCF78
:1034F0008F68D1F800E025F40075434545EA0725BB
:1035000005D042F60047C4F20107BB4208D1CF689C
:1035100040F2FF463F0225F4406527EA06063543A0
:10352000434505D042F60046C4F20106B34207D136
:10353000D1E9056724F4405444EA061444EA071428
:103540002CF0730747EA0E075C60DF614F6809697A
:10355000DF631D62DF6947F00807DF61DF6927F07D
:103560000407DF6136E000BF036843F200471A6AD0
:10357000C4F2010722F480521A621A46D3F820C01E
:103580005D6852F81C4FD1F800E08E68BB4205D050
:1035900042F60047C4F20107BB4204D14F6925F44B
:1035A000804545EA87152CF4005747EA063724F48E
:1035B000E64646EA0E265D60DE614E6809691E64D5
:1035C0001F62DF6947F40067DF61DF6927F4806706
:1035D000DF610902136819431160002180F83C1073
:1035E0000846BDE8F0810000002804BF01207047B4
:1035F00010B5044690F83D0028B9002084F83C003E
:10360000204600F085F8022084F83D00206840F64E
:10361000FF330268C4F2000343F2004C9842C4F244
:10362000010C21DCB0F1804F2CD040F20041C4F2FB
:103630000001884226D040F60001C4F20001884211
:1036400020D0984224DCB0F1804F2FD040F20041CE
:10365000C4F20001884229D040F60001C4F2000102
:10366000884223D026E000BF40F60041C4F20001AA
:10367000884207D0604505D042F60041C4F20101FE
:103680008842DED1A16822F070020A439842DADD56
:1036900040F60041C4F20001884207D0604505D0E1
:1036A00042F60041C4F20101884203D1216922F4AB
:1036B00040720A43A36922F08001D4F804E0E26872
:1036C000194360450160C262C0F828E005D042F6A7
:1036D0000041C4F20101884201D161690163012105
:1036E0004161002084F8461084F83E1084F83F10B1
:1036F00084F8401084F8411084F8421084F8431094
:1037000084F8441084F8451084F83D1010BD000082
:1037100081B0006840F20041C4F20001884201D04B
:1037200001B0704741F21C00C4F20200016841F090
:1037300002010160006800F002000090009801B0F2
:10374000704700007047000041B1082910D00429DB
:1037500014BF00F1410200F13F020BE090F83E205F
:10376000012A1CBF01207047022280F83E2013E08E
:1037700000F140021278012A1CBF0120704702228A
:10378000082907D0042914BF80F8412080F83F2081
:1037900002E000BF80F84020006801F01F01012214
:1037A000036A02FA01F123EA01020262026A11438A
:1037B00040F6FF32C4F20002904201620EDCB0F12A
:1037C000804F25D040F20041C4F2000188421FD052
:1037D00040F60001C4F2000118E000BF40F60041CD
:1037E000C4F20001884213D043F20042C4F2010245
:1037F00042F600419042C4F2010101D088420ED14C
:10380000436C904243F40043436401D0884206D1A4
:10381000816801F00701062904BF00207047016894
:1038200041F00101016000207047000080B5006890
:10383000B0F1804F18BF80BD00F004FEBDE88040AD
:1038400001F0EEB970470000F0B583B0054690F87E
:103850003E0020280ED113460A4600294FF00104ED
:1038600018BF002B02D1204603B0F0BD95F83C00F4
:10387000012803D10224204603B0F0BD0124002614
:10388000222085F83C402C63AA62AB852E6485F823
:103890003E002968A86B48F2E15C48F22D6E48F2C0
:1038A0007557C0F6000CC0F6000EC0F600070431D4
:1038B000C0E90ACEC0E90C76FEF704FA0296286841
:1038C0000168029141680291029985F83C60C168E3
:1038D00041F48071C160416941F001014161416978
:1038E00041F040014161296B0129BCD10196016879
:1038F00000240191416801910199C16841F01001D2
:10390000C160204603B0F0BD006843F60001C4F278
:103910000101884208BF00F001BE704770470000F7
:10392000B0B582B0026805461068D368546900F0EB
:103930002F01202903F0200106D129B1284602B029
:10394000BDE8B04004F07CBE5FEA007C1EBF04F01E
:10395000010E03F4907414EB0E0455D1296B012968
:1039600005D110F0100118BF13F0100136D1010677
:1039700022D513F080011FD095F83D00212841D1B8
:10398000A868B0F5805F03D12869002800F0F680B0
:10399000286A411C296200785060E88C01380104D3
:1039A000E8842FD1D06820F08000D060D06840F04B
:1039B0004000D06002B0B0BD400623D513F04000F7
:1039C00020D0D068202120F04000D060284685F823
:1039D0003D1002B0BDE8B04000F084BA0020019074
:1039E000106801905068019001985069400613D406
:1039F000A88DE98DEB8D002B1CBF401A5FEA0041BA
:103A000040F0A48002B0B0BDC40718BF13F48073A7
:103A10002CD1430730D436E0A86B01684B689CB2C8
:103A2000002CEFD0A98D8C42ECD2EB858369202B42
:103A300017D0D16821F48071D160516921F0010162
:103A40005161516921F040015161202185F83E10FA
:103A500000212963D16821F01001D160FDF7E6FE55
:103A6000A98DE88D081A81B2284682E02B6C43F0BC
:103A700001032B64430706D5BEF1000F03D02B6C66
:103A800043F002032B64830706D5BEF1000F03D079
:103A90002B6C43F004032B64BCF1000F06D551EAF4
:103AA0000E0303D02B6C43F008032B642B6C002B0C
:103AB000A8D010F0200018BF002903D0284604F039
:103AC000BFFD2A685069296C00F0400001F0080130
:103AD00040182DD0D06820F49070D060506920F04C
:103AE00001005061286B012803D1D06820F010003C
:103AF000D060202085F83E000020286350694006F1
:103B00001ED5506920F040005061A86BC0B148F24A
:103B10006951C0F600014163FDF7ACFE00283FF497
:103B200071AFA86B416B02B0BDE8B040084700BF61
:103B30002846FFF7F3FE0020286402B0B0BD00BFA6
:103B4000284602B0BDE8B040FFF7E8BED16821F4D6
:103B50009071D160516921F001015161202185F8F6
:103B60003E1000212963D16821F0100381B228465C
:103B7000D36002B0BDE8B040FFF7C6BE286A30F897
:103B8000021B6FF35F215160286206E7002804BF23
:103B90000120704710B5044690F83D0028B9002078
:103BA00084F83C00204600F05FF8242084F83D00B3
:103BB0002068D4E90212C36823F40053C360036988
:103BC00023F440531A430261D4E904231143C26829
:103BD000194341F20C639A431143C1604169A269E0
:103BE00021F44071114343F60002C4F201029042F5
:103BF000416103D0FEF7E8FB02E000BFFEF7F8FBEF
:103C00006268192148439100B0FBF1F048F21F515E
:103C1000C5F2EB11A0FB01235A096FF0630302FB0D
:103C20000300322303EB0010A0FB0101F02303EAA1
:103C30005113206803EB0212C1F343111144816058
:103C4000016921F490410161416921F02A0141613A
:103C5000C16841F40051C16000202021206484F833
:103C60003D1084F83E1010BD2DE9F04186B040F6BD
:103C700000050446C4F20105006805F5405100271F
:103C80008842049702D006B0BDE8F08141F21806E0
:103C9000C4F2020630680DF1080840F4804030603C
:103CA0003068414600F4804001900198306840F04F
:103CB00004003060306800F00400019001984FF477
:103CC0000070029002200390032005902846FEF722
:103CD0005BF84FF48060CDE902072846414604971F
:103CE000FEF752F841F25C25A6F57C60C2F20005B1
:103CF0008021C5E900072846C5E90271C5E90477B6
:103D0000C5E90677FDF796FF002818BFFDF7B4FB5D
:103D1000252000210022A5636C62FEF7B3F925205F
:103D2000FEF7A0F906B0BDE8F08100007047000082
:103D3000704700002DE9F04381B0044690F83D0043
:103D400020280DD10F4600294FF0010000F092808D
:103D50001646002A00F08E8094F83C00012803D11A
:103D6000022001B0BDE8F083012084F83C004FF050
:103D7000000921201D46C4F8409084F83D00FEF75C
:103D80000BF9A684E684A1688046B1F5805F25D151
:103D9000206900281CBF38464F463E46074684F837
:103DA0003C90E08C00B3681C20D0002D66D12068C8
:103DB0000BE000BF36F8021B00276FF35F21416064
:103DC000E18C0139E184E18C81B30168090675D584
:103DD000002FEFD017F8011BF1E700BF002684F891
:103DE0003C90E08C0028DED120681FE0206802E0D3
:103DF0000168090609D40168090606D401680906A4
:103E00005CBF01685FEA0161F2D51FB117F8011BC1
:103E100005E000BF36F8021B00276FF35F21416009
:103E2000E18C0139E184E18C0029E4D10168490683
:103E30001CD4002D42D0691C0ED10168490615D44E
:103E4000016849065CBF01685FEA41610ED4016800
:103E50004906F2D50AE000BFFEF79EF8A0EB080184
:103E60002068A9422AD800684006F5D5202084F8A9
:103E70003D00002001B0BDE8F08300BF206800BF16
:103E80000168090608D4FEF787F8A0EB080120684E
:103E9000A942F5D912E000BF17B117F8011B04E0E1
:103EA00036F8021B00276FF35F214160E18C013976
:103EB000E184E18C0029E3D1B8E700BFC16821F4B7
:103EC000D071C160416921F001014161202084F875
:103ED0003D0084F83E00002084F83C00032001B03F
:103EE000BDE8F08370470000FEE700002DE9F04FC9
:103EF00083B040F27800C2F20000006807F014FAC4
:103F000040F2D00AC2F2000A9AF80110044621B128
:103F100000F07EFF00208AF801009AF800000228D5
:103F200000F08080012800F0DF80002840F05681FA
:103F3000BAF8066040F20410C2F2000040F2000835
:103F400050F82600C4F28C28414607F09DFA00255F
:103F5000C4F2F025294607F029F807F0E5F940F208
:103F6000A46BC2F2000B5BF826100026CCF28C2664
:103F700007460846314607F087FA294607F016F843
:103F800007F0D2F940F20009C4F220190146384680
:103F90004A46002301F0CAFA40F20410C2F20000BF
:103FA00050F82400414607F06FFA294606F0FEFF5C
:103FB00007F0BAF95BF8241007460846314607F0C7
:103FC00063FA294606F0F2FF07F0AEF901463846DB
:103FD0004A464FF6FF7301F0A9FA48F6396104F139
:103FE0002400C3F6E301A0FB01010520A0EB1110A2
:103FF000C5B270206821802288230026009602F036
:1040000071F82020042D88BF00250127CDE900602C
:10401000702068212A464FF6FF73029701F054FB87
:104020002CE100BFBAF8066040F20410C2F20000B2
:1040300040F2000850F82600C4F2A028414607F0DC
:1040400023FA0025C4F2F025294606F0AFFF07F059
:104050006BF940F2A46BC2F2000B5BF8261000274C
:10406000CCF2A02706460846394607F00DFA294645
:1040700006F09CFF07F058F90346002040F20009C3
:10408000C4F2A0090190782078213246CDF8009042
:1040900001F0C4FB40F20410C2F2000050F824000A
:1040A000414607F0F1F9294606F080FF07F03CF998
:1040B0005BF8241006460846394607F0E5F929461C
:1040C00006F074FF07F030F903464FF6FF777820CB
:1040D00078213246CDF80090019701F09FFBAAF8B5
:1040E000064003B0BDE8F08FBAF8066040F2041055
:1040F000C2F2000040F2000850F82600C4F28C28FA
:10410000414607F0C1F90025C4F2F025294606F022
:104110004DFF07F009F940F2A46BC2F2000B5BF807
:1041200026100026CCF28C2607460846314607F0BA
:10413000ABF9294606F03AFF07F0F6F840F200091D
:10414000C4F22019014638464A46002301F0EEF930
:1041500040F20410C2F2000050F82400414607F07B
:1041600093F9294606F022FF07F0DEF85BF82410E9
:1041700007460846314607F087F9294606F016FF3C
:1041800007F0D2F8014638464A464FF6FF7301F071
:10419000CDF96FF0270000EB540007F0E1F800259F
:1041A000C4F2C82500212A4604F04AF901462846EF
:1041B00007F070FA07F0B8F80546682068219822E1
:1041C00088230026009601F08DFF20200127CDE9ED
:1041D0000060682068212A4645E000BF03380128B6
:1041E0004CD8BAF80600B422411DB42838BFB42117
:1041F00038BF421F08B211B2002200230027CDE9C8
:104200000010C4F28C22C4F2C003782078214FF64B
:10421000FF75B426029701F04BFD20B20022B32CAB
:104220008CBFCDE90060CDE90006C4F28C22782075
:1042300078214FF08143029501F03AFDC4F1B405B5
:1042400000266820682198228823B42C88BF04F1B6
:104250004C05009601F046FF2020EAB20127CDE987
:104260000060682068214FF6FF73029701F02CFA76
:10427000AAF8064003B0BDE8F08F00BFAAF80640D8
:1042800003B0BDE8F08F00002DE9F04F83B040F29D
:104290000410C2F20000A0F1100B40F2A460C2F2C0
:1042A000000048F2000848F26E6942F2F91AA0F1E3
:1042B00010060325C4F26608CFF21B09C4F2090AEE
:1042C000E81E80B206F0A6FA0022434606F098F8EF
:1042D0004A46534606F02AFB07460C4605F084FC86
:1042E00005F0A0FF4BF8100F3846214605F034FECC
:1042F00005F098FF46F8100FA81E80B206F08AFA63
:104300000022434606F07CF84A46534606F00EFB70
:1043100004460F4605F068FC05F084FFCBF8040066
:104320002046394605F018FE05F07CFF7060681ED7
:1043300080B206F06FFA0022434606F061F84A4662
:10434000534606F0F3FA04460F4605F04DFC05F01F
:1043500069FFCBF808002046394605F0FDFD05F061
:1043600061FFB060A8B206F055FA0022434606F09D
:1043700047F84A46534606F0D9FA04460F4605F078
:1043800033FC05F04FFFCBF80C002046394605F012
:10439000E3FD05F047FF043540F26B118D42F060FC
:1043A0008ED140F64440C2F200004FF4B461FBF7F6
:1043B000B4FF41F2983440F2D005C2F20004C2F2D8
:1043C0000005002620460021EE80FFF7BDF92046BB
:1043D0000421FFF7B9F920460821FFF7B5F900F0ED
:1043E0008FFA41F25030C2F20000FEF70BFE0020BF
:1043F00000F080FB41F2E03005F11401C2F2000050
:104400001E22FFF721FA01F0C7FE00F001FD002790
:104410004FF6FF74C4F220170A200A21E322E32397
:104420000097019401F0FAF90A20E321E3220A231C
:104430000097019401F0F2F900F0EAFC2E8003B03D
:10444000BDE8F08F2DE9F04140F2D005C2F2000541
:10445000A87840F28406C2F2000628B1AC68306841
:10446000214606F051FE38B1E87858B1EC68306862
:10447000214606F042FE28B92046BDE8F04100F092
:1044800039BB00BF2879002840D02C690021204684
:1044900006F03AFED0BB3668ED683046294607F094
:1044A000F9F8214606F04AFE06F03EFF804606F087
:1044B00057FF214606F0E8FF294606F077FD07463C
:1044C0003046394607F0E6F820F00040214606F075
:1044D00035FE4FF07C5106F017FE90B93046294664
:1044E00006F012FE002814BFA8F1010008F1010037
:1044F00006F036FF214606F0C7FF294606F056FDB6
:1045000007463846BDE8F04100F0F4BA40F27000CA
:10451000C2F2000000210170BDE8F08140F2D0013C
:10452000C2F20001087D91F800C000F00103CB70D9
:1045300000F0020300F004000871D1F81D008B7038
:10454000D1F81530D1F81920886091F82100CA609F
:1045500084450B611CBF01224A7001F8140B41F223
:10456000E030C2F200001E22FFF76EB9B0B584B091
:1045700041F2E81042F20041C2F20000C4F201012F
:10458000002401254FF4602205730475C261C0E95F
:10459000001484600561FDF73FF8002818BFFCF7A0
:1045A0006BFF0420039041F2E810C2F2000001A961
:1045B000CDE90145FCF766FF002818BFFCF75CFF5A
:1045C00004B0B0BD80B582B041F21400C4F2020064
:1045D0000168002241F0010101600068002100F043
:1045E0000100019001980B20FDF74CFD0B20FDF719
:1045F00039FD0F2000210022FDF744FD0F2002B0FD
:10460000BDE88040FDF72EBD2DE9F04784B041F2B2
:104610001800C4F20200016840F6000A41F02001CF
:1046200001600168C4F2010A01F0200100910099C3
:1046300001680AF5006541F010010160016800227F
:1046400001F0100100910099016840F20F2641F03D
:104650000401016001684FF0000901F004010091BC
:104660000099016841F008010160006840F20F21E3
:1046700000F00800009000982846FDF787FC50469F
:10468000102100224FF01008FDF780FC00966E46C6
:104690000127022428463146CDE901790394FDF72C
:1046A00073FB50463146CDE90087CDE90294FDF712
:1046B0006BFB04B0BDE8F08780B541F2A02043F267
:1046C0000001C2F20000C4F201014FF48272002323
:1046D0004FF4007C80E80E000A21C0E90333C0E9F2
:1046E000053CC361C0E90833C0E90A31FEF76EF842
:1046F000002808BF80BDBDE88040FCF7BDBE0000BB
:1047000010B541F2F82043F60001C2F20000C4F2F5
:1047100000014FF4827200234FF4006C4FF0010E41
:104720004FF4007480E80E100A21C0E9043EC0E98D
:104730000643C0E90833C0E90A31FEF747F800280C
:1047400008BF10BDBDE81040FCF796BE80B586B02E
:1047500041F250300021C2F200004FF08042482365
:1047600040F2E73C0591CDE90311CDE90011C0E924
:104770000023C0E9021C01618161FEF78FFB002864
:1047800018BFFCF779FE4FF48050029041F2503090
:10479000C2F2000002A9FEF779FC002818BFFCF75E
:1047A0006BFE41F25030C2F200006946FEF72CFB6E
:1047B000002818BFFCF760FE06B080BDB0B590B011
:1047C00040F2004541F29830C4F200050021C2F2E7
:1047D000000040F2CF72CDE90811CDE90611CDE914
:1047E0000411C0E90051C0E9021201618161FEF7C4
:1047F000FBFE002818BFFCF73FFE41F29830C2F2E2
:10480000000008A9FEF700FB002818BFFCF734FEE3
:10481000602001900020CDE90200059041F298301F
:10482000C2F2000001A90022FEF7B6FD002818BF61
:10483000FCF722FE41F29830C2F2000001A90422E6
:10484000FEF7AAFD002818BFFCF716FE41F29834C7
:10485000C2F2000401A920460822FEF79DFD0028AF
:1048600018BFFCF709FE20680021A8420E9101D074
:1048700010B0B0BD41F21800C4F20200016841F06E
:104880001001016000680CA900F010000B900B985B
:104890004FF4E0700C9002200D900F9041F2000058
:1048A000C4F20100FDF770FA0420C4F201000168AF
:1048B00041F0E06141F44061016010B0B0BD000022
:1048C00080B541F2E03043F60001C2F20000C4F2CC
:1048D000010100234FF00C0C4FF4E13280E80E0090
:1048E000C0E90333C0E905C3C361FFF74FF90028EE
:1048F00008BF80BDBDE88040FCF7BEBDFEE70000FC
:10490000F0B581B041F20000C4F201004FF4007133
:104910000122FDF73BFB40F27006C2F2000606F1F1
:1049200028004FF07E5100220023002703F072FD83
:104930004CF6CD4106F14400C3F6CC5100220023D1
:1049400003F068FD00F074F900240020C4F28734FD
:10495000C4F2400000212246376100F0D5F840F64D
:10496000B830FDF7FDF900F063F9D6E901500021F8
:10497000C4F2301106F088FD294606F08BFE0022B5
:10498000C4F2B432002100F0E3F97060002000218D
:10499000224600F0B9F8377001B0F0BDF0B581B033
:1049A0000026C4F2201614460D460021324603F0BC
:1049B00047FD074628460021324603F041FD0546E3
:1049C00020460021324603F03BFD49F69A16C4F218
:1049D000491604463846314606F0B0FB00214FF038
:1049E0007E5203F02DFD40F27007C2F20007B8615D
:1049F0002846314606F0A2FB00214FF07E5203F01C
:104A00001FFDF8612046314606F098FB00214FF06B
:104A10007E5203F015FD4EF2000604463862D7E9D7
:104A20000605C4F2F946314606F02EFD06F07CFC80
:104A300041F29831C2F200010F683146786328468E
:104A400006F022FD06F070FCB8632046314606F001
:104A50001BFD06F069FCF86301B0F0BDB0B540F293
:104A60007005C2F200052878012813D0032817D159
:104A7000686A0021CBF680714FF07E5203F0E0FCB3
:104A80000021C4F2201106F0FFFC4FF07C5106F02B
:104A9000FBFC08E0696905F1280003F091FC02E0E5
:104AA000022821D0002000210022CCF2A001C4F273
:104AB000A00203F0C5FCD5E9014200210546C4F27D
:104AC0003011104606F0E0FC214606F0E3FD00221E
:104AD000C4F2B432002100F03BF90246284600211E
:104AE000BDE8B04000F010B8296905F1440003F0BA
:104AF00067FC0000014640F27000C2F20000012293
:104B000000F8282B03F08EBC2DE9F04F81B013463E
:104B1000002288460546C4F2B4321846002100F04F
:104B200017F90021C4F2343106F008FB40F6DB71BE
:104B3000C4F2490106F0A8FC074605F0A3F80646B2
:104B4000384605F059FA294606F09EFC04464046D0
:104B5000314606F099FC214606F09CFD0646384693
:104B600005F04AFA0446384605F08CF8294606F066
:104B70008BFC05464046214606F086FC294606F099
:104B800015FA49F69A110446C4F2C901304606F0F6
:104B90000DFA804630464FF03F4106F075FC06F0B6
:104BA000D9F9054620460E4606F0D4F944F6AA493E
:104BB000CEF658094BF27A63C3F6EB734A460746C2
:104BC0000C4605F0B3FE2A46334605F05DFB43F282
:104BD000333AC4F2190A4FF08042534605F054FBB1
:104BE00005F020FB4BF27A638346CBF6EB73384635
:104BF00021464A4605F09AFE2A46334605F044FB14
:104C00004FF08042534605F03FFB05F00BFB024698
:104C10004046594601B0BDE8F04FFFF7BFBE000067
:104C200080B500F005F8BDE88040FFF717BF000031
:104C30002DE9F04381B040F60004C4F2010420469F
:104C400010210022FDF7A2F940F27008C2F200081C
:104C500041F2F8264EF61A7708F10205C2F2000674
:104C6000C0F600074FF0FF39304639462A46012387
:104C7000CDF80090FDF75CFF204610210122FDF7E2
:104C800085F9204610210022FDF780F9304639468B
:104C90002A460123CDF80090FDF74AFF2046102157
:104CA0000122FDF773F9B8F802006FF39F3006F0A8
:104CB0006FFB0021C4F2B43106F0E6FB4FF0625105
:104CC00006F0E2FBD8F80810044606F0E3FC0026E4
:104CD000CCF234360022C4F23432314600F038F8D7
:104CE0000021C4F2C82106F0CFFBD8F80810C8F89C
:104CF0001000204606F0CEFC3146054606F0FDF9D0
:104D000020B9D8F80C000130C8F80C000021C4F21A
:104D10003431284606F0F8F90146D8F80C0000298D
:104D200004BF0138C8F80C0006F01AFB0021C4F2D9
:104D3000B43106F0A9FB214606F038F9C8F8140092
:104D4000C8F8084001B0BDE8F0830000FEE70000AD
:104D5000F0B581B00646104617460C4606F09AFCA0
:104D600005463046394606F0D6F920BB304629467E
:104D700006F090FC3946064606F0CDF9D8B9304623
:104D8000294606F087FC3946064606F0C4F990B974
:104D90003046294606F07EFC3946064606F0BBF949
:104DA00048B93046294606F075FC0646394606F0F5
:104DB000B2F90028DAD03046214606F09EF920BB31
:104DC0002846314606F0F2F82146064606F095F9E7
:104DD000D8B92846314606F0E9F82146064606F0DD
:104DE0008CF990B92846314606F0E0F8214606468F
:104DF00006F083F948B92846314606F0D7F821462F
:104E0000064606F088F90028DAD1304601B0F0BD38
:104E10002DE9F04381B041F2000400200021EF228F
:104E2000EF23C4F201044FF0000900F02BF841F227
:104E3000A025C2F200050DF102064FF0000800BFE8
:104E4000002700BF204602210022ADF80290FDF7A6
:104E50009DF82846314602224FF0FF33FDF77CFDD6
:104E6000204602210122FDF791F8EF2F07F10107FB
:104E7000E8D3B8F1EF0F08F10108E1D301B0BDE8C4
:104E8000F08300002DE9F04383B041F200040746AF
:104E90002A20C4F20104164689468DF801002046F6
:104EA000042100229846FDF771F8204602210022D5
:104EB000FDF76CF841F2A025C2F200050DF10101E9
:104EC000284601224FF0FF33FDF746FD2046022120
:104ED0000122FDF75BF8204604210122FDF756F878
:104EE00078BAADF80200204602210022FDF74EF804
:104EF0000DF10201284602224FF0FF33FDF72CFD91
:104F0000204602210122FDF741F870BAADF80400F5
:104F1000204602210022FDF739F801A92846022285
:104F20004FF0FF33FDF718FD204602210122FDF767
:104F30002DF82B208DF80600204604210022FDF7D5
:104F400025F8204602210022FDF720F80DF1060188
:104F5000284601224FF0FF33FDF7FEFC20460221D8
:104F60000122FDF713F8204604210122FDF70EF877
:104F700099FA99F0ADF80700204602210022FDF7CA
:104F800005F80DF10701284602224FF0FF33FDF727
:104F9000E3FC204602210122FCF7F8FF98FA98F082
:104FA000ADF80900204602210022FCF7EFFF0DF1C9
:104FB0000901284602224FF0FF33FDF7CDFC2046C1
:104FC00002210122FCF7E2FF2C208DF80B00204685
:104FD00004210022FCF7DAFF204602210022FCF720
:104FE000D5FF0DF10B01284601224FF0FF33FDF7ED
:104FF000B3FC204602210122FCF7C8FF2046042111
:105000000122FCF7C3FF03B0BDE8F0832DE9F04FA8
:105010008BB0159C824667082009089315468B467D
:1050200001217A0718BF01EB141000FB04F60AEB0C
:1050300054000BEB04010138013982B28BB25046A7
:105040005946FFF71FFF002E069600F0AD80A4F131
:105050000C00C1B2800140EA9100C1B2052900F202
:10506000A3800120884010F02B0F00F09D80089A4B
:1050700005911699120AA5F12000079200294DF218
:105080005A724BF626354BF69A714CF28A53C0B2DF
:10509000C0F60002C0F60005C0F60001C0F600032D
:1050A00000F08680149E01EB00114FEA162A00EBF7
:1050B0004006039603EB061341F2A02601910599E1
:1050C0004FF00009C2F2000602EB80104FF0000B17
:1050D0000293009008E000BF05994FF0000B06987E
:1050E00009F1010981455FD003290BD001290BD0BB
:1050F00061B94BF626300399C0F6000000EB810041
:1051000005E000BF029802E0019800E000984844E2
:1051100090F800800BF108000025049028FA05F0B3
:10512000C00713D0079841F200048DF826000898B4
:10513000C4F201048DF82700204602210022FCF76A
:1051400025FF30460DF1260110E000BF149841F212
:105150000004C4F201048DF8290020460221002237
:105160008DF828A0FCF712FF30460AA902224FF062
:10517000FF33FDF7F1FB204602210122FCF706FF79
:105180000BF1010B5FFA8BF0B0FBF7F101FB17009D
:105190000028A1D00135082DC0D1DDE904B1069861
:1051A00009F1010981459FD10BB0BDE8F08F00BF27
:1051B00002EB801800EB400201EB00100390059811
:1051C0000026029205EB82025546049260B1012846
:1051D0000CD0032840F0A2814CF28A500299C0F60C
:1051E000000000EB011002E0049800E00398304456
:1051F00090F800905FEAC97029D0A8B21FFA8BF12D
:1052000002460B46FFF73EFE07985C468DF82A00E3
:105210000898AB4641F20005C4F201058DF82B0059
:10522000284602210022FCF7B1FE41F2A020C2F282
:1052300000000DF12A0102224FF0FF33FDF78CFB35
:105240002846022101225D46A346FCF79FFE681C0A
:1052500080B2A0EB0A01B94200F052815FEA897185
:1052600026D51FFA8BF102460B46FFF70BFE079877
:105270002C468DF82A00089841F20005C4F2010579
:105280008DF82B00284602210022FCF77FFE41F218
:10529000A020C2F200000DF12A0102224FF0FF33DC
:1052A000FDF75AFB2846022101222546FCF76EFE37
:1052B000A81C80B2A0EB0A01B94200F021815FEA8C
:1052C000497126D51FFA8BF102460B46FFF7DAFD2E
:1052D00007982C468DF82A00089841F20005C4F280
:1052E00001058DF82B00284602210022FCF74EFE16
:1052F00041F2A020C2F200000DF12A0102224FF07B
:10530000FF33FDF729FB2846022101222546FCF741
:105310003DFEE81C80B2A0EB0A01B94200F0F0802B
:105320005FEA097126D51FFA8BF102460B46FFF79B
:10533000A9FD07982C468DF82A00089841F200052F
:10534000C4F201058DF82B00284602210022FCF74B
:105350001DFE41F2A020C2F200000DF12A0102223E
:105360004FF0FF33FDF7F8FA2846022101222546C7
:10537000FCF70CFE281D80B2A0EB0A01B94200F038
:10538000BF805FEAC96126D51FFA8BF102460B4642
:10539000FFF778FD07982C468DF82A00089841F20F
:1053A0000005C4F201058DF82B00284602210022D9
:1053B000FCF7ECFD41F2A020C2F200000DF12A0141
:1053C00002224FF0FF33FDF7C7FA284602210122DF
:1053D0002546FCF7DBFD681D80B2A0EB0A01B9424F
:1053E00000F08E805FEA896126D51FFA8BF10246B4
:1053F0000B46FFF747FD07982C468DF82A000898C2
:1054000041F20005C4F201058DF82B002846022167
:105410000022FCF7BBFD41F2A020C2F200000DF11A
:105420002A0102224FF0FF33FDF796FA28460221A7
:1054300001222546FCF7AAFDA81D80B2A0EB0A01B7
:10544000B9425DD05FEA496126D51FFA8BF1024669
:105450000B46FFF717FD07982C468DF82A00089891
:1054600041F20005C4F201058DF82B002846022107
:105470000022FCF78BFD41F2A020C2F200000DF1EA
:105480002A0102224FF0FF33FDF766FA2846022177
:1054900001222546FCF77AFDE81D80B2A0EB0A0147
:1054A000B9422DD05FEA096124D51FFA8BF102467B
:1054B0000B46FFF7E7FC079841F200048DF82A003D
:1054C0000898C4F201048DF82B0020460221002226
:1054D000FCF75CFD41F2A020C2F200000DF12A01B0
:1054E00002224FF0FF33FDF737FA20460221012256
:1054F000FCF74CFD0835A8B2A0EB0A00B84202D177
:105500000BF1010B554606980136013806900598B7
:1055100008F101087FF45AAE46E600BF404690F815
:1055200000905FEAC9707FF468AE90E62DE9F04F15
:1055300087B0049315460C46059005F029FF2946CF
:10554000064606F0A7F805F005FD40F2000AC3F68E
:10555000E07A0022534604F097FE05F0E7F8804613
:105560003046294605F022FD05F0F4FC00225346A2
:1055700004F08AFE05F0DAF881462046029405F030
:1055800007FF2946044606F085F805F0E3FC0022F3
:10559000534604F079FE05F0C9F80746204629462F
:1055A00005F004FD05F0D6FC0022534604F06CFE25
:1055B00005F0BCF8EF24B9F1EF0FA8BFA146EF2822
:1055C000B8BF04462846294628EAE87627EAE7785D
:1055D00005F05AFF05F0BEFC00225346274604F0B2
:1055E00053FE05F0D3F805460196B0B21FFA88F6CF
:1055F0001FFA89F2A3B231460390FFF743FCA6429B
:1056000002DD07B0BDE8F08F03984146484511DD43
:10561000481C80B2B842F4DC881C80B2B842F0DC8E
:10562000C81C80B2B842ECDC043188B2B842EFDD6D
:10563000E7E700BF049841F2000441F2A02A4FEAD4
:105640001028C4F20104C2F2000A009705E000BF6E
:105650000131009F8EB2BE42D3DC02988B46301AD5
:1056600000FB00F70398019E1AE000BF0020ADF890
:105670001A00204602210022FCF788FC50460DF15A
:105680001A0102224FF0FF33FDF766F9204602218E
:105690000122FCF77BFC0136B0B259464845D7DC05
:1056A0000599401A00FB0070A842DFD80498022137
:1056B0008DF81900204600228DF81880FCF766FC52
:1056C000504606A9DDE700002DE9F04F87B0002A1B
:1056D0006ED08B4646F2676148F21F5C44F6D35E9B
:1056E00048F6AD3881469A460020C6F266610DF153
:1056F0001203C5F2EB1CC1F2620EC6F6DB0800BF56
:1057000082FB0145AC1004EBD57404EB8405A2EBDD
:10571000450502F10907303540F00106132FC7B2E5
:10572000DD554DD384FB0157BD0805EBD77505EB5F
:105730008505A4EB450505F13007F6B2093440F0C4
:1057400002059F55132C82FB0C643FD3661106EBB8
:10575000D47686FB0147BC0804EBD77404EB8404C1
:10576000A6EB440404F13007EDB25F5506F10905DC
:1057700040F00304132D82FB0E6549D3AE1106EBF6
:10578000D57585FB016782FB0826BA0802EBD77244
:1057900002EB8202A5EB42023032E4B21A55321318
:1057A00005F109040430122C02EBD672A8D80EE0E1
:1057B000064630208DF8120001279A468B4609E0F4
:1057C0003046C7B24E462FB91EE000BF2846C7B2CA
:1057D0004E46CFB111984FF0000944080DF1120068
:1057E000A0F10108109918F807200091119909EB10
:1057F0000600129D019180B2594653460295FFF76B
:1058000005FC013FA144EDD107B0BDE8F08F00BF1A
:105810002046C7B2002F4E46DCD1F5E72DE9F04F08
:1058200093B01546121A5F1ADDF8709012B23FB2AB
:10583000BA42C2F10006A8BFB74203DA974213DBAF
:10584000B74211DCB2F1FF3F06DD01220092804633
:105850000A46AB461D4616E001220092A8461A46AB
:1058600083460D460FE000BF0022B7F1FF3F05DD84
:105870000092884602469B4605E000BF009298468B
:105880002A468B460546A81A00B210950C92ABEB3F
:10589000080505F065FD044628B205F061FD0146E6
:1058A000204605F04BFC0146054605F0EDFD4FF0A6
:1058B0007E5105F07BFB05F04DFB04460E4604F0DF
:1058C0005FFC0B4600210246C3F6F0710020002762
:1058D000119704F095FD04F0A5FC0B90284608955F
:1058E00005F038FB05460F462046314604F048FCDB
:1058F00002460B462846394604F082FD04F092FC2D
:105900000546484605F026FB0023C3F6E073002257
:1059100005F00CF8814628468A4605F01BFB024636
:105920000B464846514605F001F804F07BFC07465B
:10593000404605F02DFD3946054605F0ABFE0E90BC
:105940002846394605F032FB0D90584605F020FDFB
:105950003946054605F09EFE07902846394605F073
:1059600025FB06904046CDF83C8004F053FF4A46A4
:10597000534605F001FA0022002307465C468B4699
:1059800005F098FB30B93846594604F083F804F026
:10599000CDFE1190204604F03DFF02460B464846DE
:1059A000514604F071FC4EF20003C4F26D03002274
:1059B00007460D4605F077FB40B93846294604F006
:1059C0001FFA04F0B3FE834602E000BF4FF0EF0B76
:1059D00009940C9C119EDDE90F780B9D204605F083
:1059E000D7FC0590284605F0B5FA02460B46484616
:1059F000514604F005FDCDE90310404604F00AFFCE
:105A0000CDE901101C98014605F03EFD05F0A2FA13
:105A10000023C3F6D073002204F088FFCDE91010F4
:105A2000204604F0F7FEB3450C900B9102D213B060
:105A3000BDE8F08F1D9841F2000A4FEA1028C4F229
:105A4000010A3546CDF828B006E000BF01360A98B5
:105A5000B5B20F9F8542EAD81FFA86FB584605F07B
:105A600097FC81460D98494605F04EFB80B9E81B2E
:105A7000404304F0B8FE02460B46DDE9101005F085
:105A80007BF904F07DFB02460B46DDE90B1024E0B8
:105A90000698494605F031FB90B90998281A404309
:105AA00004F0A1FE02460B46DDE9101005F064F992
:105AB00004F066FB02460B46DDE901100DE000BF75
:105AC000E81B05F04DFC089905F0DEFC059905F092
:105AD0006DFA05F03FFADDE9033205F04DF904F007
