:020000040800F2
:10000000B8190020CD010008A933000841260008D6
:10001000C92F0008F5020008C15F000800000000B9
:10002000000000000000000000000000A95F0008C0
:100030000503000800000000955E0008AD5F0008A1
:10004000E7010008E7010008E7010008E7010008F0
:10005000E7010008E7010008E7010008E7010008E0
:10006000E7010008E7010008E7010008F9020008BD
:10007000E7010008E7010008E7010008E7010008C0
:10008000E7010008E7010008E7010008E7010008B0
:10009000E7010008E7010008E7010008E7010008A0
:1000A000E7010008E7010008E7010008E701000890
:1000B000B55F0008E7010008E7010008E701000854
:1000C000E7010008E7010008E7010008E701000870
:1000D000E7010008E7010008E7010008E701000860
:1000E000E7010008E7010008E7010008E701000850
:1000F000E7010008E7010008E7010008E701000840
:10010000E7010008E7010008E7010008E70100082F
:10011000E7010008E7010008E7010008E70100081F
:10012000E7010008E7010008E7010008E70100080F
:1001300000F002F800F03AF80AA090E8000C8244BF
:100140008344AAF10107DA4501D100F02FF8AFF29C
:10015000090EBAE80F0013F0010F18BFFB1A43F0A5
:10016000010318471886000038860000103A24BFA3
:1001700078C878C1FAD8520724BF30C830C144BF0C
:1001800004680C607047000000230024002500264E
:10019000103A28BF78C1FBD8520728BF30C148BFEA
:1001A0000B6070471FB51FBD10B510BD00F06CF897
:1001B0001146FFF7F7FF05F005FF00F08AF803B4DA
:1001C000FFF7F2FF03BC00F08DF8000009488047FC
:1001D00009480047FEE7FEE7FEE7FEE7FEE7FEE729
:1001E000FEE7FEE7FEE7FEE704480549054A064B41
:1001F00070470000B15F000831010008B81300200B
:10020000B8190020B8150020B81500204FF00002E2
:1002100000B5134694469646203922BFA0E80C50FC
:10022000A0E80C50B1F12001BFF4F7AF090728BFD7
:10023000A0E80C5048BF0CC05DF804EB890028BF53
:1002400040F8042B08BF704748BF20F8022B11F07C
:10025000804F18BF00F8012B7047704770477047F8
:1002600010B500F009F8006810BD10B5044600F0A4
:1002700003F8046010BD0000004870471000002023
:1002800000487047100000207546FFF7F9FFAE46A2
:1002900005006946534620F00700854618B020B592
:1002A000FFF7A2FFBDE820404FF000064FF0000727
:1002B0004FF000084FF0000BAC46ACE8C009ACE8CA
:1002C000C009ACE8C009ACE8C00921F007018D46BF
:1002D000704710B50446AFF300802046BDE81040DB
:1002E000FFF76DBF01491820ABBEFEE726000200F4
:1002F00070470000FEE7000041F2E810C2F2000083
:1003000000F0DCB970470000EFF3108072B600BF58
:10031000FEE7000010B581B00022009290F8242082
:10032000012A03D10221084601B010BD4B68012209
:10033000062B80F8242015D8026803EB8303A3F171
:10034000050E1F23D2F834C003FA0EF40B682CEA12
:10035000040C03FA0EF444EA0C045463092B17D975
:1003600037E000BF02680C2B20D803EB8303A3F116
:1003700023041F23D2F830C003FA04FE0B682CEAD2
:100380000E0C03FA04F444EA0C041463092B20D87D
:10039000D2F810C003EB4303072489689C402CEA81
:1003A0000404994021431161002136E003EB8303EB
:1003B000A3F141041F23D2F82CC003FA04FE0B68FA
:1003C0002CEA0E0C03FA04F444EA0C04D462092B60
:1003D000DED903EB4304D2F80CC0A4F11E0E0724AF
:1003E000896804FA0EF42CEA040401FA0EF12143A0
:1003F00023F00104102CD1600ED142F20841C4F266
:100400000101A1F10804A2420ED0816A41F020014D
:100410008162012101E000BF0021002280F8242038
:10042000084601B010BD00BF0A68120230D40A6845
:10043000102B42F400020A602CD140F20801C2F2F3
:10044000000109684DF68362C4F21B32A1FB02125F
:10045000910C01EB8101490000910099E1B10099F3
:10046000013900910099C9B10099013900910099B1
:10047000B1B1009901390091009999B10099013900
:100480000091009900294FF00001E8D1C5E700BFB5
:100490000021C2E70021C0E70021BEE70021BCE740
:1004A0000021BAE70021B8E7B0B5002800F0B2801B
:1004B0000446806A20B121688868C0070BD114E027
:1004C0000020E06284F82400204600F0A5F82168AE
:1004D0008868C00709D0886820F00100886000F0B3
:1004E0009DFB21688A68D20730D1A06AC00644D437
:1004F000A06A41F2021290430230A062E36981F0E7
:10050000804080F49E3083F44022104308BF4FF4B3
:100510000023D4E9010243EA000C531EB3FA83F32B
:100520005D091346B2F5807F18BF2B02207D257B25
:1005300001284CEA450030D135B3A56A45F02005C5
:10054000A562E56A45F00105E56226E0054602E0A0
:100550008868C007C9D000F061FB401B21680328F0
:10056000F6D38868C007F3D0A06A40F01000A062FC
:10057000E06A40F00100E062A06AA06A40F010006A
:10058000A0620120B0BD00BFD4F818C04EF600052F
:10059000CFF6FF7505EB4C352B434D68B2F5807FE8
:1005A00025F4694543EA05034B608B684FF2FD75FE
:1005B000CFF6E17503EA050343EA00038B6001D03F
:1005C000012A07D122690023CFF6F07303EB025210
:1005D00001E000BF0022CB6A23F470031A43CA6211
:1005E000896840F6FE62CFF61F721140814207D142
:1005F0000020E062A16A012262F30101A162B0BDA4
:10060000A06A40F0100020F00200A062E06A40F012
:100610000100E0620120B0BD70B586B0044640F62E
:100620000000C4F20100216800F5E052002691426A
:100630000596049602D006B070BD00BF41F21801C5
:10064000C4F202010A6842F400720A600A6802F405
:1006500000720192019A0A6842F004020A60096875
:1006600001F00401019101990121029103210391FB
:1006700002A900F0CBF941F2E8150820C2F200050A
:10068000C4F202004FF48072C5E9000605F11000C3
:1006900080214FF480634FF0200C80E80C10284636
:1006A000C5E90261EE6100F055F9002818BFFFF7B7
:1006B0002BFE25626C6206B070BD000010B5D0E95B
:1006C0000FE3D0F800C0DEF80020DCF80010DA40BC
:1006D00054072DD511F004042AD0DCF80010890647
:1006E00005D4DCF8001021F00401CCF8001004223D
:1006F000C4F2020202F17C018C454DD940F208415E
:10070000C4F202018C4500F0AF8040F21C41C4F2FB
:1007100002018C4500F0AC8040F23041C4F202018D
:100720008C4540F0A9804FF48061C2F80014F7E0D6
:10073000940747D511F0020444D0DCF80010890674
:1007400008D4DCF8001021F00A01CCF800100121D7
:1007500080F821100422C4F2020202F17C018C45CF
:100760004CD940F20841C4F202018C4500F0B4803B
:1007700040F21C41C4F202018C4500F0B18040F20D
:100780003041C4F202018C4540F0AE804FF400715C
:10079000C2F80014D6E000BF4321C4F202018C4528
:1007A00042DD6B21C4F202018C454FDC4421C4F2CE
:1007B00002018C4500F0A4805821C4F202018C454E
:1007C00066E000BF120740F1C38011F0080108BFC6
:1007D00010BDDCF8001021F00E01CCF80010012152
:1007E00001FA03F2CEF804208163016B4FF48072AA
:1007F0000029028440F09680AAE000BF4321C4F2A1
:1008000002018C4548DD6B21C4F202018C4555DCA8
:100810004421C4F202018C4500F088805821C4F2C2
:1008200002018C4576E000BF0821C4F202018C452C
:100830006AD01C21C4F202018C456FD03021C4F271
:1008400002018C4524D14FF4806168E06C21C4F230
:1008500002018C455AD08021C4F202018C4517D187
:100860004FF080615BE000BF0421C2F8001457E044
:100870004021C2F8001453E002F588634FF4802150
:100880009C4508BF4FF48041C2F8001448E000BF07
:100890004FF4802143E000BF0821C4F202018C45DF
:1008A00048D01C21C4F202018C4549D03021C4F249
:1008B00002018C452ED14FF4007142E06C21C4F24C
:1008C00002018C4538D08021C4F202018C4521D12F
:1008D0004FF0007135E000BF0221C2F8001431E092
:1008E0002021C2F800142DE002F588634FF4003196
:1008F0009C4508BF4FF40051C2F8001422E000BF2D
:100900004FF480410BE000BF042108E04FF4800168
:1009100005E000BF4FF4003113E000BF402111603B
:10092000C16AA9B1BDE81040084700BF4FF40051AB
:1009300007E000BF022104E04FF4001101E000BF16
:1009400020211160816A0022002980F82020E9D14D
:1009500010BD0000002804BF012070472DE9F041C0
:1009600040F2000CC4F2020C01684FF6F8320CF5AC
:100970008163CBF6FD72994238BF02F580624CF676
:10098000CD430A44CCF6CC43A2FB03236FF003050E
:100990000CF5806405EA9303D0E9012ED0F80C80B1
:1009A0003CBF0024C4F20204C0E90F430B6843F6C5
:1009B000F075AB431A43D0E9045442EA0E0242EA0E
:1009C0000802D0E906672A43224332433A430A60C9
:1009D00000214FF4807281630284BDE8F041084633
:1009E00070470000B0B5044600F018F9054640F223
:1009F0000000C2F200000078611C18BF044400BF70
:100A000000F00CF9401BA042FAD3B0BD2DE9F04F25
:100A100083B041F60043C4F201030E6806229842F7
:100A2000019008BF0522002E009200F0ED80019891
:100A300040F20C45A0F18043A3F584334FEAB3277D
:100A400040F200404FF6FF73C4F20105C4F201000A
:100A5000009A4FF0000E4FF0010CC1F210034FF05E
:100A6000000A4FF0000B4FF00F08052F38BF3A4631
:100A7000009208E00E680AF1010A36FA0AF20EF155
:100A8000040E00F0C1800CFA0AF916EA090FF1D041
:100A90004E689E4212DC122E56D8DFE806F0350B67
:100AA0004549555555555555555555555555554D1A
:100AB000510000BFD1F80CB046E000BF4FF6FF7206
:100AC000C1F2210296420FDC0022C1F211029642CD
:100AD0001AD00022C1F21202964215D00022C1F2B1
:100AE0002102964210D02FE00022C1F2220296424B
:100AF0000AD00022C1F23102964205D00022C1F292
:100B00003202964220D100BF8E684EB1012E019A6A
:100B100014BFC2F81490C2F810904FF0080B13E005
:100B20004FF0040B10E000BFCF6807F1080B0BE09B
:100B30004FF0000B08E000BFCF6807F1040B03E0A3
:100B4000CF6807F10C0B00BF7446BAF1080F28BF3D
:100B5000203C019F28BF04373E6808FA04F226EAC9
:100B600002020BFA04F632433A60CA79D2067FF5E4
:100B700081AF41F21807C4F202073A684FF6084CF9
:100B800042F001023A603A68CFF6FF7C02F00102BF
:100B90000292029A2AF00302024452F80C700EF0FC
:100BA0000C0608FA06F4A743009C04FA06F637433D
:100BB00042F80C70D1F804C05FEACC32026854BF2E
:100BC00022EA090642EA09065FEA8C3206604268B8
:100BD00054BF22EA090642EA09065FEACC224660CF
:100BE000826854BF22EA090642EA09065FEA8C22BB
:100BF00086604FF0010C2A6854BF22EA090642EAD7
:100C000009062E6036E700BF03B0BDE8F08F000094
:100C1000002A08BF090401617047000041F2B030AA
:100C2000C2F200000068704740F2000041F2B031AB
:100C3000C2F20000C2F2000100780A6810440860A5
:100C40007047000080B542F20000C4F20200016863
:100C500041F010010160032000F082F80F2000F045
:100C600005F800F027F8002080BD000070B540F2C4
:100C70000006C2F2000640F208013278C2F200011A
:100C80004FF47A730968B3FBF2F20446B1FBF2F158
:100C9000084600F0E1FE0F2C4FF0010508D838B9E6
:100CA0004FF0FF3021460022002500F02DF874603F
:100CB000284670BD82B041F21800C4F202000168FB
:100CC00041F001010160016801F001010191019908
:100CD000416841F080514160406800F080500090D0
:100CE000009802B070470000002848BF704700F02D
:100CF0001F01012202FA01F14EF200124009CEF268
:100D0000000242F82010704710B54EF60C5CCEF28F
:100D1000000CDCF80030C3F3022E8EF00704042C24
:100D200028BF0424BEF103034FF0FF3E0EFA04F483
:100D300038BF0023A14399400EFA03F39A431143AD
:100D400000F00F02043A624409010C3200F16043E2
:100D5000B0F1FF3FC8BF03F56442117010BD000041
:100D60004EF60C51CEF200010A684FF6FF031A400E
:100D700060F30A2242F0806040F0FD700860704726
:100D80002DE9F04182B00446007841F21C06C0070C
:100D9000C4F202064AD0306810F0805808D130689A
:100DA00040F080503060306800F080500190019831
:100DB00047F20007C4F200073868C00512D438684B
:100DC00040F480703860FFF729FF05463868C00599
:100DD00008D4FFF723FF401B6428F7D9032002B093
:100DE000BDE8F081706810F4407012D0616801F4C1
:100DF000407188420DD0706840F24042C4F24222F5
:100E0000012320F4407113600023C0071360716058
:100E10002AD17068616820F440700843B8F1000F6F
:100E2000706003D1306820F0805030602068810706
:100E300007D556F8181CA26821F44041114346F822
:100E4000181CC00604D4002002B0BDE8F08100BF29
:100E500056F8180C616920F48000084346F8180C15
:100E6000002002B0BDE8F081FFF7D8FE054641F250
:100E7000883700BF70688007CBD4FFF7CFFE401BD8
:100E8000B8424FF00300F5D9EBE700002DE9F0433D
:100E900081B0002800F0858042F20008C4F2020808
:100EA0000446D8F800000D4600F0070088420CD236
:100EB000D8F8000020F007002843C8F80000D8F850
:100EC000000000F00700A8426BD1206841F204093D
:100ED0008107C4F2020917D5410705D5D9F80010DA
:100EE00041F4E061C9F80010010705D5D9F80010F8
:100EF00041F46051C9F80010D9F80010A26821F03F
:100F0000F0011143C9F80010C00741D1D8F8000022
:100F100000F00700A8420CD9D8F8000020F0070024
:100F20002843C8F80000D8F8000000F00700A842E5
:100F300037D12068410707D5D9F80010E26821F4BD
:100F4000E0611143C9F80010000708D5D9F8000086
:100F5000216920F4605040EAC100C9F80000D9F8C6
:100F6000002002F00C00082841F20020C0F27A00B4
:100F700050D148F26C73C2F38341C0F60003595C50
:100F8000D2033BD440F60010C0F23D00484341E09C
:100F9000606802280AD001282AD159F8041C890364
:100FA00008D4012001B0BDE8F08300BF59F8041C4B
:100FB0008901F6D5D9F8001021F003010843C9F8DA
:100FC0000000FFF72BFE064641F28837D9F80000F3
:100FD000616800F00C00B0EB810F97D0FFF71EFEA8
:100FE000801BB842F2D9032001B0BDE8F08300BFF6
:100FF00059F8041C8907D4D5DCE700BFD9F80020D4
:1010000048F25073C2F34042C0F600039A5C484372
:10101000B0FBF2F0D9F8001048F25272C1F303119C
:10102000C0F60002515C40F2080220FA01F140F2E1
:101030000400C2F200000068C2F200021160FFF773
:1010400015FE002001B0BDE8F083000040F208006A
:1010500041F20401C2F20000C4F202010068096812
:1010600048F26272C1F30221C0F60002515CC8402E
:101070007047000040F2080041F20401C2F2000093
:10108000C4F202010068096848F26272C1F3C22129
:10109000C0F60002515CC840704700002DE9F041E5
:1010A00082B0002868D00446007841F20006C007EC
:1010B000C4F2020625D0706800F00C0004281BD092
:1010C000706800F00C00082802D17068C00313D4C7
:1010D0006068002800F06881B0F5A02F00F07C81E6
:1010E000B0F5803F00F07C81306820F480303060C3
:1010F000306820F4802076E13068800301D5606894
:10110000D0B32078800718D5706810F00C0F07D086
:10111000706800F00C0008286ED17068C0036BD4B2
:101120003068800702D52069012825D130686169BF
:1011300020F0F80040EAC1003060207800071FD49A
:101140002078400732D4E56995B1706800F00C0052
:10115000082840F08F80012D0ED07068216A00F4BD
:1011600080328A4208D1616A00F47010884203D14B
:10117000002002B0BDE8F081012002B0BDE8F0819E
:10118000A069002862D00020C4F242200121C0F8EA
:101190008014FFF743FD0546706A800700F18C80DC
:1011A000FFF73CFD401B0228F6D92AE1F06910F058
:1011B000805808D1F06940F08050F061F06900F08B
:1011C00080500090009847F20007C4F2000738688A
:1011D000C00529D4386840F480703860FFF71EFDE0
:1011E000054600BF3868C0051ED4FFF717FD401B39
:1011F0006428F7D905E100BF2069002840F200000B
:10120000C4F2422000F0828001210160FFF706FD58
:10121000054600BF306880073FF588AFFFF7FEFC4A
:10122000401B0228F6D9ECE0E068002800F080803E
:10123000052800F09780012800F09880306A20F09F
:1012400001003062306A20F0040092E00020C4F215
:1012500042200021C0F88014FFF7E0FC054600BFE3
:10126000706A80077FF56CAFFFF7D8FC401B02283F
:10127000F6D9C6E00027C4F2422700203866FFF7FF
:10128000CDFC022D05460BD13068800140F1BE80B7
:10129000FFF7C4FC401B02284FF00300F4D968E7B5
:1012A000306880017FF564AFFFF7B8FC401B02286F
:1012B0004FF00300F4D95CE740F20800C2F20000EE
:1012C000006844F6D351C1F26201A0FB0101480A53
:1012D000019000BF00BF0198411E002801913FF41A
:1012E0002FAF00BF0198411E002801913FF428AFA5
:1012F00000BF0198411E002801913FF421AF00BFBB
:101300000198411E00280191E4D119E700210160F4
:10131000FFF784FC054600BF306880077FF50DAFFE
:10132000FFF77CFC401B02284FF00300F4D920E7B4
:10133000306A20F001003062306A20F00400306230
:10134000FFF76CFC054641F2883700BF306A800722
:1013500020D5FFF763FC401BB8424FF00300F5D9DE
:1013600007E700BF306A40F004003062306A40F0A6
:1013700001003062FFF752FC054641F2883700BF9A
:10138000306A800706D4FFF749FC401BB842F7D902
:1013900037E000BFB8F1000F7FF4D5AEF06920F060
:1013A0008050F061CFE600BF306820F480303060BC
:1013B000306820F480203060FFF730FC054600BF25
:1013C000306880037FF59DAEFFF728FC401B642842
:1013D0004FF00300F4D9CCE6306840F48020306050
:1013E000306840F480303060FFF718FC054600BFDD
:1013F000306880033FF585AEFFF710FC401B642882
:10140000F6D9032002B0BDE8F08100BF206AB0F534
:10141000803F05D17168A26821F4003111437160E9
:101420007168626A21F474111043084370600120EE
:101430003866FFF7F3FB0446306880013FF598AE4D
:10144000FFF7ECFB001B02284FF00300F4D990E6F5
:1014500070B538B10446406A30B10020206104F113
:10146000140007E0012070BD6068B0F5827F03D0F2
:1014700004F11C00002101600026A66294F85100CE
:1014800020B9204684F8506000F038F8022084F833
:10149000510094E8071001F48271036802F40442D9
:1014A00023F040030360236911440CF400621144EB
:1014B00003F002026369114403F00102A369E569C4
:1014C000114403F40072114405F03802256A1144F6
:1014D00005F08002A56A114305F400521143016032
:1014E000042101EA13414160C16921F40061C16135
:1014F0000120666584F85100304670BD10B586B095
:10150000006843F60001C4F2000188424FF0000178
:10151000CDE90411CDE902112CD043F20001C4F24F
:101520000101884257D141F21800C4F2020001685B
:1015300040F6000441F4805101600168C4F20104E6
:1015400001F4805101910199016841F004010160A9
:10155000006802A900F0040001900198A020029008
:1015600002200390032005902046FFF74FFA402009
:1015700029E000BF41F21800C4F20200416841F4C2
:1015800080414160416801F4804101910199016805
:1015900041F008010160006802A900F00800019014
:1015A00001984FF420400290022003900320059000
:1015B00040F60000C4F2010000F580642046FFF709
:1015C00025FA4FF4804002900020CDE9030002A9E3
:1015D0002046FFF71BFA06B010BD00002DE9F043CE
:1015E00081B0044690F85000012803D1022001B0D8
:1015F000BDE8F0834FF001091D4616460F4684F8FA
:101600005090FFF70BFB94F85110012972D18046DE
:10161000002F4FF0010018BF002E00F0C280032001
:10162000002184F8510061652763A686E686A163E0
:10163000A187E187A0682164B0F5004F206861644C
:1016400007D1016821F040010160016841F4804147
:1016500001600168490603D4016841F0400101605E
:101660006168731EE268B1FA81F1B3FA83F3490944
:101670005B09B2F5006F41EA03013DD131B137F8A2
:10168000021BC1602763E18E0139E186E18E0029EA
:101690006CD0691C1BD000BF8168890706D4FFF796
:1016A000BDFAA0EB0800A84208D348E0216B31F84E
:1016B000022BC2602163E08E0138E086E08E0028B4
:1016C00054D0206881688907E9D5EFE720688168F0
:1016D000890703D4FFF7A2FA08E000BF216B31F8B5
:1016E000022BC2602163E08E0138E086E08E002884
:1016F000ECD13BE0022054E039B139780173206B22
:1017000001302063E08E0138E086E08E70B3681C03
:101710000BD11BE0216B09780173206B0130206332
:10172000E08E0138E086E08E00B32068816889078A
:10173000F0D4FFF773FAA0EB0800A842F3D303201C
:101740002FE000BFFFF76AFAE08E78B12068816869
:101750008907F7D5216B09780173206B013020636D
:10176000E08E0138E086E08E0028EFD1204680210F
:101770002A46434604F0A6FB28B1606D40F02000E5
:10178000606520206065A06838B90020009020685E
:10179000C1680091806800900098606D002818BFB3
:1017A0000120002184F8519084F8501001B0BDE868
:1017B000F08300002DE9F04381B0044690F850001A
:1017C000012803D1022001B0BDE8F08301201E46AC
:1017D00015460F4684F85000FFF720FA94F8511090
:1017E000814601290CD06068B0F5827F40F0A0806E
:1017F000A06800284FF0020008BF042940F099803B
:10180000002F4FF0010018BF002D00F09280002E35
:1018100000F08F8094F85100002104281CBF05209F
:1018200084F851006165A563E687A6872763E6868D
:101830002068A686216461640168490603D40168B2
:1018400041F0400101606168731EE268B1FA81F104
:10185000B3FA83F3DDF8208049095B09B2F5006F24
:1018600041EA03016ED131B137F8021BC160276331
:10187000E08E0138E086012518F1010031D101E048
:10188000FFF7CCF9E08E18B9E08F002800F0C28095
:101890002068816889070CD5E18E51B1012D08D1EE
:1018A000216B002531F8022BC2602163E18E0139E2
:1018B000E1868168C907E3D0E18F0029E0D0C068E4
:1018C000A16B012521F8020BA163E08F0138E087AD
:1018D000D6E700BFFFF7A2F9A0EB0900404580F072
:1018E000A980E08E18B9E08F002800F0938020686E
:1018F000816889070CD5E18E51B1012D08D1216B8A
:10190000002531F8022BC2602163E18E0139E186A6
:101910008168C907DED0E18F0029DBD0C068A16BE8
:10192000012521F8020BA163E08F0138E087D1E7A0
:101930000220012184F85110002184F8501001B0D8
:10194000BDE8F08339B139780173206B0130206331
:10195000E08E0138E086012518F1010032D101E066
:10196000FFF75CF9E08E10B9E08F002852D02068B4
:10197000816889070ED5E18E61B1012D0AD1216BF5
:10198000002509780173216B206801312163E18E04
:101990000139E1868168C907E2D0E18F0029DFD0F3
:1019A000C068A16B01250870A06B0130A063E08FB7
:1019B0000138E087D4E700BFFFF730F9A0EB09005A
:1019C000404539D2E08E08B9E08F18B320688168AD
:1019D00089070ED5E18E61B1012D0AD1216B002559
:1019E00009780173216B206801312163E18E01398F
:1019F000E1868168C907DFD0E18F0029DCD0C068AB
:101A0000A16B01250870A06B0130A063E08F013845
:101A1000E087D1E72046802142464B4604F052FA47
:101A200060B1606D40F0200060652020606501209D
:101A30007FE700BF03207CE703207AE7A068002847
:101A40004FF000007FF475AF00902168CA680092E3
:101A50008968009100996CE7411E0020B0EB116F7E
:101A60001CBF012070474EF21002CEF200025160FE
:101A70004EF62351CEF20001F0230B700721906047
:101A800011607047704700007047000010B590F873
:101A90003C20012A4FF002023FD080F83D2002682E
:101AA000D2F804E0D2F808C00C682EF0700323438B
:101AB00040F6FF34C4F20004A242536010DCB2F1DD
:101AC000804F1FD040F20043C4F200039A4219D065
:101AD00040F60003C4F200039A4213D017E000BF9F
:101AE00040F60043C4F200039A420BD043F2004395
:101AF000C4F201039A4205D042F60043C4F2010346
:101B00009A4204D149682CF0800319439160012165
:101B1000002280F83D1080F83C20104610BD0000E7
:101B2000002804BF0120704710B5044690F83D001E
:101B300028B9002084F83C00204600F085F80220F7
:101B400084F83D00206840F6FF330268C4F20003C9
:101B500043F2004C9842C4F2010C21DCB0F1804FFA
:101B60002CD040F20041C4F20001884226D040F659
:101B70000001C4F20001884220D0984224DCB0F178
:101B8000804F2FD040F20041C4F20001884229D09A
:101B900040F60001C4F20001884223D026E000BFD5
:101BA00040F60041C4F20001884207D0604505D0EC
:101BB00042F60041C4F201018842DED1A16822F060
:101BC00070020A439842DADD40F60041C4F2000197
:101BD000884207D0604505D042F60041C4F20101B9
:101BE000884203D1216922F440720A43A36922F09A
:101BF0008001D4F804E0E268194360450160C262E4
:101C0000C0F828E005D042F60041C4F20101884244
:101C100001D16169016301214161002084F846100E
:101C200084F83E1084F83F1084F8401084F8411086
:101C300084F8421084F8431084F8441084F8451066
:101C400084F83D1010BD000080B582B00068B0F18E
:101C5000804F1CBF02B080BD41F21C00C4F20200E4
:101C60000168002241F0010101600068002100F0DC
:101C70000100019001981C20FFF746F81C2002B0DB
:101C8000BDE88040FFF730B890F83D1001291CBF37
:101C900001207047022180F83D10006840F6FF32B5
:101CA000C168C4F20002904241F00101C1600FDC42
:101CB000B0F1804F1ED040F20041C4F200018842D2
:101CC00018D040F60001C4F20001884212D018E09A
:101CD00040F60041C4F2000188420BD043F20041BB
:101CE000C4F20101884205D042F60041C4F201016C
:101CF000884206D1816801F00701062904BF00204F
:101D00007047016841F00101016000207047000048
:101D100080B590F83C20012A4FF0020200F0BF800D
:101D200080F83D20D0F800C04FF67772DCF808301C
:101D300023EA0202CCF808200B683F2B1CDD5F2B46
:101D400020DD602B50D0B3F5005F6DD0702B40F0DC
:101D5000A080D1E901E3C968DCF8082043EA0E035A
:101D600022F47F4243EA01211143CCF80810DCF849
:101D7000081041F077018AE01F2B29DC63B3102B98
:101D80002AD086E0402B63D0502B40F08280D1F8DF
:101D900004E0C968DCF82030DCF8202022F00102E1
:101DA000CCF82020DCF8182022F0F00242EA0111E1
:101DB00023F00A0242EA0E02CCF81810CCF82020D8
:101DC000DCF8081041F0570121F020015FE000BF6E
:101DD000202B01D0302B5CD1DCF8081021F07001F1
:101DE000194341F0070152E0D1F804E0C968DCF87A
:101DF000203023F01003CCF82030DCF81830DCF869
:101E0000202023F4704322F0A00243EA013142EA89
:101E10000E12CCF81810CCF82020DCF8081041F095
:101E2000670121F0100132E0D1E901E3C968DCF873
:101E3000082043EA0E0322F47F4243EA01211143C2
:101E4000CCF80810DCF8081041F480411FE000BF16
:101E5000D1F804E0C968DCF82030DCF8202022F05A
:101E60000102CCF82020DCF8182022F0F00242EA2F
:101E7000011123F00A0242EA0E02CCF81810CCF845
:101E80002020DCF8081041F0470121F03001CCF8A7
:101E900008100121002280F83D1080F83C201046F7
:101EA00080BD00007047000010B501680446086955
:101EB000800744BFC8685FEA807039D4086940076A
:101EC00044BFC8685FEA40703ED40869000744BF59
:101ED000C8685FEA007045D40869C00644BFC86896
:101EE0005FEAC0604AD40869C0071CBFC8685FEADF
:101EF000C07051D10869000644BFC8685FEA00603D
:101F000052D40869400644BFC8685FEA406053D4B1
:101F10000869800646BFC8685FEA806010BD6FF040
:101F2000200220460A61BDE81040FFF7ADBD00BFAA
:101F30006FF002000861012020778869800743D094
:101F40002046FFF7AFFF45E06FF004000861022074
:101F50002077886910F4407F40D02046FFF7A2FF29
:101F600042E000BF6FF00800086104202077C869D4
:101F700080073DD02046FFF795FF3FE06FF010004F
:101F8000086108202077C86910F4407F3AD02046C5
:101F9000FFF788FF3CE000BF6FF0010008612046BA
:101FA00000F086FA2168A5E76FF0800008612046FE
:101FB000FFF768FD2168A4E76FF040000861204644
:101FC00000F090FA2168A3E7204600F025F82046AB
:101FD00000F0FAF92168002020776FE7204600F032
:101FE0001BF8204600F0F0F92168002020776CE70C
:101FF000204600F011F8204600F0E6F921680020A4
:10200000207769E7204600F007F8204600F0DCF969
:1020100021680020207766E7704700002DE9F04135
:1020200090F83C30012B04BF0220BDE8F0814FEA5C
:10203000B202032A00F21381DFE802F002468ED8D2
:10204000036843F200461A6AC4F2010622F0010254
:102050001A621D6A1A465C6852F818EF8F68D1F848
:1020600000C025F00205B34245EA070505D042F657
:102070000047C4F20107BB4205D1CF6825F00C052B
:1020800027F004073D43B34205D042F60046C4F2B0
:102090000106B34205D1D1E9056724F44074344305
:1020A0003C432EF0730747EA0C075C609F614F6862
:1020B00009695F631D629F6947F008079F619F6917
:1020C00027F004079F61C7E0036843F200481A6ADB
:1020D000C4F2010822F010021A621D6A1A465C68F6
:1020E00052F818EF8F68D1F800C025F0200543455D
:1020F00045EA071505D042F60047C4F20107BB4286
:1021000007D1CF686FF0400625F0C00506EA071634
:102110003543434505D042F60046C4F20106B342BA
:1021200007D1D1E9056724F4406444EA860444EA0F
:1021300087042EF4E64747EA0C275C609F614F68EE
:1021400009699F631D629F6947F400679F619F69EA
:1021500027F480679F617EE0036843F200481A6AB3
:10216000C4F2010822F480721A621D6A1A465C6881
:1021700052F81CCF8F68D1F800E025F40075434574
:1021800045EA072505D042F60047C4F20107BB42E5
:1021900008D1CF6840F2FF463F0225F4406527EAA8
:1021A00006063543434505D042F60046C4F2010613
:1021B000B34207D1D1E9056724F4405444EA061438
:1021C00044EA07142CF0730747EA0E075C60DF61EE
:1021D0004F680969DF631D62DF6947F00807DF6147
:1021E000DF6927F00407DF6136E000BF036843F2D0
:1021F00000471A6AC4F2010722F480521A621A4692
:10220000D3F820C05D6852F81C4FD1F800E08E680A
:10221000BB4205D042F60047C4F20107BB4204D1DD
:102220004F6925F4804545EA87152CF4005747EAA5
:10223000063724F4E64646EA0E265D60DE614E6807
:1022400009691E641F62DF6947F40067DF61DF69A7
:1022500027F48067DF6109021368194311600021C8
:1022600080F83C100846BDE8F0810000002804BF5B
:102270000120704710B5044690F83D0028B90020B1
:1022800084F83C00204600F085F8022084F83D00E8
:10229000206840F6FF330268C4F2000343F2004CAA
:1022A0009842C4F2010C21DCB0F1804F2CD040F2F6
:1022B0000041C4F20001884226D040F60001C4F279
:1022C0000001884220D0984224DCB0F1804F2FD00A
:1022D00040F20041C4F20001884229D040F60001DA
:1022E000C4F20001884223D026E000BF40F600413E
:1022F000C4F20001884207D0604505D042F6004193
:10230000C4F201018842DED1A16822F070020A43C2
:102310009842DADD40F60041C4F20001884207D05D
:10232000604505D042F60041C4F20101884203D164
:10233000216922F440720A43A36922F08001D4F893
:1023400004E0E268194360450160C262C0F828E019
:1023500005D042F60041C4F20101884201D1616911
:10236000016301214161002084F8461084F83E1089
:1023700084F83F1084F8401084F8411084F842102B
:1023800084F8431084F8441084F8451084F83D1014
:1023900010BD000081B0006840F20041C4F20001AD
:1023A000884201D001B0704741F21C00C4F2020023
:1023B000016841F002010160006800F00200009035
:1023C000009801B0704700007047000041B1082933
:1023D00010D0042914BF00F1410200F13F020BE0CC
:1023E00090F83E20012A1CBF01207047022280F88D
:1023F0003E2013E000F140021278012A1CBF0120A8
:1024000070470222082907D0042914BF80F8412010
:1024100080F83F2002E000BF80F84020006801F013
:102420001F010122036A02FA01F123EA010202629A
:10243000026A114340F6FF32C4F200029042016288
:102440000EDCB0F1804F25D040F20041C4F2000113
:1024500088421FD040F60001C4F2000118E000BF1E
:1024600040F60041C4F20001884213D043F200421A
:10247000C4F2010242F600419042C4F2010101D0CF
:1024800088420ED1436C904243F40043436401D030
:10249000884206D1816801F00701062904BF0020A7
:1024A0007047016841F001010160002070470000A1
:1024B00080B50068B0F1804F18BF80BD40F2780051
:1024C000C2F20000006805F0D3FD40F61441C2F2EC
:1024D000000151F8200000F06DFEBDE8804000F0E2
:1024E000FFBE000070470000002804BF01207047B5
:1024F00010B5044690F83D0028B9002084F83C004F
:10250000204600F05FF8242084F83D002068D4E9DC
:102510000212C36823F40053C360036923F44053D9
:102520001A430261D4E904231143C268194341F2FA
:102530000C639A431143C1604169A26921F440715F
:10254000114343F60002C4F201029042416103D0FC
:10255000FEF77CFD02E000BFFEF78CFD62681921EA
:1025600048439100B0FBF1F048F21F51C5F2EB1166
:10257000A0FB01235A096FF0630302FB030032231F
:1025800003EB0010A0FB0101F02303EA51132068C4
:1025900003EB0212C1F3431111448160016921F47C
:1025A00090410161416921F02A014161C16841F412
:1025B0000051C16000202021206484F83D1084F87F
:1025C0003E1010BD70B586B040F60004C4F20104A0
:1025D000006804F5405100268842049602D006B0F7
:1025E00070BD00BF41F21800C4F20200016802ADE4
:1025F00041F480410160016801F480410191019939
:10260000016841F0040101600068294600F00400FF
:10261000019001984FF40070029002200390032073
:1026200005902046FEF7F2F94FF48060CDE90206EE
:10263000204629460496FEF7E9F906B070BD000071
:10264000FEE700002DE9F04F83B040F2D400C2F263
:102650000000A0F1100B40F27460C2F2000048F2DA
:10266000000848F26E6942F2F91AA0F1100603253B
:10267000C4F26608CFF21B09C4F2090AE81E80B250
:1026800004F06CFF0022434604F08CFD4A4653469A
:1026900004F0F0FF07460C4604F0A4F904F094FCA3
:1026A0004BF8100F3846214604F054FB04F08CFC24
:1026B00046F8100FA81E80B204F050FF00224346D7
:1026C00004F070FD4A46534604F0D4FF04460F461A
:1026D00004F088F904F078FCCBF804002046394671
:1026E00004F038FB04F070FC7060681E80B204F0E7
:1026F00035FF0022434604F055FD4A46534604F098
:10270000B9FF04460F4604F06DF904F05DFCCBF808
:1027100008002046394604F01DFB04F055FCB0606B
:10272000A8B204F01BFF0022434604F03BFD4A46DA
:10273000534604F09FFF04460F4604F053F904F09B
:1027400043FCCBF80C002046394604F003FB04F0B0
:102750003BFC043540F26B118D42F0608ED140F6A7
:102760001440C2F200004FF4B461FDF74FFD40F297
:10277000D00041F22434C2F200000021C2F2000471
:10278000418020460021FFF721FE20460421FFF76B
:102790001DFE20460821FFF719FE00F017FC41F24C
:1027A000DC20C2F20000FFF76FFA002000F002FD0B
:1027B00001F0A4F900F05AFE00254FF6FF74C4F2B0
:1027C00020150A200A21E322E3230095019400F05A
:1027D0004BFF0A20E321E3220A230095019400F035
:1027E00043FF03B0BDE8F04F00F040BE2DE9F04FCD
:1027F00081B006464FF4B47240F2D000B2FBF6FB53
:10280000C2F2000003210170584605F065FC4FF04C
:102810007C5105F0DDFC002E814669D0701E032836
:1028200006F00300009065D200270124DDF8008047
:10283000B8F1000F00F04D8104FB0BF6304605F0B7
:1028400033FC494605F0CAFDBAB296421FD940F69C
:102850001441C2F2000100BF7D1CABB29E4241F8A0
:10286000220040F2FB80BD1CAAB2964241F8230030
:1028700040F22881FD1CABB29E4241F8220040F29A
:10288000ED800437BAB2964241F82300E4D8B8F19B
:10289000010F00F01E81601C00FB0BF6304605F0B6
:1028A00003FC494605F09AFDBAB2964240F2DD803B
:1028B00040F61441C2F200017D1CABB29E4241F8C9
:1028C000220040F2D180BD1CAAB2964241F82300FA
:1028D00040F2CA80FD1CABB29E4241F8220040F299
:1028E000C3800437BAB2964241F82300E4D8BCE072
:1028F0000027F2E040F6144526F0030A00270124E1
:10290000C2F200054FF0000808E000BF1F4608F1C2
:102910000408D04504F104043FF488AF04FB0BF62F
:10292000304605F0C1FB494605F058FDB9B28E426C
:102930001BD900BF7B1C9AB2964245F8210013D9DF
:10294000BB1C99B28E4245F822000DD9FB1C9AB2ED
:10295000964245F8210007D90437B9B28E4245F8AE
:102960002200E7D801E000BF1F46601C00FB0BF609
:10297000304605F099FB494605F030FDB9B28E426C
:102980001BD900BF7B1C9AB2964245F8210013D98F
:10299000BB1C99B28E4245F822000DD9FB1C9AB29D
:1029A000964245F8210007D90437B9B28E4245F85E
:1029B0002200E7D801E000BF1F46A01C00FB0BF679
:1029C000304605F071FB494605F008FDB9B28E426C
:1029D0001BD900BF7B1C9AB2964245F8210013D93F
:1029E000BB1C99B28E4245F822000DD9FB1C9AB24D
:1029F000964245F8210007D90437B9B28E4245F80E
:102A00002200E7D801E000BF1F46E01C00FB0BF6E8
:102A1000304605F049FB494605F0E0FCB9B28E426C
:102A20007FF675AF7B1C9AB2964245F821007FF67F
:102A30006DAFBB1C99B28E4245F822007FF666AF9F
:102A4000FB1C9AB2964245F821007FF65FAF04372F
:102A5000B9B28E4245F82200E4D858E72F46B8F1C3
:102A6000010F7FF418AF34E02F46B8F1020F30D0D9
:102A7000A01C00FB0BF5284605F016FB494605F0A7
:102A8000ADFCBAB2954224D940F61441C2F200011D
:102A90007E1CB3B29D4241F8220019D9BE1CB2B2CD
:102AA000954241F8230013D9FE1CB3B29D4241F870
:102AB00022000DD90437BAB2954241F82300E7D875
:102AC00007E000BF2F46B8F1010F02D0E3E600BFD8
:102AD0003746B8B2B0F5B47F40D80020C4F2B43065
:102AE000494605F07BFCC7F1010111F00302B9B2C0
:102AF0000AD040F61443C2F20003012A01F1010694
:102B000043F8210006D13146A7F5B37292B2032AE9
:102B100024D30EE043F82600022A01F102021ABF74
:102B200043F8220003311146A7F5B37292B2032A8B
:102B300014D340F61443C2F200030A1D03EB8101D3
:102B4000103940F2691300BF97B241F8100F9F424D
:102B500002F10402C1E90100C860F5D101B0BDE88D
:102B6000F08F00002DE9F04F83B040F27800C2F200
:102B70000000006805F07CFA40F2D007C2F20007BE
:102B80003978044603295CD17E8840F2D400C2F231
:102B9000000040F2000850F82600C4F2A028414688
:102BA00005F016FB0025C4F2F025294605F0A2F831
:102BB00005F05EFA40F2746BC2F2000B5BF826106F
:102BC00040F20009CCF2A02906460846494605F025
:102BD000FFFA294605F08EF805F04AFA0346002070
:102BE00040F2000AC4F2A00A01907820782132460F
:102BF000CDF800A000F038FD40F2D400C2F2000091
:102C000050F82400414605F0E3FA294605F072F831
:102C100005F02EFA5BF8241006460846494605F0F2
:102C2000D7FA294605F066F805F022FA03464FF672
:102C3000FF75782078213246CDF800A0019500F08C
:102C400013FD7C8003B0BDE8F08F0000B0B584B008
:102C500041F2B81042F20041C2F20000C4F2010198
:102C6000002401254FF4602205730475C261C0E998
:102C7000001484600561FDF717FC002818BFFDF7FC
:102C800043FB0420039041F2B810C2F2000001A9F6
:102C9000CDE90145FDF73EFB002818BFFDF734FBE9
:102CA00004B0B0BD80B582B041F21400C4F202009D
:102CB0000168002241F0010101600068002100F07C
:102CC0000100019001980B20FEF71EF80B2002B0C6
:102CD000BDE88040FEF708B82DE9F04784B041F226
:102CE0001800C4F20200016840F6000A41F0200119
:102CF00001600168C4F2010A01F02001009100990D
:102D000001680AF5006541F01001016001680022C8
:102D100001F010010091009901680F2641F00401B3
:102D2000016001684FF0000901F004010091009971
:102D3000016841F00801016000680F2100F00800FF
:102D4000009000982846FDF763FF504610210022AE
:102D50004FF01008FDF75CFF00966E460127022435
:102D600028463146CDE901790394FDF74FFE5046E0
:102D70003146CDE90087CDE90294FDF747FE04B066
:102D8000BDE8F08780B541F22C2043F20001C2F289
:102D90000000C4F201014FF4827200234FF4007C62
:102DA00080E80E000A21C0E90333C0E9053CC36195
:102DB000C0E90833C0E90A31FEF74AFB002808BF22
:102DC00080BDBDE88040FDF79FBA000010B541F21C
:102DD000842043F60001C2F20000C4F200014FF467
:102DE000827200234FF4006C4FF0010E4FF4007418
:102DF00080E80E100A21C0E9043EC0E90643C0E99C
:102E00000833C0E90A31FEF723FB002808BF10BDD4
:102E1000BDE81040FDF778BA80B586B041F2DC20FD
:102E20000021C2F200004FF08042482340F2E73C0C
:102E30000591CDE90311CDE90011C0E90023C0E9F6
:102E4000021C01618161FEF76BFE002818BFFDF7CF
:102E50005BFA4FF48050029041F2DC20C2F2000095
:102E600002A9FEF755FF002818BFFDF74DFA41F201
:102E7000DC20C2F200006946FEF708FE002818BFF9
:102E8000FDF742FA06B080BDB0B590B040F2004503
:102E900041F22430C4F200050021C2F2000040F2E9
:102EA000CF72CDE90811CDE90611CDE90411C0E9D1
:102EB0000051C0E9021201618161FFF7D7F90028D2
:102EC00018BFFDF721FA41F22430C2F2000008A930
:102ED000FEF7DCFD002818BFFDF716FA6020019010
:102EE0000020CDE90200059041F22430C2F200003A
:102EF00001A90022FFF792F8002818BFFDF704FA95
:102F000041F22430C2F2000001A90422FFF786F842
:102F1000002818BFFDF7F8F941F22434C2F200048A
:102F200001A920460822FFF779F8002818BFFDF70D
:102F3000EBF920680021A8420E9101D010B0B0BD7D
:102F400041F21800C4F20200016841F01001016072
:102F500000680CA900F010000B900B984FF4E07083
:102F60000C9002200D900F9041F20000C4F201007D
:102F7000FDF74CFD0420C4F20100016841F0E0615E
:102F800041F44061016010B0B0BD000080B541F275
:102F90006C3043F60001C2F20000C4F201010023CC
:102FA0004FF00C0C4FF4E13280E80E00C0E903331F
:102FB000C0E905C3C361FFF797FA002808BF80BDC9
:102FC000BDE88040FDF7A0B9FEE70000F0B581B094
:102FD00040F27006C2F2000606F120004FF07F5169
:102FE00000220023002702F041FF01204CF6CD41D2
:102FF00086F83C0006F14000C3F6CC5100220023C5
:1030000002F034FF00F074F900240020C4F2873489
:10301000C4F2400000212246F76000F0D5F840F6E7
:10302000B830FDF7DFFC00F063F9D6E9015000216C
:10303000C4F2301105F0CCF8294605F0CFF9002292
:10304000C4F2B432002100F0B1F970600020002118
:10305000224600F0B9F8377001B0F0BDF0B581B08C
:103060000026C4F2201614460D460021324602F016
:1030700013FF074628460021324602F00DFF0546A1
:1030800020460021324602F007FF49F69A16C4F2A4
:10309000491604463846314604F0F4FE00214FF04C
:1030A0007E5202F0F9FE40F27007C2F2000738616A
:1030B0002846314604F0E6FE00214FF07E5202F031
:1030C000EBFE78612046314604F0DCFE00214FF033
:1030D0007E5202F0E1FE4EF200060446B861D7E9E6
:1030E0000405C4F2F946314605F072F804F0C0FF59
:1030F00041F22431C2F200010F683146786328465C
:1031000005F066F804F0B4FFB8632046314605F0D8
:103110005FF804F0ADFFF86301B0F0BDB0B540F268
:103120007005C2F200052878012813D0032817D1B2
:10313000E8690021CBF680714FF07E5202F0ACFEC0
:103140000021C4F2201105F043F84FF07C5105F046
:103150003FF808E0A96805F1200002F0E3FD02E075
:10316000022821D0002000210022CCF2A001C4F2CC
:10317000A00202F091FED5E9014200210546C4F209
:103180003011104605F024F8214605F027F90022F9
:10319000C4F2B432002100F009F9024628460021A9
:1031A000BDE8B04000F010B8E96805F1400002F059
:1031B000B9FD0000014640F27000C2F20000012299
:1031C00000F8202B02F05ABE2DE9F04F81B01346D3
:1031D000002288460546C4F2B4321846002100F0A9
:1031E000E5F80021C4F2343104F04CFE40F6DB7106
:1031F000C4F2490104F0ECFF074603F041FC064627
:10320000384603F0F7FD294604F0E2FF0446404645
:10321000314604F0DDFF214605F0E0F80646384669
:1032200003F0E8FD0446384603F02AFC294604F082
:10323000CFFF05464046214604F0CAFF294604F068
:1032400059FD49F69A110446C4F2C901304604F00A
:1032500051FD804630464FF03F4104F0B9FF04F085
:103260001DFD054620460E4604F018FD44F6AA4909
:10327000CEF658094BF27A63C3F6EB734A4607461B
:103280000C4604F0F7F92A46334603F0CFFE43F22A
:10329000333AC4F2190A4FF08042534603F0C6FE97
:1032A00003F092FE4BF27A638346CBF6EB7338461B
:1032B00021464A4604F0DEF92A46334603F0B6FEBC
:1032C0004FF08042534603F0B1FE03F07DFE02460C
:1032D0004046594601B0BDE8F04FFFF7BFBE0000C1
:1032E00080B500F005F8BDE88040FFF717BF00008B
:1032F0002DE9F04381B040F60004C4F201042046F9
:1033000010210022FDF784FC40F27008C2F2000890
:1033100041F2842648F26A7708F10205C2F20006FB
:10332000C0F600074FF0FF39304639462A460123E0
:10333000CDF80090FEF73EFA204610210122FDF75D
:1033400067FC204610210022FDF762FC304639461A
:103350002A460123CDF80090FEF72CFA20461021D2
:103360000122FDF755FCB8F802006FF39F3004F01E
:10337000B3FE0021C4F2B43104F02AFF4FF06251D1
:1033800004F026FFD8F80810044605F027F80021BD
:103390000022CCF23431C4F2343200F007F8C8E92C
:1033A000024001B0BDE8F083FEE70000F0B581B057
:1033B0000646104617460C4605F010F805463046FE
:1033C000394604F04CFD20BB3046294605F006F88E
:1033D0003946064604F043FDD8B93046294604F084
:1033E000FDFF3946064604F03AFD90B930462946BD
:1033F00004F0F4FF3946064604F031FD48B9304682
:10340000294604F0EBFF0646394604F028FD002863
:10341000DAD03046214604F014FD20BB2846314660
:1034200004F068FC2146064604F00BFDD8B9284696
:10343000314604F05FFC2146064604F002FD90B9D7
:103440002846314604F056FC2146064604F0F9FCB5
:1034500048B92846314604F04DFC2146064604F0A2
:10346000FEFC0028DAD1304601B0F0BD2DE9F04372
:1034700081B041F2000400200021EF22EF23C4F2CA
:1034800001044FF0000900F02BF841F22C25C2F2A4
:1034900000050DF102064FF0000800BF002700BF35
:1034A000204602210022ADF80290FDF7B1FB28462C
:1034B000314602224FF0FF33FEF790F820460221FA
:1034C0000122FDF7A5FBEF2F07F10107E8D3B8F1C3
:1034D000EF0F08F10108E1D301B0BDE8F08300006F
:1034E0002DE9F04383B041F2000407462A20C4F2DC
:1034F0000104164689468DF8010020460421002269
:103500009846FDF785FB204602210022FDF780FB4F
:1035100041F22C25C2F200050DF1010128460122DD
:103520004FF0FF33FEF75AF8204602210122FDF743
:103530006FFB204604210122FDF76AFB78BAADF843
:103540000200204602210022FDF762FB0DF102017C
:10355000284602224FF0FF33FEF740F820460221B2
:103560000122FDF755FB70BAADF804002046022198
:103570000022FDF74DFB01A9284602224FF0FF3340
:10358000FEF72CF8204602210122FDF741FB2B20FB
:103590008DF80600204604210022FDF739FB204665
:1035A00002210022FDF734FB0DF10601284601221D
:1035B0004FF0FF33FEF712F8204602210122FDF7FB
:1035C00027FB204604210122FDF722FB99FA99F0FE
:1035D000ADF80700204602210022FDF719FB0DF18E
:1035E0000701284602224FF0FF33FDF7F7FF204680
:1035F00002210122FDF70CFB98FA98F0ADF80900C2
:10360000204602210022FDF703FB0DF109012846A7
:1036100002224FF0FF33FDF7E1FF20460221012295
:10362000FDF7F6FA2C208DF80B002046042100222D
:10363000FDF7EEFA204602210022FDF7E9FA0DF12E
:103640000B01284601224FF0FF33FDF7C7FF20464C
:1036500002210122FDF7DCFA204604210122FDF7B8
:10366000D7FA03B0BDE8F0832DE9F04F93B01546CB
:10367000121A5F1ADDF8709012B23FB2BA42C2F16C
:103680000006A8BFB74203DA974213DBB74211DC4A
:10369000B2F1FF3F06DD0122009280460A46AB46AA
:1036A0001D4616E001220092A8461A4683460D46A2
:1036B0000FE000BF0022B7F1FF3F05DD0092884612
:1036C00002469B4605E000BF009298462A468B467C
:1036D0000546A81A00B210950C92ABEB080504F051
:1036E000E3FC044628B204F0DFFC0146204604F067
:1036F000C9FB0146054604F06BFD4FF07E5104F016
:10370000F9FA04F0CBFA04460E4603F037FC0B46F8
:1037100000210246C3F6F07100200027119703F044
:1037200041FD03F051FC0B902846089504F0B6FAD1
:1037300005460F462046314603F020FC02460B4664
:103740002846394603F02EFD03F03EFC0546484668
:1037500004F0A4FA0023C3F6E073002203F08AFF0A
:10376000814628468A4604F099FA02460B464846A6
:10377000514603F07FFF03F027FC0746404604F064
:10378000ABFC3946054604F029FE0E902846394622
:1037900004F0B0FA0D90584604F09EFC39460546F8
:1037A00004F01CFE07902846394604F0A3FA069060
:1037B0004046CDF83C8003F0D1FE4A46534604F023
:1037C0007FF90022002307465C468B4604F016FB77
:1037D00030B93846594603F05BF803F079FE119092
:1037E000204603F0BBFE02460B464846514603F016
:1037F0001DFC4EF20003C4F26D03002207460D4685
:1038000004F0F5FA40B93846294603F0F7F903F019
:103810005FFE834602E000BF4FF0EF0B09940C9C63
:10382000119EDDE90F780B9D204604F055FC0590B4
:10383000284604F033FA02460B464846514603F048
:10384000B1FCCDE90310404603F088FECDE901103C
:103850001C98014604F0BCFC04F020FA0023C3F6D7
:10386000D073002203F006FFCDE91010204603F0CC
:1038700075FEB3450C900B9102D213B0BDE8F08FEA
:103880001D9841F2000A4FEA1028C4F2010A354699
:10389000CDF828B006E000BF01360A98B5B20F9FF8
:1038A0008542EAD81FFA86FB584604F015FC81468B
:1038B0000D98494604F0CCFA80B9E81B404303F068
:1038C00036FE02460B46DDE9101004F0F9F803F06D
:1038D00055FB02460B46DDE90B1024E006984946ED
:1038E00004F0AFFA90B90998281A404303F01FFE7C
:1038F00002460B46DDE9101004F0E2F803F03EFB4F
:1039000002460B46DDE901100DE000BFE81B04F0A4
:10391000CBFB089904F05CFC059904F0EBF904F08A
:10392000BDF9DDE9033204F0CBF803F04DFB0446AA
:103930000E98494604F08CFA70B9E81B404303F036
:10394000F6FD02460B46DDE9101004F0B9F803F06D
:1039500015FBDDE90B3224E00798494604F071FAC3
:1039600080B90998281A404303F0E1FD02460B464E
:10397000DDE9101004F0A4F803F000FBDDE90132EA
:103980000FE000BFE81B04F08FFB089904F020FC57
:10399000059904F0AFF904F081F902460B46DDE920
:1039A000031003F043FB03F00FFB05462046002104
:1039B000002704F04DFA38B9204602F0D7FF04F092
:1039C0006DF9074601E000BF00211D9C384603F059
:1039D000FBFA002107462846C4F26F3104F031FAA1
:1039E00030B9284603F078F904F058F905E000BF33
:1039F0004EF200010020C4F26D0103F0E5FA054625
:103A00003846294604F024FAB0B93846294604F06D
:103A100071F904F02DFB03F0A1FD0025C3F6E0755C
:103A200000222B4603F026FE00222B4603F0FEFA6E
:103A300003F0CAFA07460546384604F019FB074664
:103A400004F04AFB0146284604F009FA00287FF4F6
:103A500023AF009841F22C29C2F2000930B300BF15
:103A6000B9B258465A460B46FFF73AFD5046022176
:103A700000228DF848808DF84940FDF7C9F8484686
:103A800012A902224FF0FF33FDF7A8FD5046022194
:103A90000122FDF7BDF80137B8B204F01DFB014665
:103AA000284604F0CEF90028DAD1F5E6B8B2594636
:103AB00002465B46FFF714FD5046022100228DF8B6
:103AC0004A808DF84B40FDF7A3F848460DF14A01B6
:103AD00002224FF0FF33FDF781FD50460221012203
:103AE000FDF796F80137B8B204F0F6FA0146284619
:103AF00004F0B5F90028D9D0CEE600002DE9F04F4A
:103B000081B041F20004C4F20104204608210022E1
:103B10004FF0080B4FF00009FDF77AF86420FCF72E
:103B200061FF204608210122FDF772F86420FCF7AE
:103B300059FF204601210122FDF76AF86420FCF7B5
:103B400051FFEF208DF803002046042100224FF0A2
:103B5000EF0A4FF00408FDF75BF82046022100222F
:103B6000FDF756F841F22C25C2F200050DF10301D4
:103B7000284601224FF0FF33FDF730FD2046022199
:103B80000122FDF745F8204604210122FDF740F807
:103B9000EB262046042100228DF80360FDF738F85B
:103BA000204602210022FDF733F80DF103012846DB
:103BB00001224FF0FF33FDF711FD204602210122C3
:103BC000FDF726F8204604210122FDF721F81427ED
:103BD0002046022100228DF80370FDF719F80DF13F
:103BE0000301284601224FF0FF33FDF7F7FC204682
:103BF00002210122FDF70CF8FE208DF8030020467B
:103C000004210022FDF704F8204602210022FCF7DF
:103C1000FFFF0DF10301284601224FF0FF33FDF7AE
:103C2000DDFC204602210122FCF7F2FF20460421A0
:103C30000122FCF7EDFF2046042100228DF803A0AD
:103C4000FCF7E6FF204602210022FCF7E1FF0DF120
:103C50000301284601224FF0FF33FDF7BFFC204649
:103C600002210122FCF7D4FF204604210122FCF7A7
:103C7000CFFF2046042100228DF80360FCF7C8FF27
:103C8000204602210022FCF7C3FF0DF10301284664
:103C900001224FF0FF33FDF7A1FC20460221012253
:103CA000FCF7B6FF204604210122FCF7B1FF2046B5
:103CB000022100228DF80370FCF7AAFF0DF1030129
:103CC000284601224FF0FF33FDF788FC20460221F1
:103CD0000122FCF79DFF84208DF80300204604217B
:103CE0000022FCF795FF204602210022FCF790FFFE
:103CF0000DF10301284601224FF0FF33FDF76EFC62
:103D0000204602210122FCF783FF204604210122E4
:103D1000FCF77EFF40208DF80300204602210022A0
:103D2000FCF776FF0DF10301284601224FF0FF3327
:103D3000FDF754FC204602210122FCF769FF852093
:103D40008DF80300204604210022FCF761FF204685
:103D500002210022FCF75CFF0DF10301284601223D
:103D60004FF0FF33FDF73AFC204602210122FCF719
:103D70004FFF204604210122FCF74AFFFF2720467F
:103D8000022100228DF80370FCF742FF0DF10301C0
:103D9000284601224FF0FF33FDF720FC2046022188
:103DA0000122FCF735FF86208DF803002046042110
:103DB0000022FCF72DFF204602210022FCF728FFFD
:103DC0000DF10301284601224FF0FF33FDF706FCF9
:103DD000204602210122FCF71BFF2046042101227C
:103DE000FCF716FF2046022100228DF80370FCF735
:103DF0000FFF0DF10301284601224FF0FF33FDF7BD
:103E0000EDFB204602210122FCF702FF87208DF8FE
:103E10000300204604210022FCF7FAFE204602217E
:103E20000022FCF7F5FE0DF10301284601224FF0B8
:103E3000FF33FDF7D3FB204602210122FCF7E8FE09
:103E4000204604210122FCF7E3FE20460221002245
:103E50008DF80370FCF7DCFE0DF10301284601220A
:103E60004FF0FF33FDF7BAFB204602210122FCF799
:103E7000CFFE88208DF80300204604210022FCF7A5
:103E8000C7FE204602210022FCF7C2FE0DF103010D
:103E9000284601224FF0FF33FDF7A0FB2046022108
:103EA0000122FCF7B5FE204604210122FCF7B0FEFA
:103EB0000A208DF80300204602210022FCF7A8FE0C
:103EC0000DF10301284601224FF0FF33FDF786FB79
:103ED000204602210122FCF79BFE89208DF8030079
:103EE000204604210022FCF793FE204602210022F6
:103EF000FCF78EFE0DF10301284601224FF0FF333F
:103F0000FDF76CFB204602210122FCF781FE2046D2
:103F100004210122FCF77CFE21208DF803002046BD
:103F2000022100224FF0210AFCF772FE0DF103017D
:103F3000284601224FF0FF33FDF750FB20460221B7
:103F40000122FCF765FE8A208DF80300204604213B
:103F50000022FCF75DFE204602210022FCF758FEFD
:103F60000DF10301284601224FF0FF33FDF736FB28
:103F7000204602210122FCF74BFE204604210122AB
:103F8000FCF746FE2046022100228DF80390FCF744
:103F90003FFE0DF10301284601224FF0FF33FDF7EC
:103FA0001DFB204602210122FCF732FE8B208DF8FA
:103FB0000300204604210022FCF72AFE20460221AD
:103FC0000022FCF725FE0DF10301284601224FF0E7
:103FD000FF33FDF703FB204602210122FCF718FE08
:103FE000204604210122FCF713FE80208DF80300F7
:103FF000204602210022FCF70BFE0DF103012846AA
:1040000001224FF0FF33FDF7E9FA20460221012299
:10401000FCF7FEFD8C208DF80300204604210022D1
:10402000FCF7F6FD204602210022FCF7F1FD0DF120
:104030000301284601224FF0FF33FDF7CFFA204657
:1040400002210122FCF7E4FD204604210122FCF7B5
:10405000DFFD01262046022100228DF80360FCF7D7
:10406000D7FD0DF10301284601224FF0FF33FDF784
:10407000B5FA204602210122FCF7CAFD8D208DF8F9
:104080000300204604210022FCF7C2FD2046022145
:104090000022FCF7BDFD0DF10301284601224FF07F
:1040A000FF33FDF79BFA204602210122FCF7B0FD09
:1040B000204604210122FCF7ABFD2046022100220C
:1040C0008DF803600126FCF7A3FD0DF103012846DE
:1040D00001224FF0FF33FDF781FA20460221012231
:1040E000FCF796FD8E208DF8030020460421002267
:1040F000FCF78EFD204602210022FCF789FD0DF120
:104100000301284601224FF0FF33FDF767FA2046EE
:1041100002210122FCF77CFD204604210122FCF74C
:1041200077FD2046022100228DF80370FCF770FD18
:104130000DF10301284601224FF0FF33FDF74EFA3F
:10414000204602210122FCF763FD8F208DF8030039
:10415000204604210022FCF75BFD204602210022BC
:10416000FCF756FD0DF10301284601224FF0FF3305
:10417000FDF734FA204602210122FCF749FD2046D2
:1041800004210122FCF744FD2046022100228DF883
:104190000370FCF73DFD0DF10301284601224FF0AD
:1041A000FF33FDF71BFA204602210122FCF730FD08
:1041B000B6208DF80300204604210022FCF728FDDC
:1041C000204602210022FCF723FD0DF103012846C1
:1041D00001224FF0FF33FDF701FA204602210122B0
:1041E000FCF716FD204604210122FCF711FD2046B4
:1041F000022100228DF80390FCF70AFD0DF1030166
:10420000284601224FF0FF33FDF7E8F9204602214E
:104210000122FCF7FDFC20208DF80300204602213E
:104220000022FCF7F5FC0DF10301284601224FF0B6
:10423000FF33FDF7D3F9204602210122FCF7E8FC09
:1042400036208DF80300204604210022FCF7E0FC14
:10425000204602210022FCF7DBFC0DF10301284679
:1042600001224FF0FF33FDF7B9F920460221012268
:10427000FCF7CEFC204604210122FCF7C9FC2046B5
:10428000022100228DF803B0FCF7C2FC0DF10301FE
:10429000284601224FF0FF33FDF7A0F92046022106
:1042A0000122FCF7B5FC3A208DF8030020460421DA
:1042B0000022FCF7ADFC204602210022FCF7A8FCFE
:1042C0000DF10301284601224FF0FF33FDF786F977
:1042D000204602210122FCF79BFC204604210122FA
:1042E000FCF796FC05208DF80300204602210022F1
:1042F000FCF78EFC0DF10301284601224FF0FF333D
:10430000FDF76CF9204602210122FCF781FC902088
:104310008DF80300204604210022FCF779FC20469A
:1043200002210022FCF774FC0DF103012846012252
:104330004FF0FF33FDF752F9204602210122FCF72E
:1043400067FC204604210122FCF762FC2046022182
:1043500000228DF803B0FCF75BFC0DF10301284649
:1043600001224FF0FF33FDF739F9204602210122E7
:10437000FCF74EFC2046022100228DF803B0FCF72A
:1043800047FC0DF10301284601224FF0FF33FDF7F2
:1043900025F9204602210122FCF73AFC20460221A1
:1043A00000228DF803B0FCF733FC0DF10301284621
:1043B00001224FF0FF33FDF711F9204602210122BF
:1043C000FCF726FC2046022100228DF803B0FCF702
:1043D0001FFC0DF10301284601224FF0FF33FDF7CA
:1043E000FDF8204602210122FCF712FCBD208DF8C9
:1043F0000300204604210022FCF70AFC204602218B
:104400000022FCF705FC0DF10301284601224FF0C4
:10441000FF33FDF7E3F8204602210122FCF7F8FB09
:10442000204604210122FCF7F3FB06208DF803004F
:10443000204602210022FCF7EBFB0DF10301284688
:1044400001224FF0FF33FDF7C9F820460221012277
:10445000FCF7DEFBBC208DF803002046042100227F
:10446000FCF7D6FB204602210022FCF7D1FB0DF120
:104470000301284601224FF0FF33FDF7AFF8204635
:1044800002210122FCF7C4FB204604210122FCF793
:10449000BFFB2046022100228DF80390FCF7B8FBF9
:1044A0000DF10301284601224FF0FF33FDF796F886
:1044B000204602210122FCF7ABFB2046042100220A
:1044C0008DF80370FCF7A4FB204602210022FCF7C4
:1044D0009FFB0DF10301284601224FF0FF33FDF74A
:1044E0007DF8204602210122FCF792FB20460421A0
:1044F0000122FCF78DFB60208DF80300204602218D
:104500000022FCF785FB0DF10301284601224FF044
:10451000FF33FDF763F8204602210122FCF778FB08
:104520002046022100228DF80360FCF771FB0DF19B
:104530000301284601224FF0FF33FDF74FF82046D4
:1045400002210122FCF764FB2046022100228DF8A3
:104550000380FCF75DFB0DF10301284601224FF0BB
:10456000FF33FDF73BF8204602210122FCF750FB08
:10457000C3208DF80300204604210022FCF748FBED
:10458000204602210022FCF743FB0DF103012846DF
:1045900001224FF0FF33FDF721F8204602210122CE
:1045A000FCF736FB204604210122FCF731FB1320E7
:1045B0008DF803002046022100221326FCF728FB79
:1045C0000DF10301284601224FF0FF33FDF706F8F5
:1045D000204602210122FCF71BFBC4208DF80300BA
:1045E000204604210022FCF713FB20460221002272
:1045F000FCF70EFB0DF10301284601224FF0FF33BB
:10460000FCF7ECFF204602210122FCF701FB2046CB
:1046100004210122FCF7FCFA2046022100228DF839
:104620000360FCF7F5FA0DF10301284601224FF073
:10463000FF33FCF7D3FF204602210122FCF7E8FA02
:10464000C9208DF80300204604210022FCF7E0FA7F
:10465000204602210022FCF7DBFA0DF10301284677
:1046600001224FF0FF33FCF7B9FF2046022101225F
:10467000FCF7CEFA204604210122FCF7C9FA2220D9
:104680008DF80300204602210022FCF7C1FA0DF14B
:104690000301284601224FF0FF33FCF79FFF20461D
:1046A00002210122FCF7B4FABE208DF80300204657
:1046B00004210022FCF7ACFA204602210022FCF77C
:1046C000A7FA0DF10301284601224FF0FF33FCF752
:1046D00085FF204602210122FCF79AFA2046042198
:1046E0000122FCF795FA11208DF8030020460221E3
:1046F0000022FCF78DFA0DF10301284601224FF04C
:10470000FF33FCF76BFF204602210122FCF780FA01
:10471000E1208DF80300204604210022FCF778FAFE
:10472000204602210022FCF773FA0DF1030128460E
:1047300001224FF0FF33FCF751FF204602210122F6
:10474000FCF766FA204604210122FCF761FA1020EA
:104750008DF80300204602210022FCF759FA0DF1E2
:104760000301284601224FF0FF33FCF737FF2046B4
:1047700002210122FCF74CFA0E208DF8030020469E
:1047800002210022FCF744FA0DF103012846012220
:104790004FF0FF33FCF722FF204602210122FCF7F5
:1047A00037FADF208DF80300204604210022FCF7B1
:1047B0002FFA204602210022FCF72AFA0DF103010C
:1047C000284601224FF0FF33FCF708FF2046022164
:1047D0000122FCF71DFA204604210122FCF718FAF9
:1047E0002046022100228DF803A0FCF711FA0DF1FA
:1047F0000301284601224FF0FF33FCF7EFFE20466D
:1048000002210122FCF704FA0C208DF80300204657
:1048100002210022FCF7FCF90DF1030128460122D8
:104820004FF0FF33FCF7DAFE204602210122FCF7AD
:10483000EFF902208DF80300204602210022FCF748
:10484000E7F90DF10301284601224FF0FF33FCF791
:10485000C5FE204602210122FCF7DAF9F0208DF88E
:104860000300204604210022FCF7D2F92046022151
:104870000022FCF7CDF90DF10301284601224FF08B
:10488000FF33FCF7ABFE204602210122FCF7C0F902
:10489000204604210122FCF7BBF945208DF80300D6
:1048A000204602210022FCF7B3F90DF1030128464E
:1048B00001224FF0FF33FCF791FE20460221012236
:1048C000FCF7A6F909208DF80300204602210022FA
:1048D0004FF00909FCF79CF90DF10301284601226C
:1048E0004FF0FF33FCF77AFE204602210122FCF74D
:1048F0008FF92046022100228DF803B0FCF788F9D9
:104900000DF10301284601224FF0FF33FCF766FE4C
:10491000204602210122FCF77BF9204602210022D9
:104920008DF803B0FCF774F90DF10301284601225C
:104930004FF0FF33FCF752FE204602210122FCF724
:1049400067F926208DF80300204602210022FCF79B
:104950005FF90DF10301284601224FF0FF33FCF708
:104960003DFE204602210122FCF752F92A208DF853
:104970000300204602210022FCF74AF90DF1030151
:10498000284601224FF0FF33FCF728FE2046022183
:104990000122FCF73DF9F1208DF8030020460421A7
:1049A0000022FCF735F9204602210022FCF730F9FD
:1049B0000DF10301284601224FF0FF33FCF70EFEF4
:1049C000204602210122FCF723F92046042101227E
:1049D000FCF71EF943272046022100228DF80370C0
:1049E000FCF716F90DF10301284601224FF0FF33C1
:1049F000FCF7F4FD204602210122FCF709F97020A2
:104A00008DF80300204602210022FCF701F90DF188
:104A10000301284601224FF0FF33FCF7DFFD20465B
:104A200002210122FCF7F4F84FF0720B204602211C
:104A300000228DF803B0FCF7EBF80DF103012846D6
:104A400001224FF0FF33FCF7C9FD2046022101226D
:104A5000FCF7DEF84FF0360A2046022100228DF8DE
:104A600003A0FCF7D5F80DF10301284601224FF011
:104A7000FF33FCF7B3FD204602210122FCF7C8F802
:104A800037262046022100228DF80360FCF7C0F88B
:104A90000DF10301284601224FF0FF33FCF79EFD84
:104AA000204602210122FCF7B3F84FF06F082046A0
:104AB000022100228DF80380FCF7AAF80DF1030112
:104AC000284601224FF0FF33FCF788FD20460221E3
:104AD0000122FCF79DF8F2208DF803002046042106
:104AE0000022FCF795F8204602210022FCF790F8FE
:104AF0000DF10301284601224FF0FF33FCF76EFD54
:104B0000204602210122FCF783F8204604210122DD
:104B1000FCF77EF845208DF8030020460221002294
:104B2000FCF776F80DF10301284601224FF0FF3320
:104B3000FCF754FD204602210122FCF769F82046CB
:104B4000022100228DF80390FCF762F80DF10301B9
:104B5000284601224FF0FF33FCF740FD204602219A
:104B60000122FCF755F84FF00809204602210022E7
:104B70008DF80390FCF74CF80DF103012846012253
:104B80004FF0FF33FCF72AFD204602210122FCF7FB
:104B90003FF82046022100228DF80390FCF738F8F8
:104BA0000DF10301284601224FF0FF33FCF716FDFB
:104BB000204602210122FCF72BF826208DF8030065
:104BC000204602210022FCF723F80DF103012846BC
:104BD00001224FF0FF33FCF701FD204602210122A4
:104BE000FCF716F82A208DF8030020460221002247
:104BF000FCF70EF80DF10301284601224FF0FF33B8
:104C0000FCF7ECFC204602210122FCF701F8F3201E
:104C10008DF80300204604210022FBF7F9FF20460F
:104C200002210022FBF7F4FF0DF1030128460122C7
:104C30004FF0FF33FCF7D2FC204602210122FBF7A4
:104C4000E7FF204604210122FBF7E2FF2046022174
:104C500000228DF80370FBF7DBFF0DF103012846FE
:104C600001224FF0FF33FCF7B9FC2046022101225C
:104C7000FBF7CEFF70272046022100228DF803703B
:104C8000FBF7C6FF0DF10301284601224FF0FF3369
:104C9000FCF7A4FC204602210122FBF7B9FF2046C5
:104CA000022100228DF803B0FBF7B2FF0DF10301E2
:104CB000284601224FF0FF33FCF790FC20460221EA
:104CC0000122FBF7A5FF2046022100228DF803A058
:104CD000FBF79EFF0DF10301284601224FF0FF3341
:104CE000FCF77CFC204602210122FBF791FF2046C5
:104CF000022100228DF80360FBF78AFF0DF103010A
:104D0000284601224FF0FF33FCF768FC20460221C1
:104D10000122FBF77DFF2046022100228DF803804F
:104D2000FBF776FF0DF10301284601224FF0FF3318
:104D3000FCF754FC204602210122FBF769FF4FF0EB
:104D4000ED0A2046042100228DF803A0FBF760FF46
:104D5000204602210022FBF75BFF0DF103012846EC
:104D600001224FF0FF33FCF739FC204602210122DB
:104D7000FBF74EFF204604210122FBF749FF1B20D1
:104D80008DF80300204602210022FBF741FF0DF1C0
:104D90000301284601224FF0FF33FCF71FFC204699
:104DA00002210122FBF734FF0B208DF8030020467F
:104DB00002210022FBF72CFF0DF1030128460122FE
:104DC0004FF0FF33FCF70AFC204602210122FBF7DB
:104DD0001FFFAE208DF80300204604210022FBF7C0
:104DE00017FF204602210022FBF712FF0DF10301FD
:104DF000284601224FF0FF33FCF7F0FB204602214A
:104E00000122FBF705FF204604210122FBF700FFEA
:104E100077208DF80300204602210022FBF7F8FEE0
:104E20000DF10301284601224FF0FF33FCF7D6FBBA
:104E3000204602210122FBF7EBFECD208DF8030076
:104E4000204604210022FBF7E3FE20460221002237
:104E5000FBF7DEFE0DF10301284601224FF0FF3380
:104E6000FCF7BCFB204602210122FBF7D1FE2046C5
:104E700004210122FBF7CCFE4FF0630920460221FA
:104E800000228DF80390FBF7C3FE0DF103012846C5
:104E900001224FF0FF33FCF7A1FB20460221012243
:104EA000FBF7B6FE2046042100228DF80370FBF7C5
:104EB000AFFE204602210022FBF7AAFE0DF10301FE
:104EC000284601224FF0FF33FCF788FB20460221E1
:104ED0000122FBF79DFE204604210122FBF798FEEC
:104EE00007208DF803002046022100220726FBF749
:104EF0008FFE0DF10301284601224FF0FF33FCF72E
:104F00006DFB204602210122FBF782FE2046022192
:104F100000228DF803600726FBF77AFE0DF10301EE
:104F2000284601224FF0FF33FCF758FB20460221B0
:104F30000122FBF76DFE04208DF8030020460221BC
:104F40000022FBF765FE0DF10301284601224FF018
:104F5000FF33FCF743FB204602210122FBF758FEFA
:104F60000E208DF80300204602210022FBF750FEA0
:104F70000DF10301284601224FF0FF33FCF72EFB11
:104F8000204602210122FBF743FE4FF00F0B204683
:104F9000022100228DF803B0FBF73AFE0DF1030168
:104FA000284601224FF0FF33FCF718FB2046022170
:104FB0000122FBF72DFE09208DF803002046022177
:104FC0000022FBF725FE0DF10301284601224FF0D8
:104FD000FF33FCF703FB204602210122FBF718FEFA
:104FE0002046022100228DF80360FBF711FE0DF12F
:104FF0000301284601224FF0FF33FCF7EFFA204669
:1050000002210122FBF704FE08208DF80300204650
:1050100002210022FBF7FCFD0DF1030128460122CD
:105020004FF0FF33FCF7DAFA204602210122FBF7AA
:10503000EFFD03208DF80300204602210022FBF73C
:10504000E7FD0DF10301284601224FF0FF33FCF785
:10505000C5FA204602210122FBF7DAFDE8208DF88F
:105060000300204604210022FBF7D2FD2046022146
:105070000022FBF7CDFD0DF10301284601224FF080
:10508000FF33FCF7ABFA204602210122FBF7C0FDFB
:10509000204604210122FBF7BBFD34208DF80300DC
:1050A000204602210022FBF7B3FD0DF10301284643
:1050B00001224FF0FF33FCF791FA20460221012232
:1050C000FBF7A6FD62208DF8030020460421002294
:1050D000FBF79EFD204602210022FBF799FD0DF112
:1050E0000301284601224FF0FF33FCF777FA2046F0
:1050F00002210122FBF78CFD204604210122FBF74F
:1051000087FD4FF018082046022100228DF8038009
:10511000FBF77EFD0DF10301284601224FF0FF331E
:10512000FCF75CFA204602210122FBF771FD0D20FD
:105130008DF80300204602210022FBF769FD0DF1E6
:105140000301284601224FF0FF33FCF747FA2046BF
:1051500002210122FBF75CFD71272046022100227B
:105160008DF80370FBF754FD0DF103012846012271
:105170004FF0FF33FCF732FA204602210122FBF701
:1051800047FD2046022100228DF803A0FBF740FDD9
:105190000DF10301284601224FF0FF33FCF71EFA00
:1051A000204602210122FBF733FD70262046022112
:1051B00000228DF80360FBF72BFD0DF1030128465B
:1051C00001224FF0FF33FCF709FA204602210122A9
:1051D000FBF71EFD2046022100228DF80360702699
:1051E000FBF716FD0DF10301284601224FF0FF33B6
:1051F000FCF7F4F9204602210122FBF709FD2046C5
:10520000022100228DF80380FBF702FD0DF103015E
:10521000284601224FF0FF33FCF7E0F92046022137
:105220000122FBF7F5FC2046022100228DF803B095
:10523000FBF7EEFC0DF10301284601224FF0FF338E
:10524000FCF7CCF9204602210122FBF7E1FC2046C5
:10525000022100228DF80370FBF7DAFC0DF1030147
:10526000284601224FF0FF33FCF7B8F9204602210F
:105270000122FBF7CDFCEF208DF803002046022130
:105280000022FBF7C5FC0DF10301284601224FF077
:10529000FF33FCF7A3F9204602210122FBF7B8FCFB
:1052A0002046022100228DF80360FBF7B1FC0DF1CE
:1052B0000301284601224FF0FF33FCF78FF9204607
:1052C00002210122FBF7A4FC2046022100228DF8D6
:1052D0000360FBF79DFC0DF10301284601224FF00E
:1052E000FF33FCF77BF9204602210122FBF790FCFB
:1052F0002046042100228DF80390FBF789FC20460C
:1053000002210022FBF784FC0DF103012846012253
:105310004FF0FF33FCF762F9204602210122FBF730
:1053200077FC204604210122FBF772FC2046022173
:1053300000228DF80380FBF76BFC0DF1030128467A
:1053400001224FF0FF33FCF749F9204602210122E8
:10535000FBF75EFC11208DF803002046022100229D
:10536000FBF756FC0DF10301284601224FF0FF33F5
:10537000FCF734F9204602210122FBF749FC2046C4
:10538000022100228DF80370FBF742FC0DF10301AE
:10539000284601224FF0FF33FCF720F92046022176
:1053A0000122FBF735FCF1208DF803002046022195
:1053B0000022FBF72DFC0DF10301284601224FF0DE
:1053C000FF33FCF70BF9204602210122FBF720FCFA
:1053D0002046022100228DF80360FBF719FC0DF135
:1053E0000301284601224FF0FF33FCF7F7F820466F
:1053F00002210122FBF70CFC2046022100228DF83D
:105400000360FBF705FC0DF10301284601224FF074
:10541000FF33FCF7E3F8204602210122FBF7F8FBFB
:105420002046022100228DF80380FBF7F1FB0DF1ED
:105430000301284601224FF0FF33FCF7CFF8204646
:1054400002210122FBF7E4FB13208DF80300204624
:1054500002210022FBF7DCFB0DF1030128460122AB
:105460004FF0FF33FCF7BAF8204602210122FBF788
:10547000CFFB2046022100228DF80370FBF7C8FB0A
:105480000DF10301284601224FF0FF33FCF7A6F887
:10549000204602210122FBF7BBFBF3208DF803001D
:1054A000204602210022FBF7B3FB0DF10301284641
:1054B00001224FF0FF33FCF791F820460221012230
:1054C000FBF7A6FB2046022100228DF80360FBF7C4
:1054D0009FFB0DF10301284601224FF0FF33FCF73B
:1054E0007DF8204602210122FBF792FB2046022193
:1054F00000228DF80360FBF78BFB0DF103012846BA
:1055000001224FF0FF33FCF769F820460221012207
:10551000FBF77EFB64208DF8030020460421002267
:10552000FBF776FB204602210022FBF771FB0DF111
:105530000301284601224FF0FF33FCF74FF82046C5
:1055400002210122FBF764FB204604210122FBF724
:105550005FFB28208DF80300204602210022FBF784
:1055600057FB0DF10301284601224FF0FF33FCF7F2
:1055700035F8204602210122FBF74AFB29208DF84D
:105580000300204602210022FBF742FB0DF103013C
:10559000284601224FF0FF33FCF720F82046022175
:1055A0000122FBF735FBF1262046022100228DF86F
:1055B0000360FBF72DFB0DF10301284601224FF09C
:1055C000FF33FCF70BF8204602210122FBF720FBFA
:1055D0004FF0010A2046022100228DF803A0FBF7BC
:1055E00017FB0DF10301284601224FF0FF33FBF7B3
:1055F000F5FF204602210122FBF70AFB204602218B
:1056000000228DF80360FBF703FB0DF10301284630
:1056100001224FF0FF33FBF7E1FF20460221012278
:10562000FBF7F6FA00262046022100228DF80360DF
:10563000FBF7EEFA0DF10301284601224FF0FF338C
:10564000FBF7CCFF204602210122FBF7E1FA0720FD
:105650008DF80300204602210022FBF7D9FA0DF154
:105660000301284601224FF0FF33FBF7B7FF204626
:1056700002210122FBF7CCFA66208DF803002046B8
:1056800004210022FBF7C4FA204602210022FBF786
:10569000BFFA0DF10301284601224FF0FF33FBF75B
:1056A0009DFF204602210122FBF7B2FA2046042189
:1056B0000122FBF7ADFA4FF03C09204602210022FF
:1056C0008DF80390FBF7A4FA0DF10301284601229F
:1056D0004FF0FF33FBF782FF204602210122FBF748
:1056E00097FA2046022100228DF803600026FBF77E
:1056F0008FFA0DF10301284601224FF0FF33FBF72B
:105700006DFF204602210122FBF782FACD208DF8A1
:105710000300204602210022FBF77AFA0DF1030173
:10572000284601224FF0FF33FBF758FF20460221A5
:105730000122FBF76DFA4FF0670820460221002294
:105740008DF80380FBF764FA0DF10301284601226E
:105750004FF0FF33FBF742FF204602210122FBF707
:1057600057FA45272046022100228DF80370FBF7E7
:105770004FFA0DF10301284601224FF0FF33FBF7EA
:105780002DFF204602210122FBF742FA204602218A
:1057900000228DF80370FBF73BFA0DF10301284658
:1057A00001224FF0FF33FBF719FF204602210122AF
:1057B000FBF72EFA4FF0100B2046022100228DF845
:1057C00003B0FBF725FA0DF10301284601224FF043
:1057D000FF33FBF703FF204602210122FBF718FAF3
:1057E0002046022100228DF80360FBF711FA0DF12B
:1057F0000301284601224FF0FF33FBF7EFFE20465E
:1058000002210122FBF704FA2046022100228DF832
:105810000360FBF7FDF90DF10301284601224FF06B
:10582000FF33FBF7DBFE204602210122FBF7F0F9F4
:105830002046022100228DF80360FBF7E9F90DF103
:105840000301284601224FF0FF33FBF7C7FE204635
:1058500002210122FBF7DCF92046042100228DF809
:105860000380FBF7D5F9204602210022FBF7D0F98F
:105870000DF10301284601224FF0FF33FBF7AEFE86
:10588000204602210122FBF7C3F920460421012210
:10589000FBF7BEF92046022100228DF80360FBF7DA
:1058A000B7F90DF10301284601224FF0FF33FBF752
:1058B00095FE204602210122FBF7AAF9204602218B
:1058C00000228DF80390FBF7A3F90DF103012846A0
:1058D00001224FF0FF33FBF781FE20460221012217
:1058E000FBF796F92046022100228DF80360FBF7B2
:1058F0008FF90DF10301284601224FF0FF33FBF72A
:105900006DFE204602210122FBF782F9204602218A
:1059100000228DF80360FBF77BF90DF103012846A7
:1059200001224FF0FF33FBF759FE204602210122EE
:10593000FBF76EF92046022100228DF80360FBF789
:1059400067F90DF10301284601224FF0FF33FBF701
:1059500045FE204602210122FBF75AF9204602218A
:1059600000228DF803A0FBF753F90DF1030128463F
:1059700001224FF0FF33FBF731FE204602210122C6
:10598000FBF746F954208DF803002046022100223F
:10599000FBF73EF90DF10301284601224FF0FF33DA
:1059A000FBF71CFE204602210122FBF731F92046BD
:1059B000022100228DF803B01027FBF729F90DF121
:1059C0000301284601224FF0FF33FBF707FE204674
:1059D00002210122FBF71CF932208DF8030020463A
:1059E00002210022FBF714F90DF1030128460122E0
:1059F0004FF0FF33FBF7F2FD204602210122FBF7B7
:105A000007F94FF098092046022100228DF80390F3
:105A1000FBF7FEF80DF10301284601224FF0FF339A
:105A2000FBF7DCFD204602210122FBF7F1F8742090
:105A30008DF80300204604210022FBF7E9F82046F8
:105A400002210022FBF7E4F80DF1030128460122B0
:105A50004FF0FF33FBF7C2FD204602210122FBF786
:105A6000D7F8204604210122FBF7D2F82046022174
:105A700000228DF80370FBF7CBF80DF103012846E7
:105A800001224FF0FF33FBF7A9FD2046022101223E
:105A9000FBF7BEF885208DF8030020460221002286
:105AA000FBF7B6F80DF10301284601224FF0FF3352
:105AB000FBF794FD204602210122FBF7A9F8802084
:105AC0008DF80300204602210022FBF7A1F80DF11A
:105AD0000301284601224FF0FF33FBF77FFD2046EC
