:020000040800F2
:10000000B819002079020008D546000855390008C3
:10001000E142000859140008ED72000800000000D9
:10002000000000000000000000000000D572000881
:100030006914000800000000C1710008D9720008AE
:10004000930200089302000893020008930200083C
:10005000930200089302000893020008930200082C
:100060009302000893020008930200085D14000840
:10007000930200089302000893020008930200080C
:1000800093020008930200089302000893020008FC
:1000900093020008930200089302000893020008EC
:1000A00093020008930200089302000893020008DC
:1000B000E17200089302000893020008930200080E
:1000C00093020008930200089302000893020008BC
:1000D00093020008930200089302000893020008AC
:1000E000930200089302000893020008930200089C
:1000F000930200089302000893020008930200088C
:10010000930200089302000893020008930200087B
:10011000930200089302000893020008930200086B
:10012000930200089302000893020008930200085B
:1001300000F002F800F090F80AA090E8000C824469
:100140008344AAF10107DA4501D100F085F8AFF246
:10015000090EBAE80F0013F0010F18BFFB1A43F0A5
:1001600001031847A4A20000C4A20000103A24BF53
:1001700078C878C1FAD8520724BF30C830C144BF0C
:1001800004680C607047000000230024002500264E
:10019000103A28BF78C1FBD8520728BF30C148BFEA
:1001A0000B6070476E2900F08B81702900F0CD82C2
:1001B000662909F04A87652909F04787672909F008
:1001C0004487612909F0438703681B0A28BF41F06F
:1001D0008001692900F03881642900F03581752992
:1001E00000F032816F2900F05B82782900F099825B
:1001F000E92900F0F581E42900F0F281F52900F009
:10020000EF81EF2900F05882F82900F09882036806
:10021000DB0928BF41F08001632900F09D87732925
:1002200000F0A287E32900F0AD87F32900F0B28740
:10023000002070471FB501F007F8040000200021DE
:1002400008F06EFC401C60600020002108F052FCA9
:10025000E0601FBD10B510BD00F0C8FF1146FFF7EC
:10026000E9FF07F045F801F0A5F803B4FFF7F2FF46
:1002700003BC01F0E9F8000009488047094800473D
:10028000FEE7FEE7FEE7FEE7FEE7FEE7FEE7FEE746
:10029000FEE7FEE704480549054A064B70470000A3
:1002A000DD72000831010008B8130020B8190020E1
:1002B000B8150020B81500201CB50C46064B7B4431
:1002C00069460090204600F014F904460020694673
:1002D00000F022F920461CBD5702000010B5431C57
:1002E00002E010F8011B71B18107FAD14FF0013221
:1002F00002C88C1A8C4314EAC211F9D0C01A0A063B
:1003000003D0C01E10BDC01A10BD0A0401D0801E4B
:1003100010BD0902FCD0401E10BD4FF0000200B518
:10032000134694469646203922BFA0E80C50A0E818
:100330000C50B1F12001BFF4F7AF090728BFA0E8C6
:100340000C5048BF0CC05DF804EB890028BF40F892
:10035000042B08BF704748BF20F8022B11F0804FD4
:1003600018BF00F8012B704770477047704710B5F1
:1003700000F0BAFA006810BD10B5044600F0B4FAF7
:10038000046010BD70B5044685690068C10601D5DA
:10039000302600E02026C00707D070BDD4E9012137
:1003A00030469047206A401C20626D1EF6D570BD15
:1003B00070B5044685690078C00707D170BDD4E9DF
:1003C000012120209047206A401C20626D1EF6D536
:1003D00070BD09684A0501D540B27047C905FCD512
:1003E00000B2704709684A0501D5C0B27047C90517
:1003F000FCD580B2704770B50C460546012A05D081
:100400002878800600D5EA69002302E0012305E090
:100410005B1C934202D2E05C0028F9D1A869E6187F
:10042000C01AA861286A184428622846FFF7AAFF64
:1004300004E0D5E9012114F8010B9047B442F8D348
:100440002846FFF7B5FF70BD2DE9F04106460024B0
:1004500010687529314616A510D0FFF7BAFF00289D
:1004600002DA404213A507E031688A0701D512A5D8
:1004700002E0490704D511A5012401E0FFF7B2FF0E
:1004800000210A2206F1240709E0B0FBF2FCB0FBD0
:10049000F2F302FB1C00303078541846491C002847
:1004A000F3D123462A463046BDE8F04100F065BA54
:1004B000000000002D0000002B00000020000000C4
:1004C00011680268006A530501D508700AE0D30577
:1004D00001D5088006E0130603D5C217C1E9000262
:1004E00000E008600120704701694A1C0261087839
:1004F000704700B58FB0CDE9013100210591054964
:100500007944CDE903101146684600F029F90FB08F
:1005100000BD0000E5FFFFFF0A6802F8010B0A605A
:10052000704700002DE9FF5F15468A460446DFF854
:10053000AC80F8440027D8E900103E46CDE9001011
:1005400010E03AF816106A4602A800F027FE411C97
:1005500007D02178890603D5E269391891420DD870
:100560000744761C2078800602D5E069B84205DD94
:10057000AE42E6DB3AF816000028E2D1A069C01BC3
:10058000A0612046FFF7FEFED8E90010CDE900107B
:10059000002017E03AF818106A4602A800F0FEFDA5
:1005A000B0F1FF3F81460BD000250DF1080B05E0AF
:1005B000D4E901211BF8050090476D1C4D45F7D388
:1005C00008F10100B0428046E4DB206A3844206232
:1005D0002046FFF7EDFEBDE8FF9F00005A9C00009B
:1005E0002DE9F0418046D21D22F007020025D2E914
:1005F0000002F52915A614D0011E72F1000106DAD9
:100600000023D0EB030063EB020211A608E0D8F848
:1006100000108B0701D50FA602E0490701D50EA6F1
:1006200001251146002408F1240704E000F060F9D8
:1006300030323A55641C50EA0102F7D12B4632465B
:1006400021464046BDE8F04100F097B900000000A7
:100650002D0000002B0000002000000030B400211D
:1006600000F1240408E002F00705D208303542EA20
:100670004372DB086554491C52EA0305F3D1046850
:10068000002310A2250708D504F020040C4304D051
:10069000C46901230CA2641EC46130BC00F06DB9B2
:1006A00010B5044621461068FFF79CFE024620461E
:1006B000BDE810400023D1E7D21D22F00701D1E9A7
:1006C0000023CBE70000000030000000F0B40D462E
:1006D0000188090502D5214C7C4402E01F4C7C4472
:1006E0000E34002100F1240608E002F00F07120981
:1006F000E75D42EA03721B097754491C52EA03077B
:10070000F3D102780023120704D5702D06D009B169
:10071000022311342246F0BC00F02FB9012310341B
:10072000F8E770B504460D4621461068FFF75AFEFB
:10073000024629462046BDE870400023C6E7D21D88
:1007400022F00703D3E90023C0E70368126843F0EF
:10075000200303600823C3610023B7E7BC9A0000AD
:100760002DE9F05F894604464FF0000ADFF874B1C6
:10077000FB44C0F820A02046E1688847002874D0D8
:10078000252806D0D4E901219047206A401C206228
:10079000F1E700265F462046E168884720280546A5
:1007A00007DB312D05D2781910F8200C08B106436B
:1007B000F1E7B00701D526F00406C4F81CA0002715
:1007C000C4F818A02A2D09D0284607F0EFFD38B349
:1007D00004EB8708303DC8F8185019E059F8041B9D
:1007E000204604EB87029161E1688847012F0546A6
:1007F00018D1E069002820DA26F020061DE0D8F89C
:10080000180000EB800005EB40003038C8F81800F5
:100810002046E1688847054607F0C8FD0028EED16C
:10082000012F0AD02E2D08D12046E16888477F1C71
:100830000546022F46F02006C4DBA069002803DA33
:10084000404246F00106A061F00701D026F01006F4
:100850006C2D0BD0682D09D04C2D39D06A2D35D098
:10086000742D35D07A2D33D016E038E0E1682F466C
:1008700020468847B842054609D16C2F26D04FF450
:100880008060E168064320468847054604E06C2FF7
:100890001AD04FF4807006430DB3A5F1410019281A
:1008A00002D8203546F400664A462946204626608E
:1008B0004E46FFF777FC80B101280BD0F61D26F0DD
:1008C000070000F1080956E74020E4E78020D8E758
:1008D0000020D6E706F104094DE7284652E7206AD2
:1008E000BDE8F09F4C9A00000048704710000020BF
:1008F00030B5B0F10A0271F100034FEA900E4EEAF2
:10090000817EB0EB0E0061EB91014FEA101E4EEAC2
:10091000017E10EB0E0041EB11114FEA102E4EEA52
:10092000016E10EB0E0041EB11214FEA104E4EEA22
:10093000014E10EB0E0041EB1141401841F1000156
:100940004FEAD00040EA41704FEAD1014FEA8104FA
:1009500044EA907410EB800544EB01046D1944EBFC
:100960000404521BA3414FF0000348BF0A3200D5D4
:1009700030BD401C41F1000130BD2DE9F0470D466E
:1009800099469246044600F124080168880604D579
:10099000E06921F01001216000E00120A84201DDA2
:1009A000471B00E00027A1697A1902EB0900081A29
:1009B000A0612078C00602D42046FFF7E3FC0026A1
:1009C00008E0D4E901211AF806009047206A401C8B
:1009D000761C20624E45F4DB2078C0060AD52046FE
:1009E000FFF7D0FC06E0D4E9012130209047206ACF
:1009F000401C2062381EA7F10107F4DC07E0D4E9AF
:100A0000012118F805009047206A401C2062281E2A
:100A1000A5F10105F3DC2046FFF7CAFC20780006AB
:100A200002D50220BDE8F0870120FBE72DE9FF4F4A
:100A30000C461E464FF0FF378BB0D2E90001DDF8BF
:100A400060800A908A46C1F30A5505B93D460021E7
:100A500008464FF00000BAF1000F00F4400005DA3C
:100A600000EB80004FF4400101EA50004FEA90593A
:100A7000B9F1010F00DDB9460A9850EA4A000ED0DC
:100A800044F61050A5F2FF3545432F14B8F1000F7E
:100A90001ED07542291E1EDDC9F100021CE0B8F10E
:100AA000010F4FF0000001D0302103E0F24305E0D8
:100AB0002154401CB042FBDB30460022002121546F
:100AC0000B99C1F80880C1E900200FB0BDE8F08F94
:100AD000BD1B6D1CDEE74A4600DA694206A800F03D
:100AE000F7FB06AB93E8070003AB83E8070050462B
:100AF0000A9906F08AFC8DE80700A0F500501F381F
:100B000000900398002D0ADD42F21F014A46084476
:100B1000002303A90390684606F0F4FE09E0A0F55F
:100B200000504A461F38002303A90390684606F088
:100B3000FEFE8DE807000004000C03D04FF0FF30EC
:100B4000410800E01046B8F1000F03D000220092E7
:100B500015461EE0751E05D4FFF7CAFE30326255F9
:100B60006D1EF9D5B3460122084302D000227F1C36
:100B700004E02078302801D100227F1E002A099746
:100B800084D01DE0112D07DAFFF7B2FE3032625536
:100B90006D1C50EA0102F5D1084302D00098C8B19B
:100BA0000EE00021681E05E0235C625C6354225461
:100BB000401E491C8142F7DBAB46A81B401E099032
:100BC000002004F80B000B98099AC0F80880C0E9CF
:100BD000002B7AE711264FF0000857E72DE9F04F78
:100BE00088460446D21D22F0070191B0D1E90001E8
:100BF000CDE90A0106F0D2FF02460B98C00F01D0E2
:100C00002D2007E02068810701D52B2002E020215C
:100C100001EAC000032A099001D0072A05DB034638
:100C20004146204600F014FB0BE12078800601D5F8
:100C3000E06900E00620B8F1650F814606D0B8F102
:100C4000660F18D0B8F1670F70D131E00020B9F10C
:100C5000110F009001DB112301E009F101030AAA41
:100C600001A90CA8FFF7E2FEDDE90C70002609F1EE
:100C70000105834647E001204B4600904FF00047B6
:100C80000AAA01A90CA8FFF7D1FEDDE90DB00C9965
:100C90005D46002610B909F101000D18B9EB0500F9
:100CA00003D4C0F1FF3609F10105A5EB09002BE0E3
:100CB000B9F1010F01DA4FF001090020B9F1110F6C
:100CC0000090484601DD112300E003460AAA01A96D
:100CD0000CA8FFF7ABFEDDE90C704D4600268346FD
:100CE000207800070AD4AB4500DA5D4601A8012D43
:100CF00004DD411911F8011C302907D04F4502DAF3
:100D000017F1040F04DA012082460FE06D1EEEE7B2
:100D1000002F02DCED1B3E4403E0781CA84200DDFE
:100D20007D1CB81B00F1010A4FF000472078000736
:100D300003D4AA4501DB4FF0FF3A0021B7F1004F81
:100D40000DF143088DF8431024D002202B23002FEF
:100D500001DA7F422D230A21021EA0F1010000DCEE
:100D60005FB197FBF1FC97FBF1F201FB1C7C17468E
:100D70000CF1300C08F801CDEEE7A8F1010003708A
:100D80002188090501D5452100E06521A0F1010870
:100D900000F8011C09980FA9A1EB0807FF1D00B17D
:100DA0000120411901EBEA70A1693844081A401E7C
:100DB000A0612078C00602D42046FFF7E3FA099824
:100DC00028B1D4E901219047206A401C2062207894
:100DD000C00622D52046FFF7D5FA1EE0002E04DB20
:100DE000B34502DD01A8805D00E03020D4E9012197
:100DF0009047206A401C2062761CAAF101005FEA3D
:100E0000000A0AD100F020FAC0680168405CD4E909
:100E100001219047206A401C2062281EA5F101058F
:100E2000DCDC07E0D4E9012118F8010B9047206AC7
:100E3000401C2062381EA7F10107F3DC2046FFF7B3
:100E4000B7FA032011B041E62DE9F04F04460D46F4
:100E5000D21D22F0070089B0D0E9009748463946F4
:100E600006F09CFE0246F80F01D02D2307E0206813
:100E7000810701D52B2302E0202101EAC0038DF870
:100E800020300BB1012000E00020032A824601D06F
:100E9000072A04DB2946204600F0DAF93FE12078F2
:100EA000800601D40D2500E0E569C7F30A560D2D33
:100EB00049DA00214FEA175B08464FF00000002F87
:100EC00000F4400007DA00EB80004FF4400100EB33
:100ED000D07001EA60008115012901DD4FF0FF317A
:100EE00000224FEA850CBCF1180F06D31346ACF173
:100EF00018004FF08052C24003E04FF4801323FAF1
:100F00000CF30CF10C0CBCF1200F04D3ACF1200C51
:100F100009FA0CF001E007FA0CF000294FF0004844
:100F200001DD18B90FE00ED140450CD319EB0209D1
:100F30005F4121B9404502D19F4329EA0209BBEB39
:100F4000175F00D0761C2088000502D57B487844C6
:100F500002E07A487844193808AA302302F80A30A7
:100F6000037C0AF10101002E0AF1020A53546A4679
:100F700002DC4FF0300101E04FF031014FF0010889
:100F80008DF8001002D0A6F2FF3603E059EA4701BF
:100F900000D06B4E002D02DC2178090704D54FF0FC
:100FA00002082E218DF80110C44600210BE0C7F382
:100FB00003433F01C35C491C6D1E02F8083005293C
:100FC00008F1010801DA002DF1DC00210CE000EB52
:100FD0001973491C1B786D1E082902F808304FEA66
:100FE000091908F1010801DA002DF0DC21688B06EF
:100FF00002D516E0A8F10108E04505DD02EB080383
:1010000013F8013C302BF5D0B8F1000F09DD02EBED
:10101000080313F8013C2E2B03D1090701D4A8F1D2
:101020000108002D05DD3E2102F808106D1E08F1B3
:101030000108407C002E02F8080008F1010804DADB
:101040002D20764202F8080002E02B2002F808006A
:101050000A214FF47A70864208F101080BDB96FBF7
:10106000F0F3303302F8083096FBF0F308F1010892
:1010700000FB136601E0642E0CDB642096FBF0F3AA
:10108000303302F8083096FBF0F308F1010800FB5A
:10109000136601E00A2E06DB96FBF1F0303002F811
:1010A000080008F1010896FBF1F001FB10603030F8
:1010B00002F80800A16908F1010808EB050202EB3B
:1010C0000A00081AA0612078C00602D42046FFF763
:1010D00059F9216A08AE01EB0A00206204E0D4E964
:1010E000012116F8010B9047BAF1010AF7D22078D6
:1010F000C00602D52046FFF745F96E4609E016F80E
:10110000010B3E280FD0D4E901219047206A401CF2
:101110002062B8F10108F2D22046FFF749F909B080
:101120000320BDE8F08F206A2844206203E0D4E960
:101130000121302090476D1EEBD3F8E7E1930000CA
:1011400002FCFFFF10B5436913B1AFF3008001E06B
:10115000FFF751F9012010BD127800F124010A7047
:1011600000224A700122EDE711684FF0FF32E9E7F3
:1011700010B5436913B1AFF3008001E0FFF7D2F976
:10118000012010BD128800F1240182840022C28453
:101190000122EDE711684FF0FF32E9E72DE9F04158
:1011A00016460C46054600F047F8036893F801011F
:1011B000012807D0FF2C12D8185D80B101202C70B7
:1011C000BDE8F081D3F807013246214603F2071348
:1011D000C7182846BC46BDE8F041002360474FF0E1
:1011E000FF30EDE700487047100000207546FFF71C
:1011F000F9FFAE4605006946534620F007008546D4
:1012000018B020B5FFF746F8BDE820404FF00006C3
:101210004FF000074FF000084FF0000BAC46ACE871
:10122000C009ACE8C009ACE8C009ACE8C00921F0CD
:1012300007018D467047000010B500F005F8001D4D
:1012400010BD00BFDD78000000487047300000206E
:101250002DE9F0411F46044603260168072A01F4E0
:10126000006004DB08B116A505E016A503E008B18F
:1012700015A500E015A521F010002060A069C01E92
:10128000A0610FB1401EA0612046FFF77BF84FB16F
:10129000D4E9012138469047206A401C2062C01CD6
:1012A000206206E0206AFAE7D4E9012115F8010B73
:1012B0009047761EF8D22046FFF77AF8BDE8F08115
:1012C0004E414E006E616E00494E4600696E6600EA
:1012D0002DE9F047814616468AB0354878440DC856
:1012E0008DE80D0032487844801C03AC0DC884E8BA
:1012F0000D0041F69B300844372190FBF1F290FB42
:10130000F1F5A5F1800501FB12041B3C02D56442F6
:10131000012000E00020DFF898A080460027FA4472
:10132000AAF1BE0A0EE0E0070AD03246684607EB93
:10133000470101230AEB810106F0F9FA8DE8070065
:1013400064107F1C002CEED1194F7F44AE3F19E092
:10135000E80715D007EB04100DF1180A90E80E000D
:101360008AE80E00C068F04201D198190890324610
:10137000012306A903A806F0DAFA03AB83E8070005
:101380006D10641C002DE3D14FF001033246694615
:10139000B8F1000F03A802D006F0B4FA01E006F09D
:1013A000C6FAC9E90001C9F808200AB0BDE8F0870B
:1013B000E490000010B50446AFF300802046BDE87D
:1013C0001040FEF752BF00004FF0013C50F8042BD4
:1013D00051F8043B9A4221D1A2EB0C03934313EA48
:1013E000CC1317D150F8042B51F8043B9A4215D175
:1013F000A2EB0C03934313EACC130BD150F8042B4C
:1014000051F8043B9A4209D1A2EB0C03934313EA2F
:10141000CC13DBD04FF00000704700BFD01A01BAE8
:10142000B1FA81F101F0180122FA01F0CB40DBB2F0
:10143000C0B2C01AC1F120012CFA01F3D11A9143B4
:1014400011EAC311E6D1704701491820ABBEFEE78F
:101450002600020070470000FEE7000041F2E8109D
:10146000C2F2000000F0DCB970470000EFF310801A
:1014700072B600BFFEE7000010B581B000220092F6
:1014800090F82420012A03D10221084601B010BDA2
:101490004B680122062B80F8242015D8026803EB44
:1014A0008303A3F1050E1F23D2F834C003FA0EF410
:1014B0000B682CEA040C03FA0EF444EA0C0454639F
:1014C000092B17D937E000BF02680C2B20D803EB9B
:1014D0008303A3F123041F23D2F830C003FA04FED0
:1014E0000B682CEA0E0C03FA04F444EA0C041463AF
:1014F000092B20D8D2F810C003EB430307248968D6
:101500009C402CEA0404994021431161002136E0FB
:1015100003EB8303A3F141041F23D2F82CC003FA89
:1015200004FE0B682CEA0E0C03FA04F444EA0C04E3
:10153000D462092BDED903EB4304D2F80CC0A4F12A
:101540001E0E0724896804FA0EF42CEA040401FA3A
:101550000EF1214323F00104102CD1600ED142F290
:101560000841C4F20101A1F10804A2420ED0816A2F
:1015700041F020018162012101E000BF0021002231
:1015800080F82420084601B010BD00BF0A6812028E
:1015900030D40A68102B42F400020A602CD140F2C9
:1015A0000801C2F2000109684DF68362C4F21B32E1
:1015B000A1FB0212910C01EB8101490000910099FD
:1015C000E1B10099013900910099C9B1009901393F
:1015D00000910099B1B1009901390091009999B138
:1015E000009901390091009900294FF00001E8D1DC
:1015F000C5E700BF0021C2E70021C0E70021BEE728
:101600000021BCE70021BAE70021B8E7B0B5002807
:1016100000F0B2800446806A20B121688868C00763
:101620000BD114E00020E06284F82400204600F092
:10163000A5F821688868C00709D0886820F00100F3
:10164000886000F09DFB21688A68D20730D1A06ACB
:10165000C00644D4A06A41F2021290430230A06254
:10166000E36981F0804080F49E3083F4402210438F
:1016700008BF4FF40023D4E9010243EA000C531ED3
:10168000B3FA83F35D091346B2F5807F18BF2B02CE
:10169000207D257B01284CEA450030D135B3A56A71
:1016A00045F02005A562E56A45F00105E56226E002
:1016B000054602E08868C007C9D000F061FB401B06
:1016C00021680328F6D38868C007F3D0A06A40F0E9
:1016D0001000A062E06A40F00100E062A06AA06A27
:1016E00040F01000A0620120B0BD00BFD4F818C0C7
:1016F0004EF60005CFF6FF7505EB4C352B434D68D4
:10170000B2F5807F25F4694543EA05034B608B6899
:101710004FF2FD75CFF6E17503EA050343EA0003D6
:101720008B6001D0012A07D122690023CFF6F07324
:1017300003EB025201E000BF0022CB6A23F47003E6
:101740001A43CA62896840F6FE62CFF61F721140E2
:10175000814207D10020E062A16A012262F3010107
:10176000A162B0BDA06A40F0100020F00200A062AB
:10177000E06A40F00100E0620120B0BD70B586B0C3
:10178000044640F60000C4F20100216800F5E05272
:10179000002691420596049602D006B070BD00BFA7
:1017A00041F21801C4F202010A6842F400720A60B0
:1017B0000A6802F400720192019A0A6842F0040277
:1017C0000A60096801F00401019101990121029167
:1017D0000321039102A900F0CBF941F2E81508209A
:1017E000C2F20005C4F202004FF48072C5E900069F
:1017F00005F1100080214FF480634FF0200C80E849
:101800000C102846C5E90261EE6100F055F9002888
:1018100018BFFFF72BFE25626C6206B070BD00009A
:1018200010B5D0E90FE3D0F800C0DEF80020DCF8F6
:101830000010DA4054072DD511F004042AD0DCF84A
:101840000010890605D4DCF8001021F00401CCF862
:1018500000100422C4F2020202F17C018C454DD931
:1018600040F20841C4F202018C4500F0AF8040F222
:101870001C41C4F202018C4500F0AC8040F23041C2
:10188000C4F202018C4540F0A9804FF48061C2F897
:101890000014F7E0940747D511F0020444D0DCF8B7
:1018A0000010890608D4DCF8001021F00A01CCF8F9
:1018B0000010012180F821100422C4F2020202F17A
:1018C0007C018C454CD940F20841C4F202018C45A0
:1018D00000F0B48040F21C41C4F202018C4500F0DB
:1018E000B18040F23041C4F202018C4540F0AE803C
:1018F0004FF40071C2F80014D6E000BF4321C4F2D7
:1019000002018C4542DD6B21C4F202018C454FDCA3
:101910004421C4F202018C4500F0A4805821C4F295
:1019200002018C4566E000BF120740F1C38011F050
:10193000080108BF10BDDCF8001021F00E01CCF842
:101940000010012101FA03F2CEF804208163016B3B
:101950004FF480720029028440F09680AAE000BF14
:101960004321C4F202018C4548DD6B21C4F202011F
:101970008C4555DC4421C4F202018C4500F088807E
:101980005821C4F202018C4576E000BF0821C4F260
:1019900002018C456AD01C21C4F202018C456FD033
:1019A0003021C4F202018C4524D14FF4806168E0FB
:1019B0006C21C4F202018C455AD08021C4F202018C
:1019C0008C4517D14FF080615BE000BF0421C2F865
:1019D000001457E04021C2F8001453E002F5886378
:1019E0004FF480219C4508BF4FF48041C2F8001499
:1019F00048E000BF4FF4802143E000BF0821C4F25B
:101A000002018C4548D01C21C4F202018C4549D00A
:101A10003021C4F202018C452ED14FF4007142E016
:101A20006C21C4F202018C4538D08021C4F202013D
:101A30008C4521D14FF0007135E000BF0221C2F882
:101A4000001431E02021C2F800142DE002F5886373
:101A50004FF400319C4508BF4FF40051C2F8001408
:101A600022E000BF4FF480410BE000BF042108E0FA
:101A70004FF4800105E000BF4FF4003113E000BFD8
:101A800040211160C16AA9B1BDE81040084700BFFC
:101A90004FF4005107E000BF022104E04FF40011B1
:101AA00001E000BF20211160816A0022002980F836
:101AB0002020E9D110BD0000002804BF012070479C
:101AC0002DE9F04140F2000CC4F2020C01684FF61F
:101AD000F8320CF58163CBF6FD72994238BF02F5FE
:101AE00080624CF6CD430A44CCF6CC43A2FB0323E0
:101AF0006FF003050CF5806405EA9303D0E9012E2D
:101B0000D0F80C803CBF0024C4F20204C0E90F43AB
:101B10000B6843F6F075AB431A43D0E9045442EA2C
:101B20000E0242EA0802D0E906672A432243324302
:101B30003A430A6000214FF4807281630284BDE859
:101B4000F041084670470000B0B5044600F018F9AF
:101B5000054640F20000C2F200000078611C18BF88
:101B6000044400BF00F00CF9401BA042FAD3B0BD02
:101B70002DE9F04F83B041F60043C4F201030E6833
:101B800006229842019008BF0522002E009200F024
:101B9000ED80019840F20C45A0F18043A3F5843319
:101BA0004FEAB32740F200404FF6FF73C4F201053D
:101BB000C4F20100009A4FF0000E4FF0010CC1F288
:101BC00010034FF0000A4FF0000B4FF00F08052FE5
:101BD00038BF3A46009208E00E680AF1010A36FA68
:101BE0000AF20EF1040E00F0C1800CFA0AF916EAAE
:101BF000090FF1D04E689E4212DC122E56D8DFE853
:101C000006F0350B454955555555555555555555BE
:101C10005555554D510000BFD1F80CB046E000BFFE
:101C20004FF6FF72C1F2210296420FDC0022C1F290
:101C3000110296421AD00022C1F21202964215D029
:101C40000022C1F22102964210D02FE00022C1F200
:101C5000220296420AD00022C1F23102964205D0F9
:101C60000022C1F23202964220D100BF8E684EB1EE
:101C7000012E019A14BFC2F81490C2F810904FF0D0
:101C8000080B13E04FF0040B10E000BFCF6807F122
:101C9000080B0BE04FF0000B08E000BFCF6807F126
:101CA000040B03E0CF6807F10C0B00BF7446BAF1D8
:101CB000080F28BF203C019F28BF04373E6808FA60
:101CC00004F226EA02020BFA04F632433A60CA79B9
:101CD000D2067FF581AF41F21807C4F202073A68D5
:101CE0004FF6084C42F001023A603A68CFF6FF7CAA
:101CF00002F001020292029A2AF00302024452F810
:101D00000C700EF00C0608FA06F4A743009C04FAC7
:101D100006F6374342F80C70D1F804C05FEACC32C3
:101D2000026854BF22EA090642EA09065FEA8C32D9
:101D30000660426854BF22EA090642EA09065FEAE1
:101D4000CC224660826854BF22EA090642EA0906AC
:101D50005FEA8C2286604FF0010C2A6854BF22EAA9
:101D6000090642EA09062E6036E700BF03B0BDE867
:101D7000F08F0000002A08BF0904016170470000CD
:101D800041F2B030C2F200000068704740F200003B
:101D900041F2B031C2F20000C2F2000100780A68DC
:101DA000104408607047000080B542F20000C4F2A1
:101DB0000200016841F010010160032000F082F888
:101DC0000F2000F005F800F027F8002080BD00008B
:101DD00070B540F20006C2F2000640F20801327807
:101DE000C2F200014FF47A730968B3FBF2F20446C1
:101DF000B1FBF2F1084600F0E1FE0F2C4FF00105B7
:101E000008D838B94FF0FF3021460022002500F0F5
:101E10002DF87460284670BD82B041F21800C4F2FB
:101E20000200016841F001010160016801F0010157
:101E300001910199416841F080514160406800F092
:101E400080500090009802B070470000002848BF02
:101E5000704700F01F01012202FA01F14EF2001258
:101E60004009CEF2000242F82010704710B54EF63D
:101E70000C5CCEF2000CDCF80030C3F3022E8EF0C6
:101E80000704042C28BF0424BEF103034FF0FF3ED7
:101E90000EFA04F438BF0023A14399400EFA03F36D
:101EA0009A43114300F00F02043A624409010C32D4
:101EB00000F16043B0F1FF3FC8BF03F56442117009
:101EC00010BD00004EF60C51CEF200010A684FF62C
:101ED000FF031A4060F30A2242F0806040F0FD7078
:101EE000086070472DE9F04182B00446007841F265
:101EF0001C06C007C4F202064AD0306810F08058B1
:101F000008D1306840F080503060306800F0805078
:101F10000190019847F20007C4F200073868C00535
:101F200012D4386840F480703860FFF729FF054606
:101F30003868C00508D4FFF723FF401B6428F7D991
:101F4000032002B0BDE8F081706810F4407012D038
:101F5000616801F4407188420DD0706840F24042DF
:101F6000C4F24222012320F4407113600023C00711
:101F7000136071602AD17068616820F44070084372
:101F8000B8F1000F706003D1306820F080503060ED
:101F90002068810707D556F8181CA26821F4404133
:101FA000114346F8181CC00604D4002002B0BDE856
:101FB000F08100BF56F8180C616920F480000843D6
:101FC00046F8180C002002B0BDE8F081FFF7D8FEFB
:101FD000054641F2883700BF70688007CBD4FFF711
:101FE000CFFE401BB8424FF00300F5D9EBE70000ED
:101FF0002DE9F04381B0002800F0858042F200080E
:10200000C4F202080446D8F800000D4600F00700AC
:1020100088420CD2D8F8000020F007002843C8F806
:102020000000D8F8000000F00700A8426BD120683B
:1020300041F204098107C4F2020917D5410705D509
:10204000D9F8001041F4E061C9F80010010705D586
:10205000D9F8001041F46051C9F80010D9F8001007
:10206000A26821F0F0011143C9F80010C00741D166
:10207000D8F8000000F00700A8420CD9D8F80000FA
:1020800020F007002843C8F80000D8F8000000F04E
:102090000700A84237D12068410707D5D9F80010BA
:1020A000E26821F4E0611143C9F80010000708D587
:1020B000D9F80000216920F4605040EAC100C9F855
:1020C0000000D9F8002002F00C00082841F200209E
:1020D000C0F27A0050D14AF2F833C2F38341C0F61D
:1020E0000003595CD2033BD440F60010C0F23D001F
:1020F000484341E0606802280AD001282AD159F8F3
:10210000041C890308D4012001B0BDE8F08300BF9E
:1021100059F8041C8901F6D5D9F8001021F0030103
:102120000843C9F80000FFF72BFE064641F2883746
:10213000D9F80000616800F00C00B0EB810F97D077
:10214000FFF71EFE801BB842F2D9032001B0BDE8A4
:10215000F08300BF59F8041C8907D4D5DCE700BF21
:10216000D9F800204AF2DC33C2F34042C0F6000343
:102170009A5C4843B0FBF2F0D9F800104AF2DE3224
:10218000C1F30311C0F60002515C40F2080220FACC
:1021900001F140F20400C2F200000068C2F2000245
:1021A0001160FFF715FE002001B0BDE8F0830000CC
:1021B00040F2080041F20401C2F20000C4F2020140
:1021C000006809684AF2EE32C1F30221C0F600024B
:1021D000515CC8407047000040F2080041F2040121
:1021E000C2F20000C4F20201006809684AF2EE324D
:1021F000C1F3C221C0F60002515CC8407047000024
:102200002DE9F04182B0002868D00446007841F200
:102210000006C007C4F2020625D0706800F00C006A
:1022200004281BD0706800F00C00082802D17068E8
:10223000C00313D46068002800F06881B0F5A02FB7
:1022400000F07C81B0F5803F00F07C81306820F4A4
:1022500080303060306820F4802076E13068800380
:1022600001D56068D0B32078800718D5706810F069
:102270000C0F07D0706800F00C0008286ED1706851
:10228000C0036BD43068800702D52069012825D1AE
:102290003068616920F0F80040EAC10030602078C1
:1022A00000071FD42078400732D4E56995B17068E3
:1022B00000F00C00082840F08F80012D0ED07068CF
:1022C000216A00F480328A4208D1616A00F47010F9
:1022D000884203D1002002B0BDE8F081012002B0A5
:1022E000BDE8F081A069002862D00020C4F242203D
:1022F0000121C0F88014FFF743FD0546706A80078E
:1023000000F18C80FFF73CFD401B0228F6D92AE142
:10231000F06910F0805808D1F06940F08050F06109
:10232000F06900F080500090009847F20007C4F276
:1023300000073868C00529D4386840F480703860D8
:10234000FFF71EFD054600BF3868C0051ED4FFF725
:1023500017FD401B6428F7D905E100BF206900285C
:1023600040F20000C4F2422000F0828001210160AE
:10237000FFF706FD054600BF306880073FF588AFD0
:10238000FFF7FEFC401B0228F6D9ECE0E0680028CD
:1023900000F08080052800F09780012800F09880E8
:1023A000306A20F001003062306A20F0040092E0D0
:1023B0000020C4F242200021C0F88014FFF7E0FCA6
:1023C000054600BF706A80077FF56CAFFFF7D8FC49
:1023D000401B0228F6D9C6E00027C4F2422700209D
:1023E0003866FFF7CDFC022D05460BD13068800121
:1023F00040F1BE80FFF7C4FC401B02284FF00300F1
:10240000F4D968E7306880017FF564AFFFF7B8FC66
:10241000401B02284FF00300F4D95CE740F20800AB
:10242000C2F20000006844F6D351C1F26201A0FB81
:102430000101480A019000BF00BF0198411E002819
:1024400001913FF42FAF00BF0198411E0028019178
:102450003FF428AF00BF0198411E002801913FF4CE
:1024600021AF00BF0198411E00280191E4D119E776
:1024700000210160FFF784FC054600BF306880073B
:102480007FF50DAFFFF77CFC401B02284FF00300E7
:10249000F4D920E7306A20F001003062306A20F081
:1024A00004003062FFF76CFC054641F2883700BF3C
:1024B000306A800720D5FFF763FC401BB8424FF01D
:1024C0000300F5D907E700BF306A40F0040030622E
:1024D000306A40F001003062FFF752FC054641F2DD
:1024E000883700BF306A800706D4FFF749FC401BDD
:1024F000B842F7D937E000BFB8F1000F7FF4D5AE8E
:10250000F06920F08050F061CFE600BF306820F421
:1025100080303060306820F480203060FFF730FC7D
:10252000054600BF306880037FF59DAEFFF728FCAD
:10253000401B64284FF00300F4D9CCE6306840F427
:1025400080203060306840F480303060FFF718FC45
:10255000054600BF306880033FF585AEFFF710FCED
:10256000401B6428F6D9032002B0BDE8F08100BF0B
:10257000206AB0F5803F05D17168A26821F400316E
:10258000114371607168626A21F474111043084349
:10259000706001203866FFF7F3FB04463068800165
:1025A0003FF598AEFFF7ECFB001B02284FF003004D
:1025B000F4D990E670B538B10446406A30B10020D5
:1025C000206104F1140007E0012070BD6068B0F5DF
:1025D000827F03D004F11C00002101600026A66266
:1025E00094F8510020B9204684F8506000F038F883
:1025F000022084F8510094E8071001F48271036806
:1026000002F4044223F040030360236911440CF4F4
:102610000062114403F002026369114403F00102F5
:10262000A369E569114403F40072114405F038020E
:10263000256A114405F08002A56A114305F4005291
:1026400011430160042101EA13414160C16921F491
:102650000061C1610120666584F85100304670BD9B
:1026600010B586B0006843F60001C4F2000188424C
:102670004FF00001CDE90411CDE902112CD043F255
:102680000001C4F20101884257D141F21800C4F29E
:102690000200016840F6000441F4805101600168C5
:1026A000C4F2010401F4805101910199016841F0E3
:1026B00004010160006802A900F004000190019883
:1026C000A020029002200390032005902046FFF7EF
:1026D0004FFA402029E000BF41F21800C4F2020086
:1026E000416841F480414160416801F480410191B9
:1026F0000199016841F008010160006802A900F039
:102700000800019001984FF42040029002200390AD
:102710000320059040F60000C4F2010000F580643B
:102720002046FFF725FA4FF4804002900020CDE9C3
:10273000030002A92046FFF71BFA06B010BD0000F7
:102740002DE9F04381B0044690F85000012803D1F0
:10275000022001B0BDE8F0834FF001091D46164686
:102760000F4684F85090FFF70BFB94F851100129A5
:1027700072D18046002F4FF0010018BF002E00F0EC
:10278000C2800320002184F8510061652763A6867A
:10279000E686A163A187E187A0682164B0F5004FB8
:1027A0002068616407D1016821F04001016001687F
:1027B00041F4804101600168490603D4016841F099
:1027C000400101606168731EE268B1FA81F1B3FAF9
:1027D00083F349095B09B2F5006F41EA03013DD17A
:1027E00031B137F8021BC1602763E18E0139E18600
:1027F000E18E00296CD0691C1BD000BF816889075D
:1028000006D4FFF7BDFAA0EB0800A84208D348E0C1
:10281000216B31F8022BC2602163E08E0138E08623
:10282000E08E002854D0206881688907E9D5EFE759
:1028300020688168890703D4FFF7A2FA08E000BF87
:10284000216B31F8022BC2602163E08E0138E086F3
:10285000E08E0028ECD13BE0022054E039B1397819
:102860000173206B01302063E08E0138E086E08E3A
:1028700070B3681C0BD11BE0216B09780173206BCE
:1028800001302063E08E0138E086E08E00B32068DE
:1028900081688907F0D4FFF773FAA0EB0800A8421B
:1028A000F3D303202FE000BFFFF76AFAE08E78B180
:1028B000206881688907F7D5216B09780173206B3F
:1028C00001302063E08E0138E086E08E0028EFD1F1
:1028D000204680212A46434604F08AFC28B1606DD8
:1028E00040F02000606520206065A06838B90020B5
:1028F00000902068C1680091806800900098606D29
:10290000002818BF0120002184F8519084F850104D
:1029100001B0BDE8F08300002DE9F04381B004462A
:1029200090F85000012803D1022001B0BDE8F083E7
:1029300001201E4615460F4684F85000FFF720FA86
:1029400094F85110814601290CD06068B0F5827F5F
:1029500040F0A080A06800284FF0020008BF0429C2
:1029600040F09980002F4FF0010018BF002D00F0BB
:102970009280002E00F08F8094F8510000210428EE
:102980001CBF052084F851006165A563E687A68712
:102990002763E6862068A68621646164016849068B
:1029A00003D4016841F0400101606168731EE26870
:1029B000B1FA81F1B3FA83F3DDF8208049095B09AC
:1029C000B2F5006F41EA03016ED131B137F8021B55
:1029D000C1602763E08E0138E086012518F101000F
:1029E00031D101E0FFF7CCF9E08E18B9E08F002873
:1029F00000F0C2802068816889070CD5E18E51B152
:102A0000012D08D1216B002531F8022BC260216312
:102A1000E18E0139E1868168C907E3D0E18F0029A1
:102A2000E0D0C068A16B012521F8020BA163E08F03
:102A30000138E087D6E700BFFFF7A2F9A0EB090055
:102A4000404580F0A980E08E18B9E08F002800F0A2
:102A500093802068816889070CD5E18E51B1012DE2
:102A600008D1216B002531F8022BC2602163E18E71
:102A70000139E1868168C907DED0E18F0029DBD00A
:102A8000C068A16B012521F8020BA163E08F01381A
:102A9000E087D1E70220012184F85110002184F859
:102AA000501001B0BDE8F08339B139780173206B63
:102AB00001302063E08E0138E086012518F1010025
:102AC00032D101E0FFF75CF9E08E10B9E08F002809
:102AD00052D02068816889070ED5E18E61B1012D41
:102AE0000AD1216B002509780173216B206801311F
:102AF0002163E18E0139E1868168C907E2D0E18F67
:102B00000029DFD0C068A16B01250870A06B0130DF
:102B1000A063E08F0138E087D4E700BFFFF730F90A
:102B2000A0EB0900404539D2E08E08B9E08F18B318
:102B30002068816889070ED5E18E61B1012D0AD127
:102B4000216B002509780173216B20680131216315
:102B5000E18E0139E1868168C907DFD0E18F002964
:102B6000DCD0C068A16B01250870A06B0130A063A8
:102B7000E08F0138E087D1E72046802142464B466E
:102B800004F036FB60B1606D40F0200060652020ED
:102B9000606501207FE700BF03207CE703207AE720
:102BA000A06800284FF000007FF475AF0090216806
:102BB000CA6800928968009100996CE7411E002064
:102BC000B0EB116F1CBF012070474EF21002CEF225
:102BD000000251604EF62351CEF20001F0230B703B
:102BE0000721906011607047704700007047000037
:102BF00010B590F83C20012A4FF002023FD080F837
:102C00003D200268D2F804E0D2F808C00C682EF02B
:102C10007003234340F6FF34C4F20004A242536021
:102C200010DCB2F1804F1FD040F20043C4F2000329
:102C30009A4219D040F60003C4F200039A4213D01E
:102C400017E000BF40F60043C4F200039A420BD0E5
:102C500043F20043C4F201039A4205D042F6004316
:102C6000C4F201039A4204D149682CF0800319434D
:102C700091600121002280F83D1080F83C20104630
:102C800010BD0000002804BF0120704710B50446A5
:102C900090F83D0028B9002084F83C00204600F060
:102CA00085F8022084F83D00206840F6FF33026872
:102CB000C4F2000343F2004C9842C4F2010C21DC40
:102CC000B0F1804F2CD040F20041C4F200018842A4
:102CD00026D040F60001C4F20001884220D098427C
:102CE00024DCB0F1804F2FD040F20041C4F200014B
:102CF000884229D040F60001C4F20001884223D066
:102D000026E000BF40F60041C4F20001884207D02F
:102D1000604505D042F60041C4F201018842DED18F
:102D2000A16822F070020A439842DADD40F60041C1
:102D3000C4F20001884207D0604505D042F6004148
:102D4000C4F20101884203D1216922F440720A438E
:102D5000A36922F08001D4F804E0E26819436045D9
:102D60000160C262C0F828E005D042F60041C4F21A
:102D70000101884201D161690163012141610020A3
:102D800084F8461084F83E1084F83F1084F8401010
:102D900084F8411084F8421084F8431084F84410F9
:102DA00084F8451084F83D1010BD000080B582B055
:102DB0000068B0F1804F1CBF02B080BD41F21C0022
:102DC000C4F202000168002241F0010101600068C4
:102DD000002100F00100019001981C20FFF746F847
:102DE0001C2002B0BDE88040FFF730B890F83D10DD
:102DF00001291CBF01207047022180F83D100068A6
:102E000040F6FF32C168C4F20002904241F0010175
:102E1000C1600FDCB0F1804F1ED040F20041C4F21F
:102E20000001884218D040F60001C4F20001884237
:102E300012D018E040F60041C4F2000188420BD0E5
:102E400043F20041C4F20101884205D042F600413C
:102E5000C4F20101884206D1816801F00701062908
:102E600004BF00207047016841F0010101600020AB
:102E70007047000080B590F83C20012A4FF0020214
:102E800000F0BF8080F83D20D0F800C04FF6777288
:102E9000DCF8083023EA0202CCF808200B683F2B4C
:102EA0001CDD5F2B20DD602B50D0B3F5005F6DD0B3
:102EB000702B40F0A080D1E901E3C968DCF808205C
:102EC00043EA0E0322F47F4243EA01211143CCF886
:102ED0000810DCF8081041F077018AE01F2B29DC8C
:102EE00063B3102B2AD086E0402B63D0502B40F0E8
:102EF0008280D1F804E0C968DCF82030DCF82020BA
:102F000022F00102CCF82020DCF8182022F0F00298
:102F100042EA011123F00A0242EA0E02CCF818102C
:102F2000CCF82020DCF8081041F0570121F02001F6
:102F30005FE000BF202B01D0302B5CD1DCF8081003
:102F400021F07001194341F0070152E0D1F804E08B
:102F5000C968DCF8203023F01003CCF82030DCF80E
:102F60001830DCF8202023F4704322F0A00243EA5A
:102F7000013142EA0E12CCF81810CCF82020DCF80F
:102F8000081041F0670121F0100132E0D1E901E3BE
:102F9000C968DCF8082043EA0E0322F47F4243EAC2
:102FA00001211143CCF80810DCF8081041F48041ED
:102FB0001FE000BFD1F804E0C968DCF82030DCF87D
:102FC000202022F00102CCF82020DCF8182022F08A
:102FD000F00242EA011123F00A0242EA0E02CCF8A2
:102FE0001810CCF82020DCF8081041F0470121F03F
:102FF0003001CCF808100121002280F83D1080F843
:103000003C20104680BD00007047000010B50168EC
:1030100004460869800744BFC8685FEA807039D4F5
:103020000869400744BFC8685FEA40703ED4086939
:10303000000744BFC8685FEA007045D40869C0064D
:1030400044BFC8685FEAC0604AD40869C0071CBFB3
:10305000C8685FEAC07051D10869000644BFC868FB
:103060005FEA006052D40869400644BFC8685FEA5E
:10307000406053D40869800646BFC8685FEA806034
:1030800010BD6FF0200220460A61BDE81040FFF736
:10309000ADBD00BF6FF00200086101202077886994
:1030A000800743D02046FFF7AFFF45E06FF00400F4
:1030B000086102202077886910F4407F40D02046C4
:1030C000FFF7A2FF42E000BF6FF008000861042094
:1030D0002077C86980073DD02046FFF795FF3FE085
:1030E0006FF01000086108202077C86910F4407F55
:1030F0003AD02046FFF788FF3CE000BF6FF00100A8
:103100000861204600F086FA2168A5E76FF080008C
:1031100008612046FFF768FD2168A4E76FF04000D2
:103120000861204600F090FA2168A3E7204600F0ED
:1031300025F8204600F0FAF92168002020776FE793
:10314000204600F01BF8204600F0F0F9216800202E
:1031500020776CE7204600F011F8204600F0E6F9F1
:1031600021680020207769E7204600F007F8204614
:1031700000F0DCF921680020207766E77047000046
:103180002DE9F04190F83C30012B04BF0220BDE84E
:10319000F0814FEAB202032A00F21381DFE802F065
:1031A00002468ED8036843F200461A6AC4F201064A
:1031B00022F001021A621D6A1A465C6852F818EF82
:1031C0008F68D1F800C025F00205B34245EA070533
:1031D00005D042F60047C4F20107BB4205D1CF68D3
:1031E00025F00C0527F004073D43B34205D042F615
:1031F0000046C4F20106B34205D1D1E9056724F4C3
:10320000407434433C432EF0730747EA0C075C607C
:103210009F614F6809695F631D629F6947F00807F6
:103220009F619F6927F004079F61C7E0036843F22D
:1032300000481A6AC4F2010822F010021A621D6ADC
:103240001A465C6852F818EF8F68D1F800C025F074
:103250002005434545EA071505D042F60047C4F26C
:103260000107BB4207D1CF686FF0400625F0C005CB
:1032700006EA07163543434505D042F60046C4F238
:103280000106B34207D1D1E9056724F4406444EA5A
:10329000860444EA87042EF4E64747EA0C275C607C
:1032A0009F614F6809699F631D629F6947F40067CA
:1032B0009F619F6927F480679F617EE0036843F206
:1032C00000481A6AC4F2010822F480721A621D6A68
:1032D0001A465C6852F81CCF8F68D1F800E025F4DC
:1032E0000075434545EA072505D042F60047C4F27C
:1032F0000107BB4208D1CF6840F2FF463F0225F4E8
:10330000406527EA06063543434505D042F60046A8
:10331000C4F20106B34207D1D1E9056724F4405451
:1033200044EA061444EA07142CF0730747EA0E0730
:103330005C60DF614F680969DF631D62DF6947F028
:103340000807DF61DF6927F00407DF6136E000BFAF
:10335000036843F200471A6AC4F2010722F480525C
:103360001A621A46D3F820C05D6852F81C4FD1F893
:1033700000E08E68BB4205D042F60047C4F2010768
:10338000BB4204D14F6925F4804545EA87152CF4EA
:10339000005747EA063724F4E64646EA0E265D6003
:1033A000DE614E6809691E641F62DF6947F40067C9
:1033B000DF61DF6927F48067DF6109021368194361
:1033C0001160002180F83C100846BDE8F081000043
:1033D000002804BF0120704710B5044690F83D0056
:1033E00028B9002084F83C00204600F085F802202F
:1033F00084F83D00206840F6FF330268C4F2000301
:1034000043F2004C9842C4F2010C21DCB0F1804F31
:103410002CD040F20041C4F20001884226D040F690
:103420000001C4F20001884220D0984224DCB0F1AF
:10343000804F2FD040F20041C4F20001884229D0D1
:1034400040F60001C4F20001884223D026E000BF0C
:1034500040F60041C4F20001884207D0604505D023
:1034600042F60041C4F201018842DED1A16822F097
:1034700070020A439842DADD40F60041C4F20001CE
:10348000884207D0604505D042F60041C4F20101F0
:10349000884203D1216922F440720A43A36922F0D1
:1034A0008001D4F804E0E268194360450160C2621B
:1034B000C0F828E005D042F60041C4F2010188427C
:1034C00001D16169016301214161002084F8461046
:1034D00084F83E1084F83F1084F8401084F84110BE
:1034E00084F8421084F8431084F8441084F845109E
:1034F00084F83D1010BD000081B0006840F200412A
:10350000C4F20001884201D001B0704741F21C00B2
:10351000C4F20200016841F002010160006800F09D
:1035200002000090009801B0704700007047000052
:1035300041B1082910D0042914BF00F1410200F163
:103540003F020BE090F83E20012A1CBF012070478B
:10355000022280F83E2013E000F140021278012A96
:103560001CBF012070470222082907D0042914BF7C
:1035700080F8412080F83F2002E000BF80F8402022
:10358000006801F01F010122036A02FA01F123EA37
:1035900001020262026A114340F6FF32C4F20002E5
:1035A000904201620EDCB0F1804F25D040F2004124
:1035B000C4F2000188421FD040F60001C4F20001AD
:1035C00018E000BF40F60041C4F20001884213D069
:1035D00043F20042C4F2010242F600419042C4F2BA
:1035E000010101D088420ED1436C904243F4004364
:1035F000436401D0884206D1816801F007010629A1
:1036000004BF00207047016841F001010160002003
:103610007047000080B50068B0F1804F18BF80BDD2
:1036200040F27800C2F20000006806F0E3FA40F6CB
:103630001441C2F2000151F8200000F051FFBDE832
:10364000804000F0E3BF000070470000002804BF86
:103650000120704710B5044690F83D0028B90020BD
:1036600084F83C00204600F05FF8242084F83D00F8
:103670002068D4E90212C36823F40053C3600369CD
:1036800023F440531A430261D4E904231143C2686E
:10369000194341F20C639A431143C1604169A26925
:1036A00021F44071114343F60002C4F2010290423A
:1036B000416103D0FEF77CFD02E000BFFEF78CFD08
:1036C0006268192148439100B0FBF1F048F21F51A4
:1036D000C5F2EB11A0FB01235A096FF0630302FB53
:1036E0000300322303EB0010A0FB0101F02303EAE7
:1036F0005113206803EB0212C1F34311114481609E
:10370000016921F490410161416921F02A0141617F
:10371000C16841F40051C16000202021206484F878
:103720003D1084F83E1010BD70B586B040F6000420
:10373000C4F20104006804F5405100268842049652
:1037400002D006B070BD00BF41F21800C4F2020002
:10375000016802AD41F480410160016801F48041DB
:1037600001910199016841F0040101600068294656
:1037700000F00400019001984FF4007002900220C4
:103780000390032005902046FEF7F2F94FF4806085
:10379000CDE90206204629460496FEF7E9F906B06F
:1037A00070BD00002DE9F04381B0044690F83D0063
:1037B00020280DD10F4600294FF0010000F0928023
:1037C0001646002A00F08E8094F83C00012803D1B0
:1037D000022001B0BDE8F083012084F83C004FF0E6
:1037E000000921201D46C4F8409084F83D00FEF7F2
:1037F000C7FAA684E684A1688046B1F5805F25D12A
:10380000206900281CBF38464F463E46074684F8CC
:103810003C90E08C00B3681C20D0002D66D120685D
:103820000BE000BF36F8021B00276FF35F214160F9
:10383000E18C0139E184E18C81B30168090675D519
:10384000002FEFD017F8011BF1E700BF002684F826
:103850003C90E08C0028DED120681FE0206802E068
:103860000168090609D40168090606D40168090639
:103870005CBF01685FEA0161F2D51FB117F8011B57
:1038800005E000BF36F8021B00276FF35F2141609F
:10389000E18C0139E184E18C0029E4D10168490619
:1038A0001CD4002D42D0691C0ED10168490615D4E4
:1038B000016849065CBF01685FEA41610ED4016896
:1038C0004906F2D50AE000BFFEF75AFAA0EB08015C
:1038D0002068A9422AD800684006F5D5202084F83F
:1038E0003D00002001B0BDE8F08300BF206800BFAC
:1038F0000168090608D4FEF743FAA0EB0801206826
:10390000A942F5D912E000BF17B117F8011B04E076
:1039100036F8021B00276FF35F214160E18C01390B
:10392000E184E18C0029E3D1B8E700BFC16821F44C
:10393000D071C160416921F001014161202084F80A
:103940003D0084F83E00002084F83C00032001B0D4
:10395000BDE8F083FEE700002DE9F04F83B040F2B0
:10396000D400C2F20000A0F1100B40F27460C2F269
:10397000000048F2000848F26E6942F2F91AA0F11C
:1039800010060325C4F26608CFF21B09C4F2090A27
:10399000E81E80B205F0A4FB0022434605F0C4F9FE
:1039A0004A46534605F028FC07460C4604F0B0FD95
:1039B00005F0CCF84BF8100F3846214604F060FFB4
:1039C00005F0C4F846F8100FA81E80B205F088FB79
:1039D0000022434605F0A8F94A46534605F00CFC80
:1039E00004460F4604F094FD05F0B0F8CBF804004F
:1039F0002046394604F044FF05F0A8F87060681EC0
:103A000080B205F06DFB0022434605F08DF94A4671
:103A1000534605F0F1FB04460F4604F079FD05F02E
:103A200095F8CBF808002046394604F029FF05F048
:103A30008DF8B060A8B205F053FB0022434605F0B4
:103A400073F94A46534605F0D7FB04460F4604F087
:103A50005FFD05F07BF8CBF80C002046394604F0FA
:103A60000FFF05F073F8043540F26B118D42F060E2
:103A70008ED140F61440C2F200004FF4B461FCF75E
:103A80004CFC40F2D00041F22434C2F2000000218C
:103A9000C2F20004418020460021FFF749FD204684
:103AA0000421FFF745FD20460821FFF741FD00F006
:103AB00019FC41F2DC20C2F20000FFF797F9002068
:103AC00000F00EFD01F0B0F900F066FE00254FF6A3
:103AD000FF74C4F220150A200A21E322E323009593
:103AE000019400F057FF0A20E321E3220A23009506
:103AF000019400F04FFF03B0BDE8F04F00F04CBE62
:103B00002DE9F04F81B006464FF4B47240F2D00078
:103B1000B2FBF6FBC2F2000003210170584606F02A
:103B20009DF84FF07C5106F015F9002E814669D0C2
:103B3000701E032806F00300009065D200270124C0
:103B4000DDF80080B8F1000F00F04D8104FB0BF6AA
:103B5000304606F06BF8494606F002FABAB29642D1
:103B60001FD940F61441C2F2000100BF7D1CABB268
:103B70009E4241F8220040F2FB80BD1CAAB2964250
:103B800041F8230040F22881FD1CABB29E4241F86F
:103B9000220040F2ED800437BAB2964241F8230089
:103BA000E4D8B8F1010F00F01E81601C00FB0BF699
:103BB000304606F03BF8494606F0D2F9BAB29642D2
:103BC00040F2DD8040F61441C2F200017D1CABB230
:103BD0009E4241F8220040F2D180BD1CAAB296421A
:103BE00041F8230040F2CA80FD1CABB29E4241F86E
:103BF000220040F2C3800437BAB2964241F8230053
:103C0000E4D8BCE00027F2E040F6144526F0030AB1
:103C100000270124C2F200054FF0000808E000BFB1
:103C20001F4608F10408D04504F104043FF488AFAE
:103C300004FB0BF6304605F0F9FF494606F090F913
:103C4000B9B28E421BD900BF7B1C9AB2964245F88E
:103C5000210013D9BB1C99B28E4245F822000DD920
:103C6000FB1C9AB2964245F8210007D90437B9B235
:103C70008E4245F82200E7D801E000BF1F46601CD5
:103C800000FB0BF6304605F0D1FF494606F068F917
:103C9000B9B28E421BD900BF7B1C9AB2964245F83E
:103CA000210013D9BB1C99B28E4245F822000DD9D0
:103CB000FB1C9AB2964245F8210007D90437B9B2E5
:103CC0008E4245F82200E7D801E000BF1F46A01C45
:103CD00000FB0BF6304605F0A9FF494606F040F917
:103CE000B9B28E421BD900BF7B1C9AB2964245F8EE
:103CF000210013D9BB1C99B28E4245F822000DD980
:103D0000FB1C9AB2964245F8210007D90437B9B294
:103D10008E4245F82200E7D801E000BF1F46E01CB4
:103D200000FB0BF6304605F081FF494606F018F916
:103D3000B9B28E427FF675AF7B1C9AB2964245F8B7
:103D400021007FF66DAFBB1C99B28E4245F8220070
:103D50007FF666AFFB1C9AB2964245F821007FF6CB
:103D60005FAF0437B9B28E4245F82200E4D858E775
:103D70002F46B8F1010F7FF418AF34E02F46B8F1A9
:103D8000020F30D0A01C00FB0BF5284605F04EFFBB
:103D9000494606F0E5F8BAB2954224D940F61441F6
:103DA000C2F200017E1CB3B29D4241F8220019D933
:103DB000BE1CB2B2954241F8230013D9FE1CB3B227
:103DC0009D4241F822000DD90437BAB2954241F81C
:103DD0002300E7D807E000BF2F46B8F1010F02D05B
:103DE000E3E600BF3746B8B2B0F5B47F40D8002054
:103DF000C4F2B430494606F0B3F8C7F1010111F03E
:103E00000302B9B20AD040F61443C2F20003012AF9
:103E100001F1010643F8210006D13146A7F5B3723E
:103E200092B2032A24D30EE043F82600022A01F1BD
:103E300002021ABF43F8220003311146A7F5B372FC
:103E400092B2032A14D340F61443C2F200030A1DAF
:103E500003EB8101103940F2691300BF97B241F8BA
:103E6000100F9F4202F10402C1E90100C860F5D1C0
:103E700001B0BDE8F08F00002DE9F04F83B040F2B3
:103E80007800C2F20000006805F0B4FE40F2D007EE
:103E9000C2F200073978044603295CD17E8840F2DB
:103EA000D400C2F2000040F2000850F82600C4F22C
:103EB000A028414605F04EFF0025C4F2F025294612
:103EC00005F0DAFC05F096FE40F2746BC2F2000BCE
:103ED0005BF8261040F20009CCF2A02906460846FD
:103EE000494605F037FF294605F0C6FC05F082FE7D
:103EF0000346002040F2000AC4F2A00A0190782094
:103F000078213246CDF800A000F044FD40F2D40004
:103F1000C2F2000050F82400414605F01BFF29467C
:103F200005F0AAFC05F066FE5BF82410064608467C
:103F3000494605F00FFF294605F09EFC05F05AFEA4
:103F400003464FF6FF75782078213246CDF800A061
:103F5000019500F01FFD7C8003B0BDE8F08F0000EC
:103F6000B0B584B041F2B81042F20041C2F2000094
:103F7000C4F20101002401254FF460220573047589
:103F8000C261C0E9001484600561FDF73FFB0028B1
:103F900018BFFDF76BFA0420039041F2B810C2F28B
:103FA000000001A9CDE90145FDF766FA002818BF18
:103FB000FDF75CFA04B0B0BD80B582B041F21400E8
:103FC000C4F202000168002241F0010101600068B2
:103FD000002100F00100019001980B20FDF746FF41
:103FE0000B2002B0BDE88040FDF730BF2DE9F0475F
:103FF00084B041F21800C4F20200016840F6000AE1
:1040000041F0200101600168C4F2010A01F02001C1
:104010000091009901680AF5006541F01001016006
:104020000168002201F0100100910099016840F23E
:104030000F2641F00401016001684FF0000901F012
:10404000040100910099016841F0080101600068D5
:1040500040F20F2100F00800009000982846FDF77C
:1040600089FE5046102100224FF01008FDF782FE15
:1040700000966E460127022428463146CDE9017993
:104080000394FDF775FD50463146CDE90087CDE933
:104090000294FDF76DFD04B0BDE8F08780B541F2F4
:1040A0002C2043F20001C2F20000C4F201014FF4DF
:1040B000827200234FF4007C80E80E000A21C0E9E0
:1040C0000333C0E9053CC361C0E90833C0E90A31E4
:1040D000FEF770FA002808BF80BDBDE88040FDF7FC
:1040E000C5B9000010B541F2842043F60001C2F2C8
:1040F0000000C4F200014FF4827200234FF4006C00
:104100004FF0010E4FF4007480E80E100A21C0E950
:10411000043EC0E90643C0E90833C0E90A31FEF7AE
:1041200049FA002808BF10BDBDE81040FDF79EB950
:1041300080B586B041F2DC200021C2F200004FF0D1
:104140008042482340F2E73C0591CDE90311CDE9D7
:104150000011C0E90023C0E9021C01618161FEF782
:1041600091FD002818BFFDF781F94FF480500290AF
:1041700041F2DC20C2F2000002A9FEF77BFE00281B
:1041800018BFFDF773F941F2DC20C2F20000694666
:10419000FEF72EFD002818BFFDF768F906B080BDB8
:1041A000B0B590B040F2004541F22430C4F20005B1
:1041B0000021C2F2000040F2CF72CDE90811CDE932
:1041C0000611CDE90411C0E90051C0E902120161F4
:1041D0008161FFF7FDF8002818BFFDF747F941F2AC
:1041E0002430C2F2000008A9FEF702FD002818BF23
:1041F000FDF73CF9602001900020CDE90200059018
:1042000041F22430C2F2000001A90022FEF7B8FFFB
:10421000002818BFFDF72AF941F22430C2F200004D
:1042200001A90422FEF7ACFF002818BFFDF71EF914
:1042300041F22434C2F2000401A920460822FEF70C
:104240009FFF002818BFFDF711F920680021A84240
:104250000E9101D010B0B0BD41F21800C4F20200BE
:10426000016841F01001016000680CA900F0100025
:104270000B900B984FF4E0700C9002200D900F9073
:1042800041F20000C4F20100FDF772FC0420C4F208
:104290000100016841F0E06141F44061016010B04B
:1042A000B0BD000080B541F26C3043F60001C2F2AF
:1042B0000000C4F2010100234FF00C0C4FF4E13276
:1042C00080E80E00C0E90333C0E905C3C361FFF70E
:1042D000BDF9002808BF80BDBDE88040FDF7C6B825
:1042E000FEE70000F0B581B041F20000C4F2010029
:1042F0004FF4007101220124FDF73CFD40F27006ED
:10430000C2F2000606F120004FF07E510022002389
:10431000002702F041FF4CF6CD4106F14000C3F604
:10432000CC510022002386F83C4002F035FF00F01B
:1043300075F900240020C4F28734C4F24000002143
:104340002246F76000F0D6F840F6B830FDF7FCFBE7
:1043500000F064F9D6E901500021C4F2301105F0F3
:10436000F9FC294605F0FCFD0022C4F2B43200211C
:1043700000F0B2F9706000200021224600F0BAF887
:10438000377001B0F0BD0000F0B581B00026C4F276
:10439000201614460D460021324602F013FF074650
:1043A00028460021324602F00DFF05462046002136
:1043B000324602F007FF49F69A16C4F2491604463F
:1043C0003846314605F020FB00214FF07E5202F0C6
:1043D000F9FE40F27007C2F2000738612846314604
:1043E00005F012FB00214FF07E5202F0EBFE7861E7
:1043F0002046314605F008FB00214FF07E5202F0C6
:10440000E1FE4EF200060446B861D7E90405C4F2A5
:10441000F946314605F09EFC05F0ECFB41F22431F3
:10442000C2F200010F6831467863284605F092FC1D
:1044300005F0E0FBB8632046314605F08BFC05F043
:10444000D9FBF86301B0F0BDB0B540F27005C2F21F
:1044500000052878012813D0032817D1E869002126
:10446000CBF680714FF07E5202F0ACFE0021C4F218
:10447000201105F06FFC4FF07C5105F06BFC08E05B
:10448000A96805F1200002F0E3FD02E0022821D036
:10449000002000210022CCF2A001C4F2A00202F010
:1044A00091FED5E9014200210546C4F230111046C3
:1044B00005F050FC214605F053FD0022C4F2B43251
:1044C000002100F009F9024628460021BDE8B0406D
:1044D00000F010B8E96805F1400002F0B9FD0000F5
:1044E000014640F27000C2F20000012200F8202BC9
:1044F00002F05ABE2DE9F04F81B0134600228846E3
:104500000546C4F2B4321846002100F0E5F8002157
:10451000C4F2343105F078FA40F6DB71C4F2490197
:1045200005F018FC074604F041F80646384604F04A
:10453000F7F9294605F00EFC04464046314605F0E1
:1045400009FC214605F00CFD0646384604F0E8F962
:104550000446384604F02AF8294605F0FBFB0546D8
:104560004046214605F0F6FB294605F085F949F657
:104570009A110446C4F2C901304605F07DF980461F
:1045800030464FF03F4105F0E5FB05F049F905469F
:1045900020460E4605F044F944F6AA49CEF65809DD
:1045A0004BF27A63C3F6EB734A4607460C4604F0B7
:1045B00023FE2A46334604F0FBFA43F2333AC4F2B0
:1045C000190A4FF08042534604F0F2FA04F0BEFAA2
:1045D0004BF27A638346CBF6EB73384621464A4664
:1045E00004F00AFE2A46334604F0E2FA4FF0804215
:1045F000534604F0DDFA04F0A9FA02464046594653
:1046000001B0BDE8F04FFFF7BFBE000080B500F07D
:1046100005F8BDE88040FFF717BF00002DE9F04323
:1046200081B040F60004C4F20104204610210022AB
:10463000FDF7A0FB40F27008C2F2000841F28426A8
:104640004AF2F63708F10205C2F20006C0F600078A
:104650004FF0FF39304639462A460123CDF8009005
:10466000FEF75AF9204610210122FDF783FB204670
:1046700010210022FDF77EFB304639462A460123F1
:10468000CDF80090FEF748F9204610210122FDF7F1
:1046900071FBB8F802006FF39F3005F0DFFA0021DC
:1046A000C4F2B43105F056FB4FF0625105F052FBF5
:1046B000D8F80810044605F053FC00210022CCF283
:1046C0003431C4F2343200F007F8C8E9024001B0D6
:1046D000BDE8F083FEE70000F0B581B00646104665
:1046E00017460C4605F03CFC05463046394605F0B9
:1046F00078F920BB3046294605F032FC394606469B
:1047000005F06FF9D8B93046294605F029FC39463D
:10471000064605F066F990B93046294605F020FCBA
:104720003946064605F05DF948B93046294605F098
:1047300017FC0646394605F054F90028DAD0304611
:10474000214605F040F920BB2846314605F094F893
:104750002146064605F037F9D8B92846314605F016
:104760008BF82146064605F02EF990B928463146C9
:1047700005F082F82146064605F025F948B9284695
:10478000314605F079F82146064605F02AF9002859
:10479000DAD1304601B0F0BD2DE9F04381B041F2ED
:1047A000000400200021EF22EF23C4F201044FF0A7
:1047B000000900F02BF841F22C25C2F200050DF1A2
:1047C00002064FF0000800BF002700BF204602216C
:1047D0000022ADF80290FDF7CDFA284631460222BC
:1047E0004FF0FF33FDF7ACFF204602210122FDF719
:1047F000C1FAEF2F07F10107E8D3B8F1EF0F08F185
:104800000108E1D301B0BDE8F08300002DE9F043D9
:1048100083B041F2000407462A20C4F20104164680
:1048200089468DF801002046042100229846FDF7B4
:10483000A1FA204602210022FDF79CFA41F22C2524
:10484000C2F200050DF10101284601224FF0FF33AD
:10485000FDF776FF204602210122FDF78BFA204664
:1048600004210122FDF786FA78BAADF8020020464D
:1048700002210022FDF77EFA0DF1020128460222F4
:104880004FF0FF33FDF75CFF204602210122FDF7C8
:1048900071FA70BAADF80400204602210022FDF73B
:1048A00069FA01A9284602224FF0FF33FDF748FFBD
:1048B000204602210122FDF75DFA2B208DF806002B
:1048C000204604210022FDF755FA2046022100224D
:1048D000FDF750FA0DF10601284601224FF0FF3393
:1048E000FDF72EFF204602210122FDF743FA204664
:1048F00004210122FDF73EFA99FA99F0ADF807007C
:10490000204602210022FDF735FA0DF10701284665
:1049100002224FF0FF33FDF713FF20460221012250
:10492000FDF728FA98FA98F0ADF809002046022120
:104930000022FDF71FFA0DF10901284602224FF06F
:10494000FF33FDF7FDFE204602210122FDF712FA9A
:104950002C208DF80B00204604210022FDF70AFAD6
:10496000204602210022FDF705FA0DF10B01284631
:1049700001224FF0FF33FDF7E3FE20460221012222
:10498000FDF7F8F9204604210122FDF7F3F903B001
:10499000BDE8F0832DE9F04F93B01546121A5F1A67
:1049A000DDF8709012B23FB2BA42C2F10006A8BF61
:1049B000B74203DA974213DBB74211DCB2F1FF3F93
:1049C00006DD0122009280460A46AB461D4616E0EF
:1049D00001220092A8461A4683460D460FE000BF0A
:1049E0000022B7F1FF3F05DD0092884602469B4654
:1049F00005E000BF009298462A468B460546A81A55
:104A000000B210950C92ABEB080505F00FF90446C7
:104A100028B205F00BF90146204604F0F5FF0146E7
:104A2000054605F097F94FF07E5104F025FF04F09C
:104A3000F7FE04460E4604F037F80B460021024606
:104A4000C3F6F07100200027119704F06DF904F00F
:104A50007DF80B902846089504F0E2FE05460F46C7
:104A60002046314604F020F802460B4628463946D7
:104A700004F05AF904F06AF80546484604F0D0FEFE
:104A80000023C3F6E073002204F0B6FB81462846FB
:104A90008A4604F0C5FE02460B464846514604F0DD
:104AA000ABFB04F053F80746404605F0D7F839460B
:104AB000054605F055FA0E902846394604F0DCFE0E
:104AC0000D90584605F0CAF83946054605F048FAF3
:104AD00007902846394604F0CFFE06904046CDF8B0
:104AE0003C8004F0FDFA4A46534604F0ABFD002238
:104AF000002307465C468B4604F042FF30B9384637
:104B0000594603F05BFC04F0A5FA1190204604F02E
:104B1000E7FA02460B464846514604F049F84EF281
:104B20000003C4F26D03002207460D4604F021FF86
:104B300040B93846294603F0F7FD04F08BFA834666
:104B400002E000BF4FF0EF0B09940C9C119EDDE9D1
:104B50000F780B9D204605F081F80590284604F05B
:104B60005FFE02460B464846514604F0DDF8CDE9AB
:104B70000310404604F0B4FACDE901101C98014638
:104B800005F0E8F804F04CFE0023C3F6D0730022D1
:104B900004F032FBCDE91010204604F0A1FAB34531
:104BA0000C900B9102D213B0BDE8F08F1D9841F22A
:104BB000000A4FEA1028C4F2010A3546CDF828B0A1
:104BC00006E000BF01360A98B5B20F9F8542EAD8C9
:104BD0001FFA86FB584605F041F881460D98494674
:104BE00004F0F8FE80B9E81B404304F062FA024684
:104BF0000B46DDE9101004F025FD03F055FF0246D9
:104C00000B46DDE90B1024E00698494604F0DBFE74
:104C100090B90998281A404304F04BFA02460B4613
:104C2000DDE9101004F00EFD03F03EFF02460B46D6
:104C3000DDE901100DE000BFE81B04F0F7FF089963
:104C400005F088F8059904F017FE04F0E9FDDDE9A8
:104C5000033204F0F7FC03F079FF04460E9849464E
:104C600004F0B8FE70B9E81B404304F022FA024693
:104C70000B46DDE9101004F0E5FC03F015FFDDE95B
:104C80000B3224E00798494604F09DFE80B909984C
:104C9000281A404304F00DFA02460B46DDE91010D5
:104CA00004F0D0FC03F000FFDDE901320FE000BFAB
:104CB000E81B04F0BBFF089905F04CF8059904F0D7
:104CC000DBFD04F0ADFD02460B46DDE9031003F009
:104CD0006FFF03F03BFF054620460021002704F04C
:104CE00079FE38B9204603F0D7FB04F099FD07465A
:104CF00001E000BF00211D9C384603F027FF002182
:104D000007462846C4F26F3104F05DFE30B92846EC
:104D100003F078FD04F084FD05E000BF4EF20001D1
:104D20000020C4F26D0103F011FF05463846294604
:104D300004F050FEB0B93846294604F09DFD04F059
:104D400059FF04F0CDF90025C3F6E07500222B468B
:104D500004F052FA00222B4603F02AFF03F0F6FE7D
:104D600007460546384604F045FF074604F076FF3F
:104D70000146284604F035FE00287FF423AF009852
:104D800041F22C29C2F2000930B300BFB9B2584633
:104D90005A460B46FFF73AFD5046022100228DF895
:104DA00048808DF84940FCF7E5FF484612A90222E9
:104DB0004FF0FF33FDF7C4FC504602210122FCF7FF
:104DC000D9FF0137B8B204F049FF0146284604F084
:104DD000FAFD0028DAD1F5E6B8B2594602465B463C
:104DE000FFF714FD5046022100228DF84A808DF80D
:104DF0004B40FCF7BFFF48460DF14A0102224FF03D
:104E0000FF33FDF79DFC504602210122FCF7B2FF63
:104E10000137B8B204F022FF0146284604F0E1FD54
:104E20000028D9D0CEE600002DE9F04F81B041F244
:104E30000004C4F201042046082100224FF0080BB0
:104E40004FF00009FCF796FF6420FCF77DFE20463A
:104E500008210122FCF78EFF6420FCF775FE204636
:104E600001210122FCF786FF6420FCF76DFEEF2094
:104E70008DF803002046042100224FF0EF0A4FF086
:104E80000408FCF777FF204602210022FCF772FF9E
:104E900041F22C25C2F200050DF103012846012242
:104EA0004FF0FF33FDF74CFC204602210122FCF7B6
:104EB00061FF204604210122FCF75CFFEB2620461F
:104EC000042100228DF80360FCF754FF20460221E4
:104ED0000022FCF74FFF0DF10301284601224FF09D
:104EE000FF33FDF72DFC204602210122FCF742FF93
:104EF000204604210122FCF73DFF14272046022111
:104F000000228DF80370FCF735FF0DF103012846F0
:104F100001224FF0FF33FDF713FC2046022101224E
:104F2000FCF728FFFE208DF8030020460421002214
:104F3000FCF720FF204602210022FCF71BFF0DF1A9
:104F40000301284601224FF0FF33FDF7F9FB20460D
:104F500002210122FCF70EFF204604210122FCF76A
:104F600009FF2046042100228DF803A0FCF702FF70
:104F7000204602210022FCF7FDFE0DF10301284628
:104F800001224FF0FF33FDF7DBFB20460221012217
:104F9000FCF7F0FE204604210122FCF7EBFE204640
:104FA000042100228DF80360FCF7E4FE2046022174
:104FB0000022FCF7DFFE0DF10301284601224FF02D
:104FC000FF33FDF7BDFB204602210122FCF7D2FE94
:104FD000204604210122FCF7CDFE204602210022BA
:104FE0008DF80370FCF7C6FE0DF10301284601227F
:104FF0004FF0FF33FDF7A4FB204602210122FCF70E
:10500000B9FE84208DF80300204604210022FCF71D
:10501000B1FE204602210022FCF7ACFE0DF1030197
:10502000284601224FF0FF33FDF78AFB204602217C
:105030000122FCF79FFE204604210122FCF79AFE84
:1050400040208DF80300204602210022FCF792FE4A
:105050000DF10301284601224FF0FF33FDF770FBED
:10506000204602210122FCF785FE85208DF80300F1
:10507000204604210022FCF77DFE2046022100226A
:10508000FCF778FE0DF10301284601224FF0FF33B3
:10509000FDF756FB204602210122FCF76BFE20465D
:1050A00004210122FCF766FEFF2720460221002290
:1050B0008DF80370FCF75EFE0DF103012846012216
:1050C0004FF0FF33FDF73CFB204602210122FCF7A5
:1050D00051FE86208DF80300204604210022FCF7B3
:1050E00049FE204602210022FCF744FE0DF1030197
:1050F000284601224FF0FF33FDF722FB2046022114
:105100000122FCF737FE204604210122FCF732FE83
:105110002046022100228DF80370FCF72BFE0DF1D2
:105120000301284601224FF0FF33FDF709FB20461B
:1051300002210122FCF71EFE87208DF80300204685
:1051400004210022FCF716FE204602210022FCF773
:1051500011FE0DF10301284601224FF0FF33FDF748
:10516000EFFA204602210122FCF704FE204604212A
:105170000122FCF7FFFD2046022100228DF803707A
:10518000FCF7F8FD0DF10301284601224FF0FF3333
:10519000FDF7D6FA204602210122FCF7EBFD88201C
:1051A0008DF80300204604210022FCF7E3FD204691
:1051B00002210022FCF7DEFD0DF103012846012249
:1051C0004FF0FF33FDF7BCFA204602210122FCF725
:1051D000D1FD204604210122FCF7CCFD0A208DF8E8
:1051E0000300204602210022FCF7C4FD0DF103015B
:1051F000284601224FF0FF33FDF7A2FA2046022194
:105200000122FCF7B7FD89208DF803002046042118
:105210000022FCF7AFFD204602210022FCF7AAFD88
:105220000DF10301284601224FF0FF33FDF788FA04
:10523000204602210122FCF79DFD20460421012287
:10524000FCF798FD21208DF8030020460221002262
:105250004FF0210AFCF78EFD0DF1030128460122D3
:105260004FF0FF33FDF76CFA204602210122FCF7D4
:1052700081FD8A208DF80300204604210022FCF7DE
:1052800079FD204602210022FCF774FD0DF1030197
:10529000284601224FF0FF33FDF752FA2046022143
:1052A0000122FCF767FD204604210122FCF762FD84
:1052B0002046022100228DF80390FCF75BFD0DF1E2
:1052C0000301284601224FF0FF33FDF739FA20464B
:1052D00002210122FCF74EFD8B208DF803002046B1
:1052E00004210022FCF746FD204602210022FCF7A3
:1052F00041FD0DF10301284601224FF0FF33FDF778
:105300001FFA204602210122FCF734FD2046042129
:105310000122FCF72FFD80208DF80300204602219A
:105320000022FCF727FD0DF10301284601224FF072
:10533000FF33FDF705FA204602210122FCF71AFD92
:105340008C208DF80300204604210022FCF712FD7A
:10535000204602210022FCF70DFD0DF10301284635
:1053600001224FF0FF33FDF7EBF920460221012225
:10537000FCF700FD204604210122FCF7FBFC01267E
:105380002046022100228DF80360FCF7F3FC0DF1AA
:105390000301284601224FF0FF33FDF7D1F92046E3
:1053A00002210122FCF7E6FC8D208DF80300204647
:1053B00004210022FCF7DEFC204602210022FCF73B
:1053C000D9FC0DF10301284601224FF0FF33FDF710
:1053D000B7F9204602210122FCF7CCFC204604212B
:1053E0000122FCF7C7FC2046022100228DF8036051
:1053F0000126FCF7BFFC0DF10301284601224FF006
:10540000FF33FDF79DF9204602210122FCF7B2FC93
:105410008E208DF80300204604210022FCF7AAFC10
:10542000204602210022FCF7A5FC0DF103012846CD
:1054300001224FF0FF33FDF783F9204602210122BC
:10544000FCF798FC204604210122FCF793FC20463F
:10545000022100228DF80370FCF78CFC0DF1030192
:10546000284601224FF0FF33FDF76AF9204602215A
:105470000122FCF77FFC8F208DF8030020460421D9
:105480000022FCF777FC204602210022FCF772FC88
:105490000DF10301284601224FF0FF33FDF750F9CB
:1054A000204602210122FCF765FC2046042101224E
:1054B000FCF760FC2046022100228DF80370FCF707
:1054C00059FC0DF10301284601224FF0FF33FDF78F
:1054D00037F9204602210122FCF74CFCB6208DF85A
:1054E0000300204604210022FCF744FC2046022150
:1054F0000022FCF73FFC0DF10301284601224FF08A
:10550000FF33FDF71DF9204602210122FCF732FC92
:10551000204604210122FCF72DFC20460221002216
:105520008DF80390FCF726FC0DF1030128460122BB
:105530004FF0FF33FDF704F9204602210122FCF76A
:1055400019FC20208DF80300204602210022FCF7E0
:1055500011FC0DF10301284601224FF0FF33FDF746
:10556000EFF8204602210122FCF704FC36208DF8DA
:105570000300204604210022FCF7FCFB2046022108
:105580000022FCF7F7FB0DF10301284601224FF042
:10559000FF33FDF7D5F8204602210122FCF7EAFB94
:1055A000204604210122FCF7E5FB204602210022CF
:1055B0008DF803B0FCF7DEFB0DF103012846012254
:1055C0004FF0FF33FDF7BCF8204602210122FCF723
:1055D000D1FB3A208DF80300204604210022FCF77D
:1055E000C9FB204602210022FCF7C4FB0DF1030198
:1055F000284601224FF0FF33FDF7A2F82046022192
:105600000122FCF7B7FB204604210122FCF7B2FB84
:1056100005208DF80300204602210022FCF7AAFB9A
:105620000DF10301284601224FF0FF33FDF788F802
:10563000204602210122FCF79DFB90208DF80300FB
:10564000204604210022FCF795FB2046022100227F
:10565000FCF790FB0DF10301284601224FF0FF33C8
:10566000FDF76EF8204602210122FCF783FB20465D
:1056700004210122FCF77EFB2046022100228DF846
:1056800003B0FCF777FB0DF10301284601224FF030
:10569000FF33FDF755F8204602210122FCF76AFB93
:1056A0002046022100228DF803B0FCF763FB0DF1C8
:1056B0000301284601224FF0FF33FDF741F8204651
:1056C00002210122FCF756FB2046022100228DF820
:1056D00003B0FCF74FFB0DF10301284601224FF008
:1056E000FF33FDF72DF8204602210122FCF742FB93
:1056F0002046022100228DF803B0FCF73BFB0DF1A0
:105700000301284601224FF0FF33FDF719F8204628
:1057100002210122FCF72EFBBD208DF8030020465C
:1057200004210022FCF726FB204602210022FCF780
:1057300021FB0DF10301284601224FF0FF33FCF756
:10574000FFFF204602210122FCF714FB2046042122
:105750000122FCF70FFB06208DF8030020460221F2
:105760000022FCF707FB0DF10301284601224FF050
:10577000FF33FCF7E5FF204602210122FCF7FAFA8D
:10578000BC208DF80300204604210022FCF7F2FA29
:10579000204602210022FCF7EDFA0DF10301284614
:1057A00001224FF0FF33FCF7CBFF204602210122FC
:1057B000FCF7E0FA204604210122FCF7DBFA204640
:1057C000022100228DF80390FCF7D4FA0DF10301B9
:1057D000284601224FF0FF33FCF7B2FF204602219A
:1057E0000122FCF7C7FA2046042100228DF803703D
:1057F000FCF7C0FA204602210022FCF7BBFA0DF1AB
:105800000301284601224FF0FF33FCF799FF2046A1
:1058100002210122FCF7AEFA204604210122FCF706
:10582000A9FA60208DF80300204602210022FCF72F
:10583000A1FA0DF10301284601224FF0FF33FCF7D6
:105840007FFF204602210122FCF794FA2046022124
:1058500000228DF80360FCF78DFA0DF10301284654
:1058600001224FF0FF33FCF76BFF2046022101229B
:10587000FCF780FA2046022100228DF80380FCF715
:1058800079FA0DF10301284601224FF0FF33FCF7AE
:1058900057FF204602210122FCF76CFAC3208DF845
:1058A0000300204604210022FCF764FA204602216E
:1058B0000022FCF75FFA0DF10301284601224FF0A8
:1058C000FF33FCF73DFF204602210122FCF752FA8C
:1058D000204604210122FCF74DFA13208DF8030025
:1058E0002046022100221326FCF744FA0DF10301A1
:1058F000284601224FF0FF33FCF722FF2046022109
:105900000122FCF737FAC4208DF803002046042159
:105910000022FCF72FFA204602210022FCF72AFA87
:105920000DF10301284601224FF0FF33FCF708FF79
:10593000204602210122FCF71DFA20460421012203
:10594000FCF718FA2046022100228DF80360FCF7CC
:1059500011FA0DF10301284601224FF0FF33FCF745
:10596000EFFE204602210122FCF704FAC9208DF83F
:105970000300204604210022FCF7FCF92046022106
:105980000022FCF7F7F90DF10301284601224FF040
:10599000FF33FCF7D5FE204602210122FCF7EAF98D
:1059A000204604210122FCF7E5F922208DF80300AE
:1059B000204602210022FCF7DDF90DF10301284603
:1059C00001224FF0FF33FCF7BBFE204602210122EB
:1059D000FCF7D0F9BE208DF80300204604210022F8
:1059E000FCF7C8F9204602210022FCF7C3F90DF1AB
:1059F0000301284601224FF0FF33FCF7A1FE2046A9
:105A000002210122FCF7B6F9204604210122FCF70D
:105A1000B1F911208DF80300204602210022FCF785
:105A2000A9F90DF10301284601224FF0FF33FCF7DD
:105A300087FE204602210122FCF79CF9E1208DF827
:105A40000300204604210022FCF794F9204602219D
:105A50000022FCF78FF90DF10301284601224FF0D7
:105A6000FF33FCF76DFE204602210122FCF782F98C
:105A7000204604210122FCF77DF910208DF8030057
:105A8000204602210022FCF775F90DF1030128469A
:105A900001224FF0FF33FCF753FE20460221012282
:105AA000FCF768F90E208DF8030020460221002241
:105AB000FCF760F90DF10301284601224FF0FF3396
:105AC000FCF73EFE204602210122FCF753F9DF20BD
:105AD0008DF80300204604210022FCF74BF92046F4
