:020000040800F2
:10000000D808002079020008E13D0008A139000865
:10001000253D000815150008E53E00080000000019
:10002000000000000000000000000000CD3E0008BD
:100030002515000800000000E53D0008D13E00083D
:10004000930200089302000893020008930200083C
:10005000930200089302000893020008930200082C
:100060009302000893020008930200081915000883
:10007000930200089302000893020008930200080C
:1000800093020008930200089302000893020008FC
:1000900093020008930200089302000893020008EC
:1000A00093020008930200089302000893020008DC
:1000B000D93E00089302000893020008930200084A
:1000C00093020008930200089302000893020008BC
:1000D00093020008930200089302000893020008AC
:1000E000930200089302000893020008930200089C
:1000F000930200089302000893020008930200088C
:10010000930200089302000893020008930200087B
:10011000930200089302000893020008930200086B
:10012000930200089302000893020008930200085B
:1001300000F002F800F090F80AA090E8000C824469
:100140008344AAF10107DA4501D100F085F8AFF246
:10015000090EBAE80F0013F0010F18BFFB1A43F0A5
:1001600001031847E04B0000004C0000103A24BF88
:1001700078C878C1FAD8520724BF30C830C144BF0C
:1001800004680C607047000000230024002500264E
:10019000103A28BF78C1FBD8520728BF30C148BFEA
:1001A0000B6070476E2900F05981702900F09B8226
:1001B000662904F02E85652904F02B85672904F053
:1001C0002885612904F0278503681B0A28BF41F0B0
:1001D0008001692900F00681642900F003817529F6
:1001E00000F000816F2900F02982782900F06782F1
:1001F000E92900F0C381E42900F0C081F52900F06D
:10020000BD81EF2900F02682F82900F0668203689C
:10021000DB0928BF41F08001632900F06B87732957
:1002200000F07087E32900F07B87F32900F08087D6
:10023000002070471FB500F0D1FF0400002000210E
:1002400004F0E8FA401C60600020002104F0CCFAC1
:10025000E0601FBD10B510BD00F093FF1146FFF721
:10026000E9FF03F041FE01F06FF803B4FFF7F2FF7E
:1002700003BC01F073F800000948804709480047B3
:10028000FEE7FEE7FEE7FEE7FEE7FEE7FEE7FEE746
:10029000FEE7FEE704480549054A064B70470000A3
:1002A000D53E000831010008D8020020D8080020FF
:1002B000D8040020D80400201CB50C46064B7B4413
:1002C00069460090204600F0E2F8044600206946A6
:1002D00000F0F0F820461CBDF301000010B5431CEF
:1002E00002E010F8011B71B18107FAD14FF0013221
:1002F00002C88C1A8C4314EAC211F9D0C01A0A063B
:1003000003D0C01E10BDC01A10BD0A0401D0801E4B
:1003100010BD0902FCD0401E10BD704770477047E9
:1003200070B5044685690068C10601D5302600E035
:100330002026C00707D070BDD4E901213046904780
:10034000206A401C20626D1EF6D570BD70B5044653
:1003500085690078C00707D170BDD4E9012120204C
:100360009047206A401C20626D1EF6D570BD09685A
:100370004A0501D540B27047C905FCD500B27047A7
:1003800009684A0501D5C0B27047C905FCD580B2DD
:10039000704770B50C460546012A05D028788006BE
:1003A00000D5EA69002302E0012305E05B1C9342CB
:1003B00002D2E05C0028F9D1A869E618C01AA86149
:1003C000286A184428622846FFF7AAFF04E0D5E906
:1003D000012114F8010B9047B442F8D32846FFF7E7
:1003E000B5FF70BD2DE9F04106460024106875295F
:1003F000314616A510D0FFF7BAFF002802DA4042B6
:1004000013A507E031688A0701D512A502E0490764
:1004100004D511A5012401E0FFF7B2FF00210A2253
:1004200006F1240709E0B0FBF2FCB0FBF2F302FB9B
:100430001C00303078541846491C0028F3D123465C
:100440002A463046BDE8F04100F065BA00000000E1
:100450002D0000002B000000200000001168026841
:10046000006A530501D508700AE0D30501D508805C
:1004700006E0130603D5C217C1E9000200E00860D8
:100480000120704701694A1C02610878704700B575
:100490008FB0CDE901310021059105497944CDE9BD
:1004A00003101146684600F029F90FB000BD0000A6
:1004B000E5FFFFFF0A6802F8010B0A6070470000C1
:1004C0002DE9FF5F15468A460446DFF8AC80F84404
:1004D0000027D8E900103E46CDE9001010E03AF8B8
:1004E00016106A4602A800F027FE411C07D02178AA
:1004F000890603D5E269391891420DD80744761C64
:100500002078800602D5E069B84205DDAE42E6DB20
:100510003AF816000028E2D1A069C01BA06120466D
:10052000FFF7FEFED8E90010CDE90010002017E02B
:100530003AF818106A4602A800F0FEFDB0F1FF3F3D
:1005400081460BD000250DF1080B05E0D4E901210F
:100550001BF8050090476D1C4D45F7D308F10100CD
:10056000B0428046E4DB206A384420622046FFF730
:10057000EDFEBDE8FF9F00004A4700002DE9F04175
:100580008046D21D22F007020025D2E90002F5299B
:1005900015A614D0011E72F1000106DA0023D0EB7B
:1005A000030063EB020211A608E0D8F800108B07E5
:1005B00001D50FA602E0490701D50EA60125114677
:1005C000002408F1240704E000F060F930323A55C5
:1005D000641C50EA0102F7D12B46324621464046C0
:1005E000BDE8F04100F097B9000000002D000000C8
:1005F0002B0000002000000030B4002100F1240492
:1006000008E002F00705D208303542EA4372DB0801
:100610006554491C52EA0305F3D10468002310A273
:10062000250708D504F020040C4304D0C469012335
:100630000CA2641EC46130BC00F06DB910B5044654
:1006400021461068FFF79CFE02462046BDE8104098
:100650000023D1E7D21D22F00701D1E90023CBE727
:100660000000000030000000F0B40D4601880905CC
:1006700002D5214C7C4402E01F4C7C440E34002106
:1006800000F1240608E002F00F071209E75D42EAD4
:1006900003721B097754491C52EA0307F3D102780D
:1006A0000023120704D5702D06D009B1022311349E
:1006B0002246F0BC00F02FB901231034F8E770B5E2
:1006C00004460D4621461068FFF75AFE02462946A9
:1006D0002046BDE870400023C6E7D21D22F0070384
:1006E000D3E90023C0E70368126843F020030360E6
:1006F0000823C3610023B7E7AC4500002DE9F05F94
:10070000894604464FF0000ADFF874B1FB44C0F894
:1007100020A02046E1688847002874D0252806D00C
:10072000D4E901219047206A401C2062F1E70026AD
:100730005F462046E16888472028054607DB312DC3
:1007400005D2781910F8200C08B10643F1E7B0077C
:1007500001D526F00406C4F81CA00027C4F818A090
:100760002A2D09D0284604F037F838B304EB87085F
:10077000303DC8F8185019E059F8041B204604EB26
:1007800087029161E1688847012F054618D1E06929
:10079000002820DA26F020061DE0D8F8180000EB2B
:1007A000800005EB40003038C8F818002046E168AA
:1007B0008847054604F010F80028EED1012F0AD032
:1007C0002E2D08D12046E16888477F1C0546022F60
:1007D00046F02006C4DBA069002803DA404246F058
:1007E0000106A061F00701D026F010066C2D0BD099
:1007F000682D09D04C2D39D06A2D35D0742D35D0C7
:100800007A2D33D016E038E0E1682F46204688473D
:10081000B842054609D16C2F26D04FF48060E168BC
:10082000064320468847054604E06C2F1AD04FF453
:10083000807006430DB3A5F14100192802D8203578
:1008400046F400664A462946204626604E46FFF793
:10085000A9FC80B101280BD0F61D26F0070000F19D
:10086000080956E74020E4E78020D8E70020D6E7D3
:1008700006F104094DE7284652E7206ABDE8F09FDB
:100880003C450000004870471000002030B5B0F132
:100890000A0271F100034FEA900E4EEA817EB0EB3E
:1008A0000E0061EB91014FEA101E4EEA017E10EB43
:1008B0000E0041EB11114FEA102E4EEA016E10EBC3
:1008C0000E0041EB11214FEA104E4EEA014E10EBA3
:1008D0000E0041EB1141401841F100014FEAD000F8
:1008E00040EA41704FEAD1014FEA810444EA907432
:1008F00010EB800544EB01046D1944EB0404521B1A
:10090000A3414FF0000348BF0A3200D530BD401C60
:1009100041F1000130BD2DE9F0470D469946924660
:10092000044600F124080168880604D5E06921F036
:100930001001216000E00120A84201DD471B00E01A
:100940000027A1697A1902EB0900081AA061207832
:10095000C00602D42046FFF7E3FC002608E0D4E9F5
:1009600001211AF806009047206A401C761C20627C
:100970004E45F4DB2078C0060AD52046FFF7D0FCB0
:1009800006E0D4E9012130209047206A401C206213
:10099000381EA7F10107F4DC07E0D4E9012118F8BB
:1009A00005009047206A401C2062281EA5F1010521
:1009B000F3DC2046FFF7CAFC2078000602D50220AF
:1009C000BDE8F0870120FBE72DE9FF4F0C461E46EE
:1009D0004FF0FF378BB0D2E90001DDF860800A905C
:1009E0008A46C1F30A5505B93D46002108464FF035
:1009F0000000BAF1000F00F4400005DA00EB8000BF
:100A00004FF4400101EA50004FEA9059B9F1010F4B
:100A100000DDB9460A9850EA4A000ED044F610505C
:100A2000A5F2FF3545432F14B8F1000F1ED07542D3
:100A3000291E1EDDC9F100021CE0B8F1010F4FF0C4
:100A4000000001D0302103E0F24305E02154401CB6
:100A5000B042FBDB30460022002121540B99C1F843
:100A60000880C1E900200FB0BDE8F08FBD1B6D1CF0
:100A7000DEE74A4600DA694206A800F0F3FB06AB5F
:100A800093E8070003AB83E8070050460A9903F098
:100A9000C6FA8DE80700A0F500501F3800900398B3
:100AA000002D0ADD42F21F014A460844002303A933
:100AB0000390684603F030FD09E0A0F500504A4677
:100AC0001F38002303A90390684603F03AFD8DE820
:100AD00007000004000C03D04FF0FF30410800E095
:100AE0001046B8F1000F03D00022009215461EE018
:100AF000751E05D4FFF7CAFE303262556D1EF9D55A
:100B0000B3460122084302D000227F1C04E0207873
:100B1000302801D100227F1E002A099784D01DE0D1
:100B2000112D07DAFFF7B2FE303262556D1C50EA24
:100B30000102F5D1084302D00098C8B10EE00021AF
:100B4000681E05E0235C625C63542254401E491C0D
:100B50008142F7DBAB46A81B401E0990002004F839
:100B60000B000B98099AC0F80880C0E9002B7AE7BF
:100B700011264FF0000857E72DE9F04F884604464C
:100B8000D21D22F0070191B0D1E90001CDE90A019F
:100B900003F00EFE02460B98C00F01D02D2007E097
:100BA0002068810701D52B2002E0202101EAC00046
:100BB000032A099001D0072A05DB03464146204657
:100BC00000F010FB0BE12078800601D5E06900E021
:100BD0000620B8F1650F814606D0B8F1660F18D02F
:100BE000B8F1670F70D131E00020B9F1110F00901A
:100BF00001DB112301E009F101030AAA01A90CA8F4
:100C0000FFF7E2FEDDE90C70002609F101058346DD
:100C100047E001204B4600904FF000470AAA01A987
:100C20000CA8FFF7D1FEDDE90DB00C995D4600265A
:100C300010B909F101000D18B9EB050003D4C0F19A
:100C4000FF3609F10105A5EB09002BE0B9F1010F11
:100C500001DA4FF001090020B9F1110F0090484668
:100C600001DD112300E003460AAA01A90CA8FFF741
:100C7000ABFEDDE90C704D46002683462078000768
:100C80000AD4AB4500DA5D4601A8012D04DD411907
:100C900011F8011C302907D04F4502DA17F1040F73
:100CA00004DA012082460FE06D1EEEE7002F02DC21
:100CB000ED1B3E4403E0781CA84200DD7D1CB81B00
:100CC00000F1010A4FF000472078000703D4AA453D
:100CD00001DB4FF0FF3A0021B7F1004F0DF143085F
:100CE0008DF8431024D002202B23002F01DA7F42FD
:100CF0002D230A21021EA0F1010000DC5FB197FB49
:100D0000F1FC97FBF1F201FB1C7C17460CF1300C57
:100D100008F801CDEEE7A8F101000370218809056C
:100D200001D5452100E06521A0F1010800F8011C72
:100D300009980FA9A1EB0807FF1D00B10120411977
:100D400001EBEA70A1693844081A401EA0612078BE
:100D5000C00602D42046FFF7E3FA099828B1D4E987
:100D600001219047206A401C20622078C00622D5CD
:100D70002046FFF7D5FA1EE0002E04DBB34502DD66
:100D800001A8805D00E03020D4E901219047206A6D
:100D9000401C2062761CAAF101005FEA000A0AD119
:100DA00000F01CFAC0680168405CD4E9012190475A
:100DB000206A401C2062281EA5F10105DCDC07E04A
:100DC000D4E9012118F8010B9047206A401C2062E9
:100DD000381EA7F10107F3DC2046FFF7B7FA03201E
:100DE00011B041E62DE9F04F04460D46D21D22F028
:100DF000070089B0D0E900974846394603F0D8FC8F
:100E00000246F80F01D02D2307E02068810701D5A5
:100E10002B2302E0202101EAC0038DF820300BB122
:100E2000012000E00020032A824601D0072A04DBCB
:100E30002946204600F0D6F93FE12078800601D40B
:100E40000D2500E0E569C7F30A560D2D49DA0021AA
:100E50004FEA175B08464FF00000002F00F44000F7
:100E600007DA00EB80004FF4400100EBD07001EA9C
:100E700060008115012901DD4FF0FF3100224FEAAA
:100E8000850CBCF1180F06D31346ACF118004FF0D7
:100E90008052C24003E04FF4801323FA0CF30CF1AC
:100EA0000C0CBCF1200F04D3ACF1200C09FA0CF0AF
:100EB00001E007FA0CF000294FF0004801DD18B9F5
:100EC0000FE00ED140450CD319EB02095F4121B967
:100ED000404502D19F4329EA0209BBEB175F00D0CE
:100EE000761C2088000502D57B48784402E07A48C9
:100EF0007844193808AA302302F80A30037C0AF132
:100F00000101002E0AF1020A53546A4602DC4FF036
:100F1000300101E04FF031014FF001088DF8001071
:100F200002D0A6F2FF3603E059EA470100D06B4E2B
:100F3000002D02DC2178090704D54FF002082E218C
:100F40008DF80110C44600210BE0C7F303433F01B5
:100F5000C35C491C6D1E02F80830052908F1010820
:100F600001DA002DF1DC00210CE000EB1973491CC3
:100F70001B786D1E082902F808304FEA091908F19C
:100F8000010801DA002DF0DC21688B0602D516E09D
:100F9000A8F10108E04505DD02EB080313F8013C68
:100FA000302BF5D0B8F1000F09DD02EB080313F880
:100FB000013C2E2B03D1090701D4A8F10108002D13
:100FC00005DD3E2102F808106D1E08F10108407C85
:100FD000002E02F8080008F1010804DA2D207642FC
:100FE00002F8080002E02B2002F808000A214FF462
:100FF0007A70864208F101080BDB96FBF0F3303380
:1010000002F8083096FBF0F308F1010800FB1366C4
:1010100001E0642E0CDB642096FBF0F3303302F821
:10102000083096FBF0F308F1010800FB136601E0BD
:101030000A2E06DB96FBF1F0303002F8080008F1CA
:10104000010896FBF1F001FB1060303002F8080057
:10105000A16908F1010808EB050202EB0A00081A71
:10106000A0612078C00602D42046FFF759F9216A12
:1010700008AE01EB0A00206204E0D4E9012116F871
:10108000010B9047BAF1010AF7D22078C00602D5C9
:101090002046FFF745F96E4609E016F8010B3E2899
:1010A0000FD0D4E901219047206A401C2062B8F19A
:1010B0000108F2D22046FFF749F909B00320BDE844
:1010C000F08F206A2844206203E0D4E90121302017
:1010D00090476D1EEBD3F8E7823D000002FCFFFF56
:1010E00010B5436913B1AFF3008001E0FFF751F988
:1010F000012010BD127800F124010A7000224A700C
:101100000122EDE711684FF0FF32E9E710B54369BE
:1011100013B1AFF3008001E0FFF7D2F9012010BD59
:10112000128800F1240182840022C2840122EDE7AA
:1011300011684FF0FF32E9E72DE9F04116460C4601
:10114000054600F043F8036893F80101012807D031
:10115000FF2C12D8185D80B101202C70BDE8F08101
:10116000D3F807013246214603F20713C718284671
:10117000BC46BDE8F041002360474FF0FF30EDE78B
:1011800070477546FFF77EFBAE460500694653463D
:1011900020F00700854618B020B5FFF77BF8BDE8C2
:1011A00020404FF000064FF000074FF000084FF0CE
:1011B000000BAC46ACE8C009ACE8C009ACE8C0091B
:1011C000ACE8C00921F007018D46704710B500F06A
:1011D00005F8001D10BD00BF3D36000000487047F7
:1011E000300000202DE9F0411F4604460326016827
:1011F000072A01F4006004DB08B116A505E016A576
:1012000003E008B115A500E015A521F0100020604D
:10121000A069C01EA0610FB1401EA0612046FFF76B
:101220007FF84FB1D4E9012138469047206A401C2D
:101230002062C01C206206E0206AFAE7D4E901219E
:1012400015F8010B9047761EF8D22046FFF77EF87E
:10125000BDE8F0814E414E006E616E00494E460081
:10126000696E66002DE9F047814616468AB035481A
:1012700078440DC88DE80D0032487844801C03ACDA
:101280000DC884E80D0041F69B300844372190FBDF
:10129000F1F290FBF1F5A5F1800501FB12041B3C76
:1012A00002D56442012000E00020DFF898A08046CB
:1012B0000027FA44AAF1BE0A0EE0E0070AD032463F
:1012C000684607EB470101230AEB810103F039F976
:1012D0008DE8070064107F1C002CEED1194F7F446D
:1012E000AE3F19E0E80715D007EB04100DF1180A1E
:1012F00090E80E008AE80E00C068F04201D198190B
:1013000008903246012306A903A803F01AF903AB9B
:1013100083E807006D10641C002DE3D14FF001033A
:1013200032466946B8F1000F03A802D003F0F4F882
:1013300001E003F006F9C9E90001C9F808200AB084
:10134000BDE8F0878C3A000010B50446AFF300808A
:101350002046BDE81040FEF788BF00000149182074
:10136000ABBEFEE7260002004FF0013C50F8042B14
:1013700051F8043B9A4221D1A2EB0C03934313EAA8
:10138000CC1317D150F8042B51F8043B9A4215D1D5
:10139000A2EB0C03934313EACC130BD150F8042BAC
:1013A00051F8043B9A4209D1A2EB0C03934313EA90
:1013B000CC13DBD04FF00000704700BFD01A01BA49
:1013C000B1FA81F101F0180122FA01F0CB40DBB251
:1013D000C0B2C01AC1F120012CFA01F3D11A914315
:1013E00011EAC311E6D170470146406A826A12F0E1
:1013F000500F03D0006A026B084610470168826AEA
:1014000042F400728262896801F46021B1F5602FB4
:1014100001D1017B11B100F057B900BF816A21F4FD
:1014200080718162816AC90448BF00F04DB9816A48
:1014300041F00101816200F047B90000406A816A11
:1014400041F040018162C16A41F00401C16200F0D3
:101450003FB90000406A00F039B90000B0B582B071
:1014600004460020019021688A68D2074FD188681D
:1014700040F00100886040F20800C2F200000068FD
:101480004DF68361C4F21B31A0FB0101880C019071
:101490000198A0B1019801380190019878B10198A4
:1014A00001380190019850B10198013801900198DC
:1014B00028B101980138019001980028EAD100F084
:1014C00089FD21688968C9071CD1054603E000BF72
:1014D0008068C0071AD100F07DFD411B20680329F8
:1014E000F6D38168C907F3D1A06A40F01000A0626A
:1014F000E06A40F00100E062002084F8240001204E
:1015000002B0B0BD002002B0B0BD00BF002002B0EC
:10151000B0BD0000FEE7000040F2F400C2F200009F
:1015200000F06EBA70470000EFF3108072B600BF93
:10153000FEE7000010B581B00022009290F8242050
:10154000012A03D10221084601B010BD4B680122D7
:10155000062B80F8242015D8026803EB8303A3F13F
:10156000050E1F23D2F834C003FA0EF40B682CEAE0
:10157000040C03FA0EF444EA0C045463092B17D943
:1015800037E000BF02680C2B20D803EB8303A3F1E4
:1015900023041F23D2F830C003FA04FE0B682CEAA0
:1015A0000E0C03FA04F444EA0C041463092B20D84B
:1015B000D2F810C003EB4303072489689C402CEA4F
:1015C0000404994021431161002136E003EB8303B9
:1015D000A3F141041F23D2F82CC003FA04FE0B68C8
:1015E0002CEA0E0C03FA04F444EA0C04D462092B2E
:1015F000DED903EB4304D2F80CC0A4F11E0E07247D
:10160000896804FA0EF42CEA040401FA0EF121436D
:1016100023F00104102CD1600ED142F20841C4F233
:101620000101A1F10804A2420ED0816A41F020011B
:101630008162012101E000BF0021002280F8242006
:10164000084601B010BD00BF0A68120230D40A6813
:10165000102B42F400020A602CD140F20801C2F2C1
:10166000000109684DF68362C4F21B32A1FB02122D
:10167000910C01EB8101490000910099E1B10099C1
:10168000013900910099C9B100990139009100997F
:10169000B1B1009901390091009999B100990139CE
:1016A0000091009900294FF00001E8D1C5E700BF83
:1016B0000021C2E70021C0E70021BEE70021BCE70E
:1016C0000021BAE70021B8E770470000704700002A
:1016D00070470000B0B5002800F0B2800446806A70
:1016E00020B121688868C0070BD114E00020E062B7
:1016F00084F82400204600F0A5F821688868C00717
:1017000009D0886820F00100886000F063FC21683F
:101710008A68D20730D1A06AC00644D4A06A41F2D8
:10172000021290430230A062E36981F0804080F4AD
:101730009E3083F44022104308BF4FF40023D4E9C5
:10174000010243EA000C531EB3FA83F35D0913460A
:10175000B2F5807F18BF2B02207D257B01284CEA43
:10176000450030D135B3A56A45F02005A562E56A8C
:1017700045F00105E56226E0054602E08868C007FD
:10178000C9D000F027FC401B21680328F6D38868E5
:10179000C007F3D0A06A40F01000A062E06A40F0F9
:1017A0000100E062A06AA06A40F01000A06201207F
:1017B000B0BD00BFD4F818C04EF60005CFF6FF75D7
:1017C00005EB4C352B434D68B2F5807F25F4694518
:1017D00043EA05034B608B684FF2FD75CFF6E17568
:1017E00003EA050343EA00038B6001D0012A07D115
:1017F00022690023CFF6F07303EB025201E000BF31
:101800000022CB6A23F470031A43CA62896840F647
:10181000FE62CFF61F721140814207D10020E062C4
:10182000A16A012262F30101A162B0BDA06A40F089
:10183000100020F00200A062E06A40F00100E062C7
:101840000120B0BD70B586B0044640F60000C4F279
:101850000100216800F5E0520026914205960496A9
:1018600002D006B070BD00BF41F21801C4F20201FF
:101870000A6842F400720A600A6802F40072019277
:10188000019A0A6842F004020A60096801F0040142
:1018900001910199012102910321039102A900F014
:1018A00091FA40F2F4050820C2F20005C4F20200E9
:1018B0004FF48072C5E9000605F1100080214FF455
:1018C00080634FF0200C80E80C102846C5E90261C7
:1018D000EE6100F0E1F9002818BFFFF725FE256250
:1018E0006C6206B070BD000070B515460446006815
:1018F00042F60002C4F2010290420E4605D042F2C6
:101900000041C4F20101884209D142F20440C4F20C
:101910000100006810F4702F1CBF012070BD94F806
:101920002400012804BF022070BD012084F8240097
:101930002046FFF793FD18B1002184F8241070BDF4
:1019400042F204402168A26AC4F2010040F6017329
:101950009A4300F57F7302F580729942A26243D0E8
:10196000A06A20F48010A0624868400504D5A06AEF
:10197000012262F30D30A062A26A0020D2044FF06F
:10198000000244BFE26A22F00602E26284F8240008
:10199000206A41F2E932C0F6000241F2554341F2B9
:1019A0003D4C00F1280EC0F60003C0F6000C8EE896
:1019B0000C106FF002020A608A682B4642F48072B3
:1019C0008A604C31324600F0AFF92068816801F43A
:1019D00060228168B2F5602F0CBF41F4A00141F490
:1019E00080118160002070BD026812F4702FB7D0A2
:1019F000A26A42F48012A26200684005BCD5B6E734
:101A000010B5D0E90FE3D0F800C0DEF80020DCF814
:101A10000010DA4054072DD511F004042AD0DCF868
:101A20000010890605D4DCF8001021F00401CCF880
:101A300000100422C4F2020202F17C018C454DD94F
:101A400040F20841C4F202018C4500F0AF8040F240
:101A50001C41C4F202018C4500F0AC8040F23041E0
:101A6000C4F202018C4540F0A9804FF48061C2F8B5
:101A70000014F7E0940747D511F0020444D0DCF8D5
:101A80000010890608D4DCF8001021F00A01CCF817
:101A90000010012180F821100422C4F2020202F198
:101AA0007C018C454CD940F20841C4F202018C45BE
:101AB00000F0B48040F21C41C4F202018C4500F0F9
:101AC000B18040F23041C4F202018C4540F0AE805A
:101AD0004FF40071C2F80014D6E000BF4321C4F2F5
:101AE00002018C4542DD6B21C4F202018C454FDCC2
:101AF0004421C4F202018C4500F0A4805821C4F2B4
:101B000002018C4566E000BF120740F1C38011F06E
:101B1000080108BF10BDDCF8001021F00E01CCF860
:101B20000010012101FA03F2CEF804208163016B59
:101B30004FF480720029028440F09680AAE000BF32
:101B40004321C4F202018C4548DD6B21C4F202013D
:101B50008C4555DC4421C4F202018C4500F088809C
:101B60005821C4F202018C4576E000BF0821C4F27E
:101B700002018C456AD01C21C4F202018C456FD051
:101B80003021C4F202018C4524D14FF4806168E019
:101B90006C21C4F202018C455AD08021C4F20201AA
:101BA0008C4517D14FF080615BE000BF0421C2F883
:101BB000001457E04021C2F8001453E002F5886396
:101BC0004FF480219C4508BF4FF48041C2F80014B7
:101BD00048E000BF4FF4802143E000BF0821C4F279
:101BE00002018C4548D01C21C4F202018C4549D029
:101BF0003021C4F202018C452ED14FF4007142E035
:101C00006C21C4F202018C4538D08021C4F202015B
:101C10008C4521D14FF0007135E000BF0221C2F8A0
:101C2000001431E02021C2F800142DE002F5886391
:101C30004FF400319C4508BF4FF40051C2F8001426
:101C400022E000BF4FF480410BE000BF042108E018
:101C50004FF4800105E000BF4FF4003113E000BFF6
:101C600040211160C16AA9B1BDE81040084700BF1A
:101C70004FF4005107E000BF022104E04FF40011CF
:101C800001E000BF20211160816A0022002980F854
:101C90002020E9D110BD0000002804BF01207047BA
:101CA0002DE9F04140F2000CC4F2020C01684FF63D
:101CB000F8320CF58163CBF6FD72994238BF02F51C
:101CC00080624CF6CD430A44CCF6CC43A2FB0323FE
:101CD0006FF003050CF5806405EA9303D0E9012E4B
:101CE000D0F80C803CBF0024C4F20204C0E90F43CA
:101CF0000B6843F6F075AB431A43D0E9045442EA4B
:101D00000E0242EA0802D0E906672A432243324320
:101D10003A430A6000214FF4807281630284BDE877
:101D2000F041084670470000F0B590F820C0BCF1C3
:101D3000010F32D090F821C04FF0010EBCF1010F1D
:101D400080F820E026D14FF0020C80F821C04FF03F
:101D5000000CC0F838C0D0E900C4C56AC66BDCF816
:101D60000070102C27F00107CCF80070006C0EFA00
:101D700000F070600846CCF8043004BF10460A46F4
:101D8000CCF80800CCF80C20DCF8000045B140F09D
:101D90000E000DE0002180F820100220F0BD00BFF1
:101DA00020F00400CCF80000DCF8000040F00A004D
:101DB000CCF80000DCF8000040F00100CCF8000096
:101DC0000020F0BD2DE9F04F83B041F60043C4F28E
:101DD00001030E6806229842019008BF0522002EDA
:101DE000009200F0ED80019840F20C45A0F1804394
:101DF000A3F584334FEAB32740F200404FF6FF7358
:101E0000C4F20105C4F20100009A4FF0000E4FF039
:101E1000010CC1F210034FF0000A4FF0000B4FF01D
:101E20000F08052F38BF3A46009208E00E680AF105
:101E3000010A36FA0AF20EF1040E00F0C1800CFA23
:101E40000AF916EA090FF1D04E689E4212DC122EF2
:101E500056D8DFE806F0350B4549555555555555CB
:101E6000555555555555554D510000BFD1F80CB03D
:101E700046E000BF4FF6FF72C1F2210296420FDC2E
:101E80000022C1F2110296421AD00022C1F21202BF
:101E9000964215D00022C1F22102964210D02FE0C6
:101EA0000022C1F2220296420AD00022C1F231027F
:101EB000964205D00022C1F23202964220D100BFE4
:101EC0008E684EB1012E019A14BFC2F81490C2F868
:101ED00010904FF0080B13E04FF0040B10E000BF20
:101EE000CF6807F1080B0BE04FF0000B08E000BFD4
:101EF000CF6807F1040B03E0CF6807F10C0B00BFBC
:101F00007446BAF1080F28BF203C019F28BF043750
:101F10003E6808FA04F226EA02020BFA04F632439B
:101F20003A60CA79D2067FF581AF41F21807C4F250
:101F300002073A684FF6084C42F001023A603A68EC
:101F4000CFF6FF7C02F001020292029A2AF003020D
:101F5000024452F80C700EF00C0608FA06F4A7437F
:101F6000009C04FA06F6374342F80C70D1F804C01E
:101F70005FEACC32026854BF22EA090642EA090647
:101F80005FEA8C320660426854BF22EA090642EAE0
:101F900009065FEACC224660826854BF22EA09063D
:101FA00042EA09065FEA8C2286604FF0010C2A683B
:101FB00054BF22EA090642EA09062E6036E700BF4E
:101FC00003B0BDE8F08F0000002A08BF09040161DA
:101FD0007047000040F2BC20C2F200000068704769
:101FE00040F2000040F2BC21C2F20000C2F2000147
:101FF00000780A68104408607047000080B542F21B
:102000000000C4F20200016841F0100101600320E9
:1020100000F082F80F2000F005F800F027F800200B
:1020200080BD000070B540F20006C2F2000640F22A
:1020300008013278C2F200014FF47A730968B3FBE9
:10204000F2F20446B1FBF2F1084600F0F5FD0F2C68
:102050004FF0010508D838B94FF0FF302146002273
:10206000002500F02DF87460284670BD82B041F262
:102070001800C4F20200016841F00101016001682A
:1020800001F0010101910199416841F080514160E5
:10209000406800F080500090009802B07047000047
:1020A000002848BF704700F01F01012202FA01F129
:1020B0004EF200124009CEF2000242F820107047A2
:1020C00010B54EF60C5CCEF2000CDCF80030C3F319
:1020D000022E8EF00704042C28BF0424BEF1030353
:1020E0004FF0FF3E0EFA04F438BF0023A14399409D
:1020F0000EFA03F39A43114300F00F02043A6244CC
:1021000009010C3200F16043B0F1FF3FC8BF03F595
:102110006442117010BD00004EF60C51CEF2000169
:102120000A684FF6FF031A4060F30A2242F080600B
:1021300040F0FD70086070472DE9F04182B0044620
:10214000007841F21C06C007C4F202064AD030688B
:1021500010F0805808D1306840F08050306030680E
:1021600000F080500190019847F20007C4F2000788
:102170003868C00512D4386840F480703860FFF7C2
:1021800029FF05463868C00508D4FFF723FF401B28
:102190006428F7D9032002B0BDE8F081706810F41C
:1021A000407012D0616801F4407188420DD07068AF
:1021B00040F24042C4F24222012320F440711360F5
:1021C0000023C007136071602AD17068616820F431
:1021D00040700843B8F1000F706003D1306820F000
:1021E000805030602068810707D556F8181CA26817
:1021F00021F44041114346F8181CC00604D40020C5
:1022000002B0BDE8F08100BF56F8180C616920F4F7
:102210008000084346F8180C002002B0BDE8F081A9
:10222000FFF7D8FE054641F2883700BF7068800787
:10223000CBD4FFF7CFFE401BB8424FF00300F5D9D7
:10224000EBE700002DE9F04381B0002800F0858025
:1022500042F20008C4F202080446D8F800000D4615
:1022600000F0070088420CD2D8F8000020F00700E8
:102270002843C8F80000D8F8000000F00700A84282
:102280006BD1206841F204098107C4F2020917D515
:10229000410705D5D9F8001041F4E061C9F80010F4
:1022A000010705D5D9F8001041F46051C9F80010B4
:1022B000D9F80010A26821F0F0011143C9F800100C
:1022C000C00741D1D8F8000000F00700A8420CD99F
:1022D000D8F8000020F007002843C8F80000D8F81C
:1022E000000000F00700A84237D12068410707D559
:1022F000D9F80010E26821F4E0611143C9F8001038
:10230000000708D5D9F80000216920F4605040EAA0
:10231000C100C9F80000D9F8002002F00C0008281C
:1023200041F20020C0F27A0050D144F63253C2F399
:102330008341C0F60003595CD2033BD440F6001041
:10234000C0F23D00484341E0606802280AD00128FD
:102350002AD159F8041C890308D4012001B0BDE832
:10236000F08300BF59F8041C8901F6D5D9F8001094
:1023700021F003010843C9F80000FFF72BFE0646D1
:1023800041F28837D9F80000616800F00C00B0EB2A
:10239000810F97D0FFF71EFE801BB842F2D90320B1
:1023A00001B0BDE8F08300BF59F8041C8907D4D5FB
:1023B000DCE700BFD9F8002044F61853C2F34042CE
:1023C000C0F600039A5C4843B0FBF2F0D9F8001065
:1023D00044F61A52C1F30311C0F60002515C40F2F8
:1023E000080220FA01F140F20400C2F20000006885
:1023F000C2F200021160FFF715FE002001B0BDE837
:10240000F083000040F2080041F20401C2F2000033
:10241000C4F202010068096844F62A52C1F302219D
:10242000C0F60002515CC8407047000040F208004E
:1024300041F20401C2F20000C4F20201006809681E
:1024400044F62A52C1F3C221C0F60002515CC840D2
:10245000704700002DE9F04182B0002868D00446A2
:10246000007841F20006C007C4F2020625D0706869
:1024700000F00C0004281BD0706800F00C00082845
:1024800002D17068C00313D46068002800F068812E
:10249000B0F5A02F00F07C81B0F5803F00F07C818A
:1024A000306820F480303060306820F4802076E19D
:1024B0003068800301D56068D0B32078800718D5D4
:1024C000706810F00C0F07D0706800F00C0008283E
:1024D0006ED17068C0036BD43068800702D5206964
:1024E000012825D13068616920F0F80040EAC10078
:1024F0003060207800071FD42078400732D4E56987
:1025000095B1706800F00C00082840F08F80012D14
:102510000ED07068216A00F480328A4208D1616A64
:1025200000F47010884203D1002002B0BDE8F081B1
:10253000012002B0BDE8F081A069002862D000202F
:10254000C4F242200121C0F88014FFF743FD054684
:10255000706A800700F18C80FFF73CFD401B022869
:10256000F6D92AE1F06910F0805808D1F06940F0FE
:102570008050F061F06900F080500090009847F2C0
:102580000007C4F200073868C00529D4386840F451
:1025900080703860FFF71EFD054600BF3868C00533
:1025A0001ED4FFF717FD401B6428F7D905E100BFD3
:1025B0002069002840F20000C4F2422000F082802E
:1025C00001210160FFF706FD054600BF3068800766
:1025D0003FF588AFFFF7FEFC401B0228F6D9ECE080
:1025E000E068002800F08080052800F0978001282E
:1025F00000F09880306A20F001003062306A20F0EC
:10260000040092E00020C4F242200021C0F88014AF
:10261000FFF7E0FC054600BF706A80077FF56CAFEE
:10262000FFF7D8FC401B0228F6D9C6E00027C4F209
:10263000422700203866FFF7CDFC022D05460BD15E
:102640003068800140F1BE80FFF7C4FC401B0228C7
:102650004FF00300F4D968E7306880017FF564AF7C
:10266000FFF7B8FC401B02284FF00300F4D95CE7E9
:1026700040F20800C2F20000006844F6D351C1F2F3
:102680006201A0FB0101480A019000BF00BF019850
:10269000411E002801913FF42FAF00BF0198411E59
:1026A000002801913FF428AF00BF0198411E002887
:1026B00001913FF421AF00BF0198411E0028019114
:1026C000E4D119E700210160FFF784FC054600BF53
:1026D000306880077FF50DAFFFF77CFC401B0228B8
:1026E0004FF00300F4D920E7306A20F00100306297
:1026F000306A20F004003062FFF76CFC054641F2BE
:10270000883700BF306A800720D5FFF763FC401B85
:10271000B8424FF00300F5D907E700BF306A40F038
:1027200004003062306A40F001003062FFF752FC72
:10273000054641F2883700BF306A800706D4FFF7AC
:1027400049FC401BB842F7D937E000BFB8F1000F91
:102750007FF4D5AEF06920F08050F061CFE600BF85
:10276000306820F480303060306820F480203060A1
:10277000FFF730FC054600BF306880037FF59DAE53
:10278000FFF728FC401B64284FF00300F4D9CCE687
:10279000306840F480203060306840F48030306031
:1027A000FFF718FC054600BF306880033FF585AE93
:1027B000FFF710FC401B6428F6D9032002B0BDE8E7
:1027C000F08100BF206AB0F5803F05D17168A26832
:1027D00021F40031114371607168626A21F474114F
:1027E00010430843706001203866FFF7F3FB04468E
:1027F000306880013FF598AEFFF7ECFB001B022824
:102800004FF00300F4D990E670B538B10446406A41
:1028100030B10020206104F1140007E0012070BDF8
:102820006068B0F5827F03D004F11C0000210160D4
:102830000026A66294F8510020B9204684F8506022
:1028400000F038F8022084F8510094E8071001F4F1
:102850008271036802F4044223F040030360236999
:1028600011440CF40062114403F002026369114444
:1028700003F00102A369E569114403F400721144F5
:1028800005F03802256A114405F08002A56A11435B
:1028900005F4005211430160042101EA1341416033
:1028A000C16921F40061C1610120666584F85100AD
:1028B000304670BD10B586B0006843F60001C4F222
:1028C000000188424FF00001CDE90411CDE9021169
:1028D0002CD043F20001C4F20101884257D141F2E9
:1028E0001800C4F20200016840F6000441F480516F
:1028F00001600168C4F2010401F480510191019961
:10290000016841F004010160006802A900F00400C0
:1029100001900198A02002900220039003200590CE
:102920002046FFF74FFA402029E000BF41F218008F
:10293000C4F20200416841F480414160416801F401
:10294000804101910199016841F00801016000682E
:1029500002A900F00800019001984FF42040029075
:10296000022003900320059040F60000C4F201000D
:1029700000F580642046FFF725FA4FF4804002906E
:102980000020CDE9030002A92046FFF71BFA06B09C
:1029900010BD00002DE9F04381B0044690F85000CE
:1029A000012803D1022001B0BDE8F08301201E46BA
:1029B00015460F4684F85000FFF70CFB94F85110B1
:1029C000814601290CD06068B0F5827F40F0A0807C
:1029D000A06800284FF0020008BF042940F0998049
:1029E000002F4FF0010018BF002D00F09280002E44
:1029F00000F08F8094F85100002104281CBF0520AE
:102A000084F851006165A563E687A6872763E6869B
:102A10002068A686216461640168490603D40168C0
:102A200041F0400101606168731EE268B1FA81F112
:102A3000B3FA83F3DDF8208049095B09B2F5006F32
:102A400041EA03016ED131B137F8021BC16027633F
:102A5000E08E0138E086012518F1010031D101E056
:102A6000FFF7B8FAE08E18B9E08F002800F0C280B6
:102A70002068816889070CD5E18E51B1012D08D1FC
:102A8000216B002531F8022BC2602163E18E0139F0
:102A9000E1868168C907E3D0E18F0029E0D0C068F2
:102AA000A16B012521F8020BA163E08F0138E087BB
:102AB000D6E700BFFFF78EFAA0EB0900404580F093
:102AC000A980E08E18B9E08F002800F0938020687C
:102AD000816889070CD5E18E51B1012D08D1216B98
:102AE000002531F8022BC2602163E18E0139E186B5
:102AF0008168C907DED0E18F0029DBD0C068A16BF7
:102B0000012521F8020BA163E08F0138E087D1E7AE
:102B10000220012184F85110002184F8501001B0E6
:102B2000BDE8F08339B139780173206B013020633F
:102B3000E08E0138E086012518F1010032D101E074
:102B4000FFF748FAE08E10B9E08F002852D02068D5
:102B5000816889070ED5E18E61B1012D0AD1216B03
:102B6000002509780173216B206801312163E18E12
:102B70000139E1868168C907E2D0E18F0029DFD001
:102B8000C068A16B01250870A06B0130A063E08FC5
:102B90000138E087D4E700BFFFF71CFAA0EB09007B
:102BA000404539D2E08E08B9E08F18B320688168BB
:102BB00089070ED5E18E61B1012D0AD1216B002567
:102BC00009780173216B206801312163E18E01399D
:102BD000E1868168C907DFD0E18F0029DCD0C068B9
:102BE000A16B01250870A06B0130A063E08F013854
:102BF000E087D1E72046802142464B4601F0F4F8B9
:102C000060B1606D40F020006065202060650120AB
:102C10007FE700BF03207CE703207AE7A068002855
:102C20004FF000007FF475AF00902168CA680092F1
:102C30008968009100996CE7411E0020B0EB116F8C
:102C40001CBF012070474EF21002CEF2000251600C
:102C50004EF62351CEF20001F0230B700721906055
:102C600011607047704700007047000010B590F881
:102C70003C20012A4FF002023FD080F83D2002683C
:102C8000D2F804E0D2F808C00C682EF07003234399
:102C900040F6FF34C4F20004A242536010DCB2F1EB
:102CA000804F1FD040F20043C4F200039A4219D073
:102CB00040F60003C4F200039A4213D017E000BFAD
:102CC00040F60043C4F200039A420BD043F20043A3
:102CD000C4F201039A4205D042F60043C4F2010354
:102CE0009A4204D149682CF0800319439160012174
:102CF000002280F83D1080F83C20104610BD0000F6
:102D0000002804BF0120704710B5044690F83D002C
:102D100028B9002084F83C00204600F085F8022005
:102D200084F83D00206840F6FF330268C4F20003D7
:102D300043F2004C9842C4F2010C21DCB0F1804F08
:102D40002CD040F20041C4F20001884226D040F667
:102D50000001C4F20001884220D0984224DCB0F186
:102D6000804F2FD040F20041C4F20001884229D0A8
:102D700040F60001C4F20001884223D026E000BFE3
:102D800040F60041C4F20001884207D0604505D0FA
:102D900042F60041C4F201018842DED1A16822F06E
:102DA00070020A439842DADD40F60041C4F20001A5
:102DB000884207D0604505D042F60041C4F20101C7
:102DC000884203D1216922F440720A43A36922F0A8
:102DD0008001D4F804E0E268194360450160C262F2
:102DE000C0F828E005D042F60041C4F20101884253
:102DF00001D16169016301214161002084F846101D
:102E000084F83E1084F83F1084F8401084F8411094
:102E100084F8421084F8431084F8441084F8451074
:102E200084F83D1010BD000080B582B00068B0F19C
:102E3000804F1CBF02B080BD41F21C00C4F20200F2
:102E40000168002241F0010101600068002100F0EA
:102E50000100019001981C20FFF732F91C2002B0FC
:102E6000BDE88040FFF71CB990F83D1001291CBF58
:102E700001207047022180F83D10006840F6FF32C3
:102E8000C168C4F20002904241F00101C1600FDC50
:102E9000B0F1804F1ED040F20041C4F200018842E0
:102EA00018D040F60001C4F20001884212D018E0A8
:102EB00040F60041C4F2000188420BD043F20041C9
:102EC000C4F20101884205D042F60041C4F201017A
:102ED000884206D1816801F00701062904BF00205D
:102EE0007047016841F00101016000207047000057
:102EF00080B590F83C20012A4FF0020200F0BF801C
:102F000080F83D20D0F800C04FF67772DCF808302A
:102F100023EA0202CCF808200B683F2B1CDD5F2B54
:102F200020DD602B50D0B3F5005F6DD0702B40F0EA
:102F3000A080D1E901E3C968DCF8082043EA0E0368
:102F400022F47F4243EA01211143CCF80810DCF857
:102F5000081041F077018AE01F2B29DC63B3102BA6
:102F60002AD086E0402B63D0502B40F08280D1F8ED
:102F700004E0C968DCF82030DCF8202022F00102EF
:102F8000CCF82020DCF8182022F0F00242EA0111EF
:102F900023F00A0242EA0E02CCF81810CCF82020E6
:102FA000DCF8081041F0570121F020015FE000BF7C
:102FB000202B01D0302B5CD1DCF8081021F07001FF
:102FC000194341F0070152E0D1F804E0C968DCF888
:102FD000203023F01003CCF82030DCF81830DCF877
:102FE000202023F4704322F0A00243EA013142EA98
:102FF0000E12CCF81810CCF82020DCF8081041F0A4
:10300000670121F0100132E0D1E901E3C968DCF881
:10301000082043EA0E0322F47F4243EA01211143D0
:10302000CCF80810DCF8081041F480411FE000BF24
:10303000D1F804E0C968DCF82030DCF8202022F068
:103040000102CCF82020DCF8182022F0F00242EA3D
:10305000011123F00A0242EA0E02CCF81810CCF853
:103060002020DCF8081041F0470121F03001CCF8B5
:1030700008100121002280F83D1080F83C20104605
:1030800080BD00007047000010B501680446086963
:10309000800744BFC8685FEA807039D40869400778
:1030A00044BFC8685FEA40703ED40869000744BF67
:1030B000C8685FEA007045D40869C00644BFC868A4
:1030C0005FEAC0604AD40869C0071CBFC8685FEAED
:1030D000C07051D10869000644BFC8685FEA00604B
:1030E00052D40869400644BFC8685FEA406053D4C0
:1030F0000869800646BFC8685FEA806010BD6FF04F
:10310000200220460A61BDE81040FFF7ADBD00BFB8
:103110006FF002000861012020778869800743D0A2
:103120002046FFF7AFFF45E06FF004000861022082
:103130002077886910F4407F40D02046FFF7A2FF37
:1031400042E000BF6FF00800086104202077C869E2
:1031500080073DD02046FFF795FF3FE06FF010005D
:10316000086108202077C86910F4407F3AD02046D3
:10317000FFF788FF3CE000BF6FF0010008612046C8
:1031800000F086FA2168A5E76FF08000086120460C
:10319000FFF768FD2168A4E76FF040000861204652
:1031A00000F078FA2168A3E7204600F025F82046D1
:1031B00000F0FAF92168002020776FE7204600F040
:1031C0001BF8204600F0F0F92168002020776CE71A
:1031D000204600F011F8204600F0E6F921680020B2
:1031E000207769E7204600F007F8204600F0DCF978
:1031F00021680020207766E7704700002DE9F04144
:1032000090F83C30012B04BF0220BDE8F0814FEA6A
:10321000B202032A00F21381DFE802F002468ED8E0
:10322000036843F200461A6AC4F2010622F0010262
:103230001A621D6A1A465C6852F818EF8F68D1F856
:1032400000C025F00205B34245EA070505D042F665
:103250000047C4F20107BB4205D1CF6825F00C0539
:1032600027F004073D43B34205D042F60046C4F2BE
:103270000106B34205D1D1E9056724F44074344313
:103280003C432EF0730747EA0C075C609F614F6870
:1032900009695F631D629F6947F008079F619F6925
:1032A00027F004079F61C7E0036843F200481A6AE9
:1032B000C4F2010822F010021A621D6A1A465C6804
:1032C00052F818EF8F68D1F800C025F0200543456B
:1032D00045EA071505D042F60047C4F20107BB4294
:1032E00007D1CF686FF0400625F0C00506EA071643
:1032F0003543434505D042F60046C4F20106B342C9
:1033000007D1D1E9056724F4406444EA860444EA1D
:1033100087042EF4E64747EA0C275C609F614F68FC
:1033200009699F631D629F6947F400679F619F69F8
:1033300027F480679F617EE0036843F200481A6AC1
:10334000C4F2010822F480721A621D6A1A465C688F
:1033500052F81CCF8F68D1F800E025F40075434582
:1033600045EA072505D042F60047C4F20107BB42F3
:1033700008D1CF6840F2FF463F0225F4406527EAB6
:1033800006063543434505D042F60046C4F2010621
:10339000B34207D1D1E9056724F4405444EA061446
:1033A00044EA07142CF0730747EA0E075C60DF61FC
:1033B0004F680969DF631D62DF6947F00807DF6155
:1033C000DF6927F00407DF6136E000BF036843F2DE
:1033D00000471A6AC4F2010722F480521A621A46A0
:1033E000D3F820C05D6852F81C4FD1F800E08E6819
:1033F000BB4205D042F60047C4F20107BB4204D1EC
:103400004F6925F4804545EA87152CF4005747EAB3
:10341000063724F4E64646EA0E265D60DE614E6815
:1034200009691E641F62DF6947F40067DF61DF69B5
:1034300027F48067DF6109021368194311600021D6
:1034400080F83C100846BDE8F0810000002804BF69
:103450000120704710B5044690F83D0028B90020BF
:1034600084F83C00204600F085F8022084F83D00F6
:10347000206840F6FF330268C4F2000343F2004CB8
:103480009842C4F2010C21DCB0F1804F2CD040F204
:103490000041C4F20001884226D040F60001C4F287
:1034A0000001884220D0984224DCB0F1804F2FD018
:1034B00040F20041C4F20001884229D040F60001E8
:1034C000C4F20001884223D026E000BF40F600414C
:1034D000C4F20001884207D0604505D042F60041A1
:1034E000C4F201018842DED1A16822F070020A43D1
:1034F0009842DADD40F60041C4F20001884207D06C
:10350000604505D042F60041C4F20101884203D172
:10351000216922F440720A43A36922F08001D4F8A1
:1035200004E0E268194360450160C262C0F828E027
:1035300005D042F60041C4F20101884201D161691F
:10354000016301214161002084F8461084F83E1097
:1035500084F83F1084F8401084F8411084F8421039
:1035600084F8431084F8441084F8451084F83D1022
:1035700010BD000081B0006840F20041C4F20001BB
:10358000884201D001B0704741F21C00C4F2020031
:10359000016841F002010160006800F00200009043
:1035A000009801B0704700007047000041B1082941
:1035B00010D0042914BF00F1410200F13F020BE0DA
:1035C00090F83E20012A1CBF01207047022280F89B
:1035D0003E2013E000F140021278012A1CBF0120B6
:1035E00070470222082907D0042914BF80F841201F
:1035F00080F83F2002E000BF80F84020006801F022
:103600001F010122036A02FA01F123EA01020262A8
:10361000026A114340F6FF32C4F200029042016296
:103620000EDCB0F1804F25D040F20041C4F2000121
:1036300088421FD040F60001C4F2000118E000BF2C
:1036400040F60041C4F20001884213D043F2004228
:10365000C4F2010242F600419042C4F2010101D0DD
:1036600088420ED1436C904243F40043436401D03E
:10367000884206D1816801F00701062904BF0020B5
:103680007047016841F001010160002070470000AF
:103690007047000070470000002804BF01207047F9
:1036A00010B5044690F83D0028B9002084F83C008D
:1036B000204600F05FF8242084F83D002068D4E91B
:1036C0000212C36823F40053C360036923F4405318
:1036D0001A430261D4E904231143C268194341F239
:1036E0000C639A431143C1604169A26921F440719E
:1036F000114343F60002C4F201029042416103D03B
:10370000FEF780FE02E000BFFEF790FE626819211E
:1037100048439100B0FBF1F048F21F51C5F2EB11A4
:10372000A0FB01235A096FF0630302FB030032235D
:1037300003EB0010A0FB0101F02303EA5113206802
:1037400003EB0212C1F3431111448160016921F4BA
:1037500090410161416921F02A014161C16841F450
:103760000051C16000202021206484F83D1084F8BD
:103770003E1010BD70B586B040F60004C4F20104DE
:10378000006804F5405100268842049602D006B035
:1037900070BD00BF41F21800C4F20200016802AD22
:1037A00041F480410160016801F480410191019977
:1037B000016841F0040101600068294600F004003E
:1037C000019001984FF400700290022003900320B2
:1037D00005902046FEF7F6FA4FF48060CDE9020628
:1037E000204629460496FEF7EDFA06B070BD0000AB
:1037F0002DE9F04381B0044690F83D0020280DD11A
:103800000F4600294FF0010000F092801646002A72
:1038100000F08E8094F83C00012803D1022001B012
:10382000BDE8F083012084F83C004FF0000921201E
:103830001D46C4F8409084F83D00FEF7CBFBA684FB
:10384000E684A1688046B1F5805F25D12069002813
:103850001CBF38464F463E46074684F83C90E08CF5
:1038600000B3681C20D0002D66D120680BE000BF9B
:1038700036F8021B00276FF35F214160E18C0139AC
:10388000E184E18C81B30168090675D5002FEFD082
:1038900017F8011BF1E700BF002684F83C90E08C8C
:1038A0000028DED120681FE0206802E001680906D8
:1038B00009D40168090606D4016809065CBF0168DD
:1038C0005FEA0161F2D51FB117F8011B05E000BFE7
:1038D00036F8021B00276FF35F214160E18C01394C
:1038E000E184E18C0029E4D1016849061CD4002D53
:1038F00042D0691C0ED10168490615D401684906F9
:103900005CBF01685FEA41610ED401684906F2D5E7
:103910000AE000BFFEF75EFBA0EB08012068A942A9
:103920002AD800684006F5D5202084F83D00002004
:1039300001B0BDE8F08300BF206800BF0168090640
:1039400008D4FEF747FBA0EB08012068A942F5D98F
:1039500012E000BF17B117F8011B04E036F8021B94
:1039600000276FF35F214160E18C0139E184E18C34
:103970000029E3D1B8E700BFC16821F4D071C1606C
:10398000416921F001014161202084F83D0084F863
:103990003E00002084F83C00032001B0BDE8F08325
:1039A000FEE70000B0B584B040F2C40042F200412E
:1039B000C2F20000C4F20101002401254FF460228C
:1039C00005730475C261C0E9001484600561FDF7E8
:1039D00081FE002818BFFDF7A7FD0420039040F2E8
:1039E000C400C2F2000001A9CDE90145FDF7A2FD26
:1039F000002818BFFDF798FD04B0B0BD80B582B0B7
:103A000041F21400C4F202000168002241F00101F9
:103A100001600068002100F00100019001980B2076
:103A2000FEF74EFB0B2002B0BDE88040FEF738BB2E
:103A30002DE9F04784B041F21800C4F20200016899
:103A400040F6000A41F0200101600168C4F2010A59
:103A500001F020010091009901680AF5006541F02C
:103A6000100101600168002201F01001009100992D
:103A700001680F2641F00401016001684FF0000960
:103A800001F0040100910099016841F00801016012
:103A900000680F2100F00800009000982846FEF70B
:103AA00093FA5046102100224FF01008FEF78CFACE
:103AB00000966E460127022428463146CDE9017959
:103AC0000394FEF77FF950463146CDE90087CDE9F2
:103AD0000294FEF777F904B0BDE8F08780B540F2B4
:103AE000381043F20001C2F20000C4F201014FF4A9
:103AF000827200234FF4007C80E80E000A21C0E9A6
:103B00000333C0E9053CC361C0E90833C0E90A31A9
:103B1000FEF77AFE002808BF80BDBDE88040FDF7B3
:103B200003BD0000B0B540F2901043F60001C2F2B0
:103B30000000C4F200014FF4827200234FF4006CC5
:103B40004FF0010E4FF40074282580E80E100A2172
:103B5000C0E9043EC0E90645C0E90833C0E90A31BE
:103B6000FEF752FE002808BFB0BDBDE8B040FDF72B
:103B7000DBBC000080B586B040F2E8100021C2F244
:103B800000004FF08042482340F2E73C0591CDE928
:103B90000311CDE90011C0E90023C0E9021C016155
:103BA0008161FFF7ADF8002818BFFDF7BDFC4FF4A9
:103BB0008050029040F2E810C2F2000002A9FFF724
:103BC00097F9002818BFFDF7AFFC40F2E810C2F2E9
:103BD00000006946FFF74AF8002818BFFDF7A4FC6B
:103BE00006B080BDB0B590B040F2004540F2302044
:103BF000C4F200050021C2F200004FF6FF72CDE9C9
:103C00000811CDE90611CDE90411C0E90051C0E960
:103C1000021201618161FFF719FC002818BFFDF74E
:103C200083FC40F23020C2F2000008A9FFF71EF822
:103C3000002818BFFDF778FC602001900020CDE936
:103C40000200059040F23020C2F2000001A90022DB
:103C5000FFF7D4FA002818BFFDF766FC40F23020C9
:103C6000C2F2000001A90422FFF7C8FA002818BF19
:103C7000FDF75AFC40F23024C2F2000401A92046AC
:103C80000822FFF7BBFA002818BFFDF74DFC20689B
:103C90000021A8420E9101D010B0B0BD41F2180031
:103CA000C4F20200016841F01001016000680CA933
:103CB00000F010000B900B984FF4E0700C90022075
:103CC0000D900F9041F20000C4F20100FEF77AF867
:103CD0000420C4F20100016841F0E06141F4406158
:103CE000016010B0B0BD000080B540F2782043F60E
:103CF0000001C2F20000C4F2010100234FF00C0CDD
:103D00004FF4E13280E80E00C0E90333C0E905C397
:103D1000C361FFF7C1FC002808BF80BDBDE880403B
:103D2000FDF702BCFEE700002DE9F04381B040F64C
:103D30000004C4F20104204610210022FEF744F9D9
:103D400040F27006C2F2000640F2901840F20C07F2
:103D5000B51CC2F20008C2F200074FF0FF3940461E
:103D600039462A460123CDF80090FEF713FE20467F
:103D700010210122FEF728F9204610210022FEF72B
:103D800023F9404639462A460123CDF80090FEF734
:103D900001FE204610210122FEF716F970886FF30C
:103DA0009F3000F0E1FD0021C4F2B43100F0F0FDDD
:103DB0004FF0625100F0ECFDB168044600F0B4FE33
:103DC000C6E90240204600F041FD024603A00B4632
:103DD00001B0BDE8F04300F003B900BF25660A005A
:103DE000FEE70000704700002DE9F04182B01E465A
:103DF00090460D460446FEF7EDF8301A00EB080732
:103E0000FEF7E8F840F20801C2F200010968C1F3C8
:103E1000CB317943019121688A682A40AA4227D18F
:103E2000064618F101001FD0FEF7D4F8801BB842F7
:103E300022D2019801990028A1F101010191216884
:103E4000896808BF074601EA0500A842ECD00FE0E8
:103E500088682840A8420BD188682840A84207D12A
:103E600088682840A84203D188682840A842EFD03B
:103E7000002002B0BDE8F081D4E900014268B1F54C
:103E8000827F22F0E00242600AD1A168B1F5004FC2
:103E900002D0B1F5806F03D1016821F040010160CB
:103EA000A16AB1F5005F07D1016821F400510160FA
:103EB000016841F400510160012084F851000020A4
:103EC00084F85000032002B0BDE8F0817047000084
:103ED000FEF786B87047000040F2E810C2F200001A
:103EE000FFF7D2B8FEE7000096B0FEF787F800248F
:103EF0000120CDE91144CDE90F440C9010904FF40E
:103F0000E0104FF48031022515900CA80694CDE9FD
:103F10000444CDE90244CDE90D14CDE91351FEF777
:103F200099FA28B1EFF3108072B600BFFEE700BF28
:103F30000F20CDE907054FF480600A904FF4A06090
:103F40000B9007A802210994FEF77CF920B1EFF34A
:103F5000108072B6FEE700BF022001904FF440408F
:103F6000039001A8FEF7E8F820B1EFF3108072B6D5
:103F7000FEE700BFFFF75CFDFFF740FDFFF7AEFD7A
:103F8000FFF710FDFFF7F6FDFFF72CFEFFF7ACFE85
:103F9000FFF7C8FD40F23024C2F2000420460021A1
:103FA000FFF704FB20460421FFF700FB2046082111
:103FB000FFF7FCFA40F2C40040F2C021C2F2000058
:103FC000C2F200010A22FDF78FFC40F2E810C2F2B3
:103FD0000000FEF749FF00BFFFF7A6FEFCE7000068
:103FE00083B010B5E5B0844667A86C460EC067AADA
:103FF000204661466492FCF75FF92046FCF76EF9B3
:1040000082B240F27820C2F2000021464FF0FF3326
:10401000FFF7EEFB65B0BDE8104003B070475FEA04
:10402000400C08BF91F0000F4FEA8C234FEAC122E9
:1040300043EA51514FEA1C5018BF00F5F0404FEAD7
:10404000300018BF41F000415FEA6C5C00F029804D
:10405000BCF1FF3F08BF40F080407047130C06BF23
:1040600012044FF0100C4FF0000C130E04BF12029C
:104070000CF1080C130F04BF12010CF1040C930F88
:1040800004BF92000CF1020CD30F04BF52000CF1DC
:10409000010C11464FF00002A0F11F00A0EB0C0034
:1040A000704711F0004F08BF704731F000413FF4F6
:1040B000D5AF0B0C06BF09044FF0100C4FF0000CED
:1040C0000B0E04BF09020CF1080C0B0F04BF090111
:1040D0000CF1040C8B0F04BF89000CF1020CCB0F08
:1040E00004BF49000CF1010CCCF1200322FA03F3C8
:1040F00041EA030102FA0CF2A0EB0C0000F101000E
:104100007047000023F07F4720F07F4C80EA0300D7
:1041100000F00040ACEB070303F57C5303F1FF0311
:104120002DE9804909B44FEA144324EA03484FEAD1
:10413000154B25EA0B4E0FF2042606EB13273E78AB
:1041400003FB0667C7F5000707FB06F64FEAD646EE
:1041500006F102064FEA543707FB066CCCF1005C0F
:104160004FEA1C472CEA074C0CFB06F507FB06F44C
:1041700004EB15464FEA961649085FEA320234BF4F
:1041800000204FF000404FEAD13706FB07FC4FEA12
:104190001C4C0CFB0BF7D21B03FB0CF761EB07016C
:1041A0000CFB0EF7B0EB074072EB17420CFB08F765
:1041B00034BFA2EB0742B2EB074261EB17414FEA73
:1041C0000C444FEA910706FB07FC4FEA1C4C0CFB22
:1041D0000BF7B0EBC74072EB573203FB0CF734BF61
:1041E000A2EBC742B2EBC74261EB57310CFB0EF7B3
:1041F000B0EBC70072EB57720CFB08F734BFA2EBB1
:10420000C702B2EBC70261EB57714FEA816141EA25
:1042100092114FEA826242EA90124FEA806004EB08
:10422000CC04039F4FEAD13706FB07FC4FEA1C4C36
:104230000CFB0BF7D21B03FB0CF761EB07010CFB2C
:104240000EF7B0EB074072EB17420CFB08F734BFD8
:10425000A2EB0742B2EB074261EB17414FEA8C55E4
:1042600004EB9C244FEA910706FB07FC4FEA1C4C29
:104270000CFB0BF7B0EBC74072EB573203FB0CF7AC
:1042800034BFA2EBC742B2EBC74261EB57310CFB24
:104290000EF7B0EBC70072EB57720CFB08F734BF98
:1042A000A2EBC702B2EBC70261EB57714FEA816123
:1042B00041EA92114FEA826242EA90124FEA80602C
:1042C00015EB4C2544F100044FEAD13706FB07FCFF
:1042D0004FEA1C4C0CFB0BF7D21B03FB0CF761EBFA
:1042E00007010CFB0EF7B0EB074072EB17420CFB1B
:1042F00008F734BFA2EB0742B2EB074261EB17416C
:104300004FEA813141EA92414FEA823242EA9042D9
:104310004FEA80304FEA0C7615EB1C1544F100048F
:1043200048EA03434EEA0B484FF0000EB2EB080C8C
:1043300071EB030724BF624639464EEB0E0E4FF079
:10434000000B0018524149414BEB0B0BB2EB080C30
:1043500071EB03077BF1000B24BF624639464EEB3D
:104360000E0E4FF0000B0018524149414BEB0B0B66
:10437000B2EB080C71EB03077BF1000B24BF624624
:1043800039464EEB0E0E51EA020718BF46F0010601
:1043900016EB0E7655F1000254F1000103D5BDE88D
:1043A0008901BDE80088BDE88901BDE80048B6196B
:1043B000524141EB0101A3F10103704780807F7EF0
:1043C0007D7C7B7A7978777676757473727171708B
:1043D0006F6E6E6D6C6C6B6A6A696868676666653D
:1043E0006464636362616160605F5F5E5E5D5D5CCB
:1043F0005C5B5B5A5A59595858575756565555553C
:104400005454535352525251515050504F4F4F4E9B
:104410004E4D4D4D4C4C4C4B4B4B4A4A4A494949E9
:10442000484848474747474646464545454444442B
:104430004443434343424242424141419C46002B54
:1044400030D477002BD04FEA37071CB503B44FF0B8
:1044500010004FF01001BAF1000F06D0BCF1000FB0
:10446000DCBF40F0080040F008014FF000000FBC36
:10447000BDE810400BF1010BBBF1010F08BF5FEA73
:10448000170722BF12F1010211F101014FF00041A3
:1044900043F1000300F0004043EA00007047F9D305
:1044A0005708D0E746EA06464FEA164613F1400F92
:1044B0001FDD13F1200FDFBF16430A460021203312
:1044C0005B42BED0C3F1200746EA06464FEA1646D5
:1044D00002FA07F746EA070622FA03F2C3F12007B9
:1044E00001FA07F742EA070221FA03F14FF000034D
:1044F000A7E746EA020646EA06464FEA164646EAB5
:104500000106BCBF46EA0646360C4FF000034FF0EA
:1045100000024FF0000194E72DE9804C70B49A46F8
:10452000934691E8380007C831EA400C48BF34EAA6
:10453000430C03D5FFF7E6FDFFF780FFF0BCBDE8B5
:10454000008C2DE9804C70B49A46934691E838006F
:1045500007C810F0804F08BF13F0804F03D100F060
:1045600005F8FFF76BFFF0BCBDE8008C20F07F473B
:1045700023F07F4C80EA030000F0004007EB0C03BF
:10458000A3F57C53A3F1FE0392F0000F00F0B3807B
:1045900095F0000F00F077802DE901494FEA1140B6
:1045A00021EA00484FEA144624EA064700FB06FCCD
:1045B00008FB06F607FB08F818EB06484CEB164C10
:1045C00000FB07F718EB07484CEB17404FEA124B7C
:1045D00022EA0B4E4FEA154625EA06470BFB06FC7E
:1045E0000EFB06F607FB0EFE1EEB064E4CEB164CC2
:1045F0000BFB07F71EEB074E4CEB174B18EB0B08AA
:1046000040F1000018EB0E0B58EB000840F10000E1
:104610008F1A4FF000014FF000063CBFC943661BE4
:1046200014BFB5EB040C00213CBFC943F61B4FEA95
:10463000174427EA04454FEA1C472CEA074C04FBC1
:10464000076205FB07F70CFB05F616EB074642EB86
:10465000174204FB0CFC16EB0C4642EB1C421BEB16
:10466000060658EB020241414EEA8E0E46EA9E06CD
:1046700001D5BDE80189B619524141EB0101A3F111
:104680000103BDE801894FEA144524EA05464FEAD3
:10469000114721EA074C05FB07F406FB07F70CFB63
:1046A00006F111EB074144EB174405FB0CFC11EB41
:1046B0000C4144EB1C444FEA124722EA074C05FB2D
:1046C00007F206FB07F70CFB06F616EB074642EB74
:1046D000174205FB0CFC16EB0C4642EB1C456A1816
:1046E00054F1000148BF7047B619524141EB010136
:1046F000A3F10103704795F0000F37D04FEA114244
:1047000021EA02464FEA144724EA074C02FB07F16C
:1047100006FB07F70CFB06F414EB074441EB1741CB
:1047200002FB0CFC14EB0C4441EB1C414FEA154717
:1047300025EA074C02FB07F506FB07F70CFB06F61C
:1047400016EB074645EB174502FB0CFC16EB0C4637
:1047500045EB1C42121951F1000148BF7047B619D0
:10476000524141EB0101A3F1010370474FEA1445A7
:1047700024EA05464FEA114721EA074C05FB07F1F9
:1047800006FB07F70CFB06F212EB074241EB174161
:1047900005FB0CFC12EB0C4251EB1C414FF00006E8
:1047A00048BF7047921841EB0101A3F10103704724
:1047B000490050EAC12018BF04204A0D18BF40F03C
:1047C000010040F2FF72B2EB515F08BF40F00200FF
:1047D000012808BF0520704730380A2801D201207F
:1047E000704700207047000010B500290AD00878F3
:1047F000002807D005487844FCF7B6FD002801D012
:10480000002010BD0248784410BD00006E05000075
:104810006605000010B500290AD00878002807D0E6
:1048200005487844FCF7A0FD002801D0002010BD09
:104830000248784410BD00005E05000056050000E7
:104840000808A0F500114FEA3101704743004FEA14
:10485000D30C4FEA3C0C43401FBF40070CF16051A2
:1048600013F0FE4F70471CF0006F03D10CF00041B5
:10487000002070470CF0004343EA507040EACC003F
:1048800010B500F006F900BF000000924FEA0001E9
:10489000FFF7D6BF4FF00041A1F500214FF0000017
:1048A0007047000090EA010F48BF81F0004100F11D
:1048B0004281421A3CBF801A89184FEAD052A2EBBB
:1048C000D1534FF07F4C1CEA410F18BF9CEA026F96
:1048D00000F03B804FF0004C4CEA00204CEA0121F4
:1048E00021FA03FC10EB0C0C1ED202F1FF325FEA3E
:1048F0001C2040EBC25038BF70471CF07F0F4FEABE
:10490000400C18BFBCF17F4F38BF7047C3F1200384
:10491000994008BF20F00100BCF17F4F38BF7047BD
:10492000A0F1C04000F0FBB84FEA3C00000A40EBA9
:10493000C25028BF1CF0FF0F4FEA400CE6D018BF52
:10494000BCF17F4F38BF7047EAE79CEA026F05D0A1
:1049500010EA5C0F08BF00F00040704710B500F08F
:1049600098F800BF64FBBE3EB0FA80F310FA03F281
:10497000C3F19D030AD0D90501EB1220530638BFBD
:10498000704700F1010008BF20F0010070470000EF
:104990004FF47F0C1CEAD0121EBF1CEAD11392EA1E
:1049A0000C0F93EA0C0F00F0478090EA010F48BF0C
:1049B00042F480724FF0004C4CEA00204CEA012196
:1049C00002EB0302A0FB0113A2F50002002918BFAD
:1049D00043F001035B0028BF4FEA330342EB22425E
:1049E0005FEA132C4CEBC2502EBFBCEB436FB2F509
:1049F0007C0F70474FEA036CBCF1004F08BF20F0FA
:104A00000100B2F57C0F38BF70470BD582F0FF0272
:104A100012F5803FC8BF704700F1C040D8BF00F01A
:104A20000040704700F5000C5FEA4C0C48BF70472F
:104A3000B0F1C04000F073B80CEAD11390EA010F56
:104A400048BF42F48072624538BF634504D280EAB1
:104A5000010000F00040704710B500F01AF800BFE8
:104A60008900013E00F007B800F009B85FEA410C88
:104A70005FEA1C6C08D080EA010000F050B85FEAE1
:104A8000400C5FEA1C6CF6D14FF00040A0F58000AE
:104A900070470EF1020E2EF0030E5EF8044B244216
:104AA00004D44FEA4102B2F17F4F11D84FEA4003DC
:104AB000B3F17F4F0CD80ED14FEAD07C0CEB4C0CED
:104AC0000CF1020CB2F17F4F08BF4CEBD17C04E03B
:104AD0004FF0080C01E04FEAD17C0CEB4C0324FAB8
:104AE00003F404F00704B4F1040C06D20EEB840CBA
:104AF000BDE810404CF0010C6047DFE80CF00708FF
:104B000002024FF00040A0F5800010BD08464200B0
:104B100018BFD2F1807288BF00F0004010BDFF21A5
:104B200041EAD050C005704790EA010F48BF81F0BC
:104B300000413FF5BEAE421A04D882F00042A0EB1D
:104B4000020011444FEAD052A2EBD1534FF07F4CF8
:104B50001CEA410F18BF9CEA026F4AD04FF0004C8C
:104B60004CEA00204CEA012121FA03FCB0EB0C0CCA
:104B70000FD412F0FE0F36D05FEA4C001DD50012A4
:104B800040EBC25038BF70471CF03F0F18BF704752
:104B90000BE05FEA1C20A2F1010240EBC25038BFDB
:104BA00070471CF07F0F18BF7047C3F12003994076
:104BB00014BF401E20F0010070474FEA1223800806
:104BC00008BF7047B0FA80FCA2EB0C02CCF1280CB5
:104BD00060FA0CF093EA122F04BF00EBC25070474A
:104BE0004FEAC3707047130A5FEADC1008BF7047D2
:104BF000F6E79CEA026F04D010EA5C0F08BF0020C1
:104C0000704710B5FFF745FF40DFF63E81F00040EA
:104C10007047FBF7B1BFFCF7E5B8000000000000EB
:104C200000000000303132333435363738394142F4
:104C300043444546403058003031323334353637FE
:104C400038396162636465664030780004000008AA
:104C500000000000000000020001000010303132AE
:104C6000333435363738396162636465667870008D
:104C70003031323334353637383941424344454692
:104C80005850000002400000000000A0000000009A
:104C900005400000000000C8000000000C400000BB
:104CA0000000409C00000000194000000020BCBE35
:104CB0000000000034400000BFC91B8E000000044B
:104CC000B5400000504BCFD06607E2CF0100000096
:104CD0006C4100003E8251AADFEEA73401000000C3
:104CE000D9420000DCB5A0E23A301F97FFFFFFFF7A
:104CF000B4450000FD25A0C8E9A3C14FFFFFFFFF99
:104D0000FF3F00000000008000000000FF3F0000A7
:104D10000000008000000000010200000000000010
:104D20000000010203040607080900000000010258
:104D3000030402030405060708090A0B0C0D0E0FF5
:104D400010100000904E000800000020100000002D
:104D50006C010008A04E000810000020C8080000E8
:104D6000880100081C00000043000000F8FFFFFF5E
:104D70000C0000000E0000000F0000002E000000DC
:104D80001001000043000000F8FFFFFF004040401A
:104D9000404040404040414141414140404040400E
:104DA00040404040404040404040404040050202BA
:104DB0000202020202020202020202020220202079
:104DC00020202020202020020202020202029090D5
:104DD00090909090101010101010101010101010D3
:104DE0001010101010101010020202020202888827
:104DF0008888888808080808080808080808080833
:104E0000080808080808080802020202400000001A
:104E10000000000000000000000000000000000092
:104E20000000000000000000000000000000000082
:104E30000000000000000000000000000000000072
:104E40000000000000000000000000000000000062
:104E50000000000000000000000000000000000052
:104E60000000000000000000000000000000000042
:104E70000000000000000000000000000000000032
:104E80000000000000000000000000000000000022
:104E900001000000100000000024F400FFFF0000EB
:0400000508000131BD
:00000001FF
